:020000040800F2
:10000000F8B20120390300085B2B0008C922000860
:10001000592B0008E1070008253100080000000006
:10002000000000000000000000000000790200084D
:100030009508000800000000D50200083D2D0008CA
:100040005303000853030008530300085303000838
:100050005303000853030008530300085303000828
:100060005303000853030008530300085303000818
:10007000530300085303000853030008E507000872
:100080005303000853030008530300080000000056
:100090000000000000000000000000005303000802
:1000A0005303000853030008F92D00085303000808
:1000B00053030008530300085303000853030008C8
:1000C00053030008530300085303000853030008B8
:1000D0005303000853030008530300080000000006
:1000E00053030008530300085303000800000000F6
:1000F00000000000000000000000000053030008A2
:1001000000000000530300085303000853030008D5
:1001100000000000000000000000000000000000DF
:100120005303000853030008530300085303000857
:100130005303000800000000000000000000000061
:100140000000000000000000000000005303000851
:100150005303000853030008530300085303000827
:1001600053030008530300080000000000000000D3
:10017000000000000000000000000000000000007F
:100180000000000053030008000000000000000011
:10019000530300085303000800F002F800F05CF875
:1001A0000AA090E8000C82448344AAF10107DA45D2
:1001B00001D100F051F8AFF2090EBAE80F0013F0C8
:1001C000010F18BFFB1A43F001031847B0F90200F2
:1001D000D0F902000A444FF0000C10F8013B13F074
:1001E000070408BF10F8014B1D1108BF10F8015B90
:1001F000641E05D010F8016B641E01F8016BF9D183
:1002000013F0080F1EBF10F8014BAD1C0C1B09D1D9
:100210006D1E58BF01F801CBFAD505E014F8016B4B
:1002200001F8016B6D1EF9D59142D6D370470000DD
:100230000023002400250026103A28BF78C1FBD8EF
:10024000520728BF30C148BF0B6070471FB527F069
:1002500098F91FBD10B510BD00F0F4F91146FFF775
:10026000F5FF1FF0D3F800F012FA03B4FFF7F2FF26
:1002700003BC00F019FA00002C4B19680868B0E8BC
:10028000F04F80F30988BFF36F8F4FF0000080F3C9
:10029000118870470000000008480068006880F37B
:1002A00008884FF0000080F3148862B661B6BFF38F
:1002B0004F8FBFF36F8F00DF00BF00BF08ED00E07E
:1002C000DFF80C00016841F470010160704700BF65
:1002D00088ED00E0EFF30980BFF36F8F134B1A68CE
:1002E0001EF0100F08BF20ED108A20E9F04F1060BB
:1002F00009B44FF0500080F31188BFF34F8FBFF364
:100300006F8F26F0DBFA4FF0000080F3118809BCF4
:1003100019680868B0E8F04F1EF0100F08BFB0EC85
:10032000108A80F30988BFF36F8F70472000002088
:10033000EFF30580704700000948804709480047EF
:10034000FEE7FEE7FEE7FEE7FEE7FEE7FEE7FEE785
:10035000FEE7FEE704480549054A064B70470000E2
:10036000E92D000899010008F8AC0120F8B201203D
:10037000F8AE0120F8AE012053EA020C00F06980CB
:100380002DE9F04B4FF00006002B1FBFB3FA83F5A9
:1003900003FA05F424FA05F65E4012BF1643B2FADA
:1003A00082F502FA05F4C5F120051EBF22FA05FC0C
:1003B00044EA0C04203556EA044C4FEA144418BFB2
:1003C000641C4FF000084FF00009904271EB030CE1
:1003D00039D3002919BFB1FA81F701FA07F6B0FA4B
:1003E00080F700FA07F6C7F120071EBF20FA07FCC6
:1003F00046EA0C062037B6FBF4FCA7EB0507103FD6
:1004000007F01F0BCBF120060CFA0BFB2CFA06F6BB
:1004100044BFB3460026202FA4BF5E464FF0000B1A
:100420005BEA060C08BF4FF0010B19EB0B09ABFBA5
:10043000027C48EB0608C01B06FB02CC0BFB03CC7E
:1004400071EB0C01C1E70B46024641464846BDE848
:10045000F08B13B54FF000004FF00001AFF30080B8
:10046000BDE81C40704710B54C1084EA530404D515
:100470004042C1F1000138BF491E1B4204D552421F
:10048000C3F1000338BF5B1EFFF776FF14F0804F07
:1004900004D04042C1F1000138BF491E14F0004FA2
:1004A00004D05242C3F1000338BF5B1E10BD032AC3
:1004B00040F2308010F0030C00F0158011F8013B81
:1004C000BCF1020F624498BF11F801CB00F8013B68
:1004D00038BF11F8013BA2F1040298BF00F801CB2C
:1004E00038BF00F8013B11F0030300F02580083A03
:1004F000C0F0088051F8043B083A51F804CBA0E85A
:100500000810F5E7121D5CBF51F8043B40F8043BAE
:10051000AFF30080D20724BF11F8013B11F801CBE3
:1005200048BF11F8012B24BF00F8013B00F801CBB4
:1005300048BF00F8012B704710B5203AC0F00B807F
:10054000B1E81850203AA0E81850B1E81850A0E8D7
:100550001850BFF4F5AF5FEA027C24BFB1E8185031
:10056000A0E8185044BF18C918C0BDE810405FEAA1
:10057000827C24BF51F8043B40F8043B08BF70471D
:10058000D20728BF31F8023B48BF11F8012B28BF22
:1005900020F8023B48BF00F8012B704702F0FF0330
:1005A00043EA032242EA024200F02CB84FF0000274
:1005B00000B5134694469646203922BFA0E80C5059
:1005C000A0E80C50B1F12001BFF4F7AF090728BF34
:1005D000A0E80C5048BF0CC05DF804EB890028BFB0
:1005E00040F8042B08BF704748BF20F8022B11F0D9
:1005F000804F18BF00F8012B704770477047704755
:100600004FF000020429C0F0128010F0030C3FF4F8
:10061000CFAFCCF1040CBCF1020F18BF00F8012BD6
:10062000A8BF20F8022BA1EB0C01FFF7C1BF5FEAC6
:10063000C17C24BF00F8012B00F8012B48BF00F853
:10064000012B7047754600F02BF8AE460500694651
:10065000534620F00700854618B020B5FFF77AFE14
:10066000BDE820404FF000064FF000074FF00008B3
:100670004FF0000B21F00701AC46ACE8C009ACE834
:10068000C009ACE8C009ACE8C0098D46704710B598
:100690000446AFF300802046BDE81040FFF7E5BDFB
:1006A0000048704798AC012001491820ABBEFEE716
:1006B0002600020070470000464910B54A6822F43F
:1006C00040324A604A6843681A434A6001684A688F
:1006D00022F480724A6001684A68036942EA032290
:1006E0004A6001684A6822F040724A6001684A68BC
:1006F00083681A434A6001688A6822F400628A604B
:1007000001688A68C3681A438A60816A6FF0706200
:10071000D14201688A6822F070628A6001688A6842
:100720000CD0836A1A438A6001688A6822F04052BA
:100730008A6001688A68C36A1A4301E022F0405265
:100740008A6001688A6822F002028A6001688A6809
:10075000037E42EA43028A6090F820100029016873
:100760004A680FD042F400624A6001684A6822F485
:1007700060424A6001684A68174C436A04EB43339D
:100780001A4301E022F400624A600168CA6A22F456
:100790007002CA620168CA6A838B104C04EB03536F
:1007A0001A43CA6201688A6822F400728A6001688A
:1007B0008A6890F8303042EA43228A6001688A6889
:1007C00022F480628A6001688A68406942EA802077
:1007D000886010BD0023014000E0FFFF0000F0FF33
:1007E000FEE70000014800F065B90000400200206B
:1007F00001681823CAB2103AB2FBF3F2054B6FF34B
:100800000901032A9B5CC36500D9091D816508465F
:1008100070470000F875020810B5014600208B698A
:100820008A6A4FF0C07453B1B3F5005F15D072B14E
:10083000012A0CD0022A0AD0032A09D104E01AB1F5
:10084000012A06D0022A03D1C96AC90100D50120B4
:1008500010BDC96AA142FAD010BD002AF7D0012A02
:10086000F2D0022AF3D0032AF3D010BD30B50468C9
:10087000256825F480252560046863608368402B23
:10088000036803D099600068C26030BD9A60006858
:10089000C16030BD704772B6FEE7000078B5002435
:1008A000009490F83C20012A19D0012280F83C20C5
:1008B0000A6807230568092A13D9EE680A3A02EB89
:1008C000420293409E43EE600B788A680A3B03EB3A
:1008D00043039A400368DD682A43DA6010E002208F
:1008E00078BD2E6902EB420293409E432E610B7845
:1008F0008A6803EB43039A4003681D692A431A611F
:100900004A681F23072A13D205686E6B521E02EB3A
:10091000820293409E436E630A8893B20A79521E04
:1009200002EB820293400268556B2B43536327E02E
:1009300005680D2A12D22E6BD21F02EB8202934061
:100940009E432E630B790A88DB1F92B203EB83036D
:100950009A4003681D6B2A431A6311E0EE6A0D3A50
:1009600002EB820293409E43EE620B790A880D3BB4
:1009700092B203EB83039A400368DD6A2A43DA628A
:100980001B4B0568194A9D420AD10D68122D07D1EB
:10099000556825F400055560556845F48005556097
:1009A00005689D421DD1134D0B68AB4201D0112B40
:1009B00017D1536823F480035360536843F4000352
:1009C00053600968A9420CD10B490C4A0968B1FB74
:1009D000F2F101EB8101490000E0491E009100297C
:1009E000FBD180F83C40002078BD0000002301408E
:1009F00000200140120000101C00002040420F00A7
:100A000070B504004FF0000503D0206C002610B133
:100A100007E0012070BD204600F01CF8666484F8F1
:100A20003C60206CC00610D4206C20F4885040F04C
:100A3000020020642046FFF73FFE6664206C20F031
:100A4000020040F00100206400E0012584F83C60D1
:100A5000284670BD10B586B0044614216846FFF7DD
:100A6000A5FD1149206888421CD110480021026868
:100A700042F480720260006800F4807005900B48B8
:100A80001438026842F001020260006800F00100C0
:100A90000590E02000900320CDE90101694604485B
:100AA00000F08CF906B010BD00200140443802402F
:100AB000000002402DE9F84304464FF00009CDF84C
:100AC000009063484FF41651A56D0068B0FBF1F734
:100AD0002E6894F85C10082000FA01F131420FD022
:100AE00021680A6852070BD50A6822F004020A60DE
:100AF00094F85C108840A860606D40F0010060656B
:100B000094F85C104FF0010808FA01F0304208D068
:100B100021684969090604D5A860606D40F00200AB
:100B2000606594F85C1004208840304208D0216849
:100B30000968890704D5A860606D40F0040060650D
:100B400094F85C1010208840304218D02168096861
:100B5000090714D5A86020680168490304D5006816
:100B6000000308D5A16C07E00168C90503D401683A
:100B700021F008010160216C09B12046884794F8F2
:100B80005C1020208840304231D021680968C906B5
:100B90002DD5A86094F8350005282068016806D096
:100BA000490347D5006800031DD4616C1CE021F0A7
:100BB000160101602068416921F080014161206CCB
:100BC00008B9A06C20B12068016821F0080101601B
:100BD00094F85C103F208840A86084F8358084F841
:100BE0003490216D1FE0E16B09B120468847606DAC
:100BF00000282BD0606DC00714D0052084F8350084
:100C00002068016821F0010101600098401C0090FB
:100C1000B84203D820680068C007F6D184F8358050
:100C200084F83490E16C002910D001B02046BDE872
:100C3000F04308470168C905D5D4016821F01001C7
:100C4000016084F8358084F83490CCE7BDE8F883FF
:100C50001C0000202DE9F041044600F0ADF90646E5
:100C60005CB1022084F83500002584F834502068F7
:100C7000016821F0010101600DE00120BDE8F08173
:100C800000F09AF9801B052805D920206065032013
:100C900084F83500F2E720680068C007F0D12268C8
:100CA000116820480140D4E901031843D4E9033610
:100CB0003343184363691843A3691843E36918432E
:100CC000236A18430843616A042903D1D4E90B134A
:100CD00019430843106020684069666A20F00701E4
:100CE00030460E43012704280CD1A06A0643E06A6F
:100CF00040B12046FFF790FD20B14020606584F8A8
:100D00003570BAE7206846612046FFF771FD94F818
:100D10005C203F2191408160656584F8357000203A
:100D2000ACE700003F8010F02DE9F0410446866DED
:100D300090F83400002501280DD0012084F83400FB
:100D400094F835700020012F07D084F83400022574
:100D50002846BDE8F0810220FBE7022784F83570C1
:100D600060652046FFF782FD94F85C103F208840C4
:100D7000B0602068016841F016010160206C20B16C
:100D80002068016841F0080101602068016841F0B5
:100D900001010160DCE7000070B5044600F00CF9C9
:100DA0000546601C02D004480078044400F004F9B1
:100DB000401BA042FAD370BD100000202DE9F84F6F
:100DC000DFF8B8A10022012403254FF00F090AF132
:100DD000040BAAF1040E00BF0B6804FA02F63340BC
:100DE000B34273D10F7907F00307012F01D0022F0F
:100DF00016D187684FEA420805FA08FC27EA0C0773
:100E0000D1F80CC00CFA08FC4CEA070CC0F808C07A
:100E10004768B7430E79C6F3001696403E434660D6
:100E20000E79F643B6070DD0C768560005FA06FCE2
:100E300027EA0C07D1F808C00CFA06FC4CEA070CAC
:100E4000C0F80CC00E7906F00306022E10D1D608A9
:100E500000EB8608D8F8206057074FEAD76C09FAEC
:100E60000CF7BE430F6907FA0CF73743C8F8207038
:100E700006684FEA420C05FA0CF7BE430F7907F0FB
:100E8000030707FA0CF7374307604E6816F4403F34
:100E90006DD03B4E376847F480473760366822F0A4
:100EA000030706F480460096364E07EB060CDCF886
:100EB000086897073F0F09FA07F826EA0806DFF8DF
:100EC000C880404503D14FF000081EE04FE0DFF836
:100ED000BC80404502D14FF0010816E0DFF8B08039
:100EE000404502D14FF002080FE0DFF8A8804045EE
:100EF00002D14FF0030808E0DFF89C80404502D1A2
:100F00004FF0040801E04FF0070808FA07F848EA34
:100F10000608CCF80888DAF800605746D1F804C013
:100F20009E435FEACC2C00D51E433E60DBF8006098
:100F30005F46D1F804C09E435FEA8C2C00D51E4367
:100F40003E60DEF800607746D1F804C09E435FEA59
:100F50008C3C00D51E433E60084F083F3E68D1F8E8
:100F600004C09E435FEACC3C00D51E433E60521C49
:100F7000102AFFF431AFBDE8F88F0000083C0140B3
:100F800044380240003001400000024000040240AA
:100F900000080240000C024000100240426921EAB1
:100FA00002030A4043EA0241816170470AB181614C
:100FB00070470904FBE700000148806870470000A3
:100FC0001000002070B5040025D094F83D000025E5
:100FD00020B984F83C50204600F0B8F8242084F86A
:100FE0003D002068016821F001010160206801686E
:100FF00041F4004101602068016821F40041016072
:1010000000F056FA4D4A6168914201D84C4900E01F
:101010004C49884201D2012070BD4B492368B0FB86
:10102000F1F15E6826F03F060E435E60636893420E
:1010300006D94FF4967359434FF47A73B1FBF3F129
:101040002368491C1E6A26F03F0631431962616815
:10105000914210D84900401EB0FBF1F2521CC2F37D
:101060000B02042A01D2042022E0B0FBF1F0401C64
:10107000C0F30B001CE0A268F2B301EBC10303EB69
:101080000116431EB3FBF6F35B1C43F480431B05C0
:1010900049D092B301EBC10202EB0111401EB0FB3B
:1010A000F1F0401CC0F30B0040F4804040F40040DD
:1010B0002168CA694CF6FF739A431043C861D4E9AA
:1010C000071001432068026822F0C002114301604A
:1010D000D4E9030101432068826848F2FF339A4350
:1010E00011438160D4E9050108432168CA6822F0F0
:1010F000FF021043C86001E00EE016E020680168BE
:1011000041F0010101602564202084F83D00256341
:1011100084F83E50002070BD01EB4106431EB3FB36
:10112000F6F35B1CB3E70120C2E701EB4101401E6F
:10113000B0FBF1F0401CC0F30B00B7E7A086010044
:1011400080841E0000093D0040420F0010B586B0AB
:10115000044614216846FFF729FA1349206888429B
:1011600020D112480021026842F0020202600068A9
:1011700000F002000590C02000901220CDE901018E
:10118000032003900420049069460948FFF716FEE7
:1011900006481030016841F400110160006800F455
:1011A0000010059006B010BD0054004030380240D9
:1011B000000402400248816802781144816070474F
:1011C000100000200B4810B5016841F40071016067
:1011D000016841F480610160016841F4807101603F
:1011E000032000F099F80F2000F006F800F04AF80C
:1011F000002010BD003C024030B505461C4887B0B9
:101200000024016841F480210160006806A900F40F
:101210008020009001A800F02BF900F059F9154941
:10122000154AB0FBF1F11548491E026040F2E73261
:10123000C0E90324C0E90114846100F077FD0400D3
:1012400012D10E4800F0A0FD04000DD11A2000F0CC
:1012500035F8102D07D2002229461A2000F03CF85C
:101260000748056000E0012407B0204630BD0000BB
:101270004438024040420F000048014078030020FB
:10128000140000200C4882B0016841F480410160E4
:10129000006800F4804000900748001F016841F09A
:1012A000805101600068002200F0805000900F2102
:1012B000901E02B000F010B844380240002809DB4C
:1012C00000F01F02012191404009800000F1E02060
:1012D000C0F8001170470000F0B40E4B1B680C46BC
:1012E000C3F30223C3F10705042D00D90425191DFA
:1012F000072901D2002300E0DB1E012606FA05F1D2
:10130000491E214099409E40761E16403143F0BC54
:1013100001F028BF0CED00E0064900F00702086864
:101320004FF6FF03184040EA0220034A10430860CA
:10133000704700000CED00E00000FA052DE9F047D1
:101340000E46050065D0DFF81481D8F80000F7B22A
:1013500000F00700B04207D288F80070D8F800000B
:1013600000F00700B04254D128683D4C810712D5E7
:10137000400703D5206840F4E0502060287800073B
:1013800003D5206840F4604020602068A96820F000
:10139000F000084320602878C0072DD030496868E5
:1013A0000839012812D0022813D0032811D0096867
:1013B000890700292DDA216821F00301014321600A
:1013C000FFF7FAFD814641F2883A0EE00968890389
:1013D000EFE709688901ECE7FFF7EEFDA0EB0901F3
:1013E000514502D90320BDE8F0872068696800F004
:1013F0000C00B0EB810FEFD1D8F80010404601F09F
:101400000701B14207D90770006800F00700B04239
:1014100001D00120E7E72878400705D52068E96872
:1014200020F4E050084320602878000706D52068A3
:10143000296920F4604040EAC100206000F058F8BB
:101440002168084AC1F30311515CC840064908608D
:1014500006480068FFF7D0FE0020C4E7003C0240C9
:10146000083802401CAF02081C00002014000020B5
:101470000F2202600C4A136803F0030343601368F1
:1014800003F0F0038360136803F4E053C360126851
:101490004FF4E05303EAD20202610448006800F00E
:1014A000070008607047000008380240003C024016
:1014B0000448054900680968044AC1F38221515C67
:1014C000C84070471C000020083802402CAF0208BA
:1014D0000448054900680968044AC1F34231515C77
:1014E000C84070471C000020083802402CAF02089A
:1014F000154810B5006810F00C02144813D01449B8
:10150000042A0FD0082A0ED10F4C241F226823680A
:1015100002F03F025B0207D52068C0F38810A0FBF1
:10152000010106E0084610BD2168C1F38811A1FB46
:1015300000010023FEF720FF2168C1F30141491C8F
:101540004900B0FBF1F010BD083802400024F4005F
:1015500040787D012DE9F84F04006ED02078DFF847
:101560004C93C007A9F104054AD009F104000168B1
:10157000C1F38101012908D00068C0F3810002286D
:101580000AD1D9F80000400206D52868800337D573
:1015900060680028E1D033E06068B0F5803F10D08B
:1015A000B0F5A02F286810D020F48030286028687B
:1015B00020F4802028606068A8B1FFF7FDFC064693
:1015C0000DE0286840F48030F4E740F48020286083
:1015D000F7E700BFFFF7F0FC801B642873D828688A
:1015E0008003F7D50CE0FFF7E7FC064605E000BFF7
:1015F000FFF7E2FC801B6428F0D828688003F7D44A
:101600002078DFF8AC8280074FF0000A3ED5A7486B
:10161000001D016811F00C0F08D00068C0F38100B4
:1016200002280BD1D9F80000400207D428688007AF
:1016300016D5E068012800D112E033E1E068B8B1C6
:101640000120C8F80000FFF7B7FC064605E000BF20
:10165000FFF7B2FC801B0228C0D828688007F7D5A6
:101660002868216920F0F80040EAC10028600DE0F8
:10167000C8F800A0FFF7A0FC064604E0FFF79CFCBA
:10168000801B02281FD828688007F7D4207800071D
:1016900022D5864F87486169703771B10121016099
:1016A000FFF78AFC064604E0FFF786FC801B022851
:1016B00009D838688007F7D50EE0C0F800A0FFF71A
:1016C0007BFC064605E082E0FFF776FC801B0228E3
:1016D0007DD838688007F7D42078400768D5DFF8D0
:1016E000CCB100270BF13C0BDBF80000C0000BD4A1
:1016F000DBF8001041F08051CBF80010DBF800005F
:10170000012700F0805000906B4E3068C00510D467
:10171000306840F480703060FFF74EFC009005E0C8
:10172000FFF74AFC0099401A022850D83068C005DB
:10173000F6D55E4EA0686C3601280FD005283068BB
:1017400010D020F001003060306820F004003060DC
:10175000A068B8B1FFF730FC00900FE0306840F0AF
:101760000100F4E740F004003060F7E7FFF724FCE5
:101770000099411A41F28830814266D8306880076A
:10178000F4D50EE0FFF718FC009007E0FFF714FC1B
:101790000099411A41F28830814256D8306880075A
:1017A000F4D42FB1DBF8001021F08051CBF80010F9
:1017B000A069C8B33D49091D0968C1F38101022927
:1017C0004AD00228504607D0C8F8600000E03CE04C
:1017D000FFF7F2FB04463BE04746C8F86000FFF71E
:1017E000EBFB064605E000BFFFF7E6FB801B022887
:1017F0002BD828688001F7D4D4E907010843A16AEF
:101800002E4A490802EB0141626A41EA821108430B
:1018100094F82C1040EA0161C9F8001001203866E4
:10182000FFF7CAFB044606E03EE000BFFFF7C4FB3B
:10183000001B022809D828688001F7D534E000BFD2
:10184000FFF7BAFB001B022802D90320BDE8F88F7E
:1018500028688001F4D427E00128F7D0D9F80000E7
:10186000E26900F4800191421CD1226A00F03F013C
:10187000914217D147F6C071626A0140B1EB821FF5
:1018800010D1A26A4FF0FF3300F4403103EB520253
:10189000B1EB024F06D194F82C1000F07060B0EB61
:1018A000016F01D00120D1E70020CFE704380240CA
:1018B00000004742800E4742007000400000FFFFDA
:1018C000704770B5040009D0606A002540B12561F9
:1018D0006561A56294F8510040B10CE0012070BD33
:1018E0006068B0F5827FF4D0E561F2E784F850508B
:1018F000204600F045F8022084F851002068016875
:1019000021F040010160A088218900F4827001F477
:1019100004410843A18901F400610843217C01F0DE
:1019200002010843217D01F001010843218B01F4EC
:1019300000710843217F01F03801084394F820101A
:1019400001F080010843218D01F400510843216812
:101950000860A069042101EA104094F8241001F005
:1019600010010843216848602068C16921F40061C2
:10197000C1616565012084F85100002070BD000040
:1019800070B586B0064614216846FEF70FFE1F4963
:101990003068884238D11E480025016841F48041F2
:1019A0000160006800F48040059019481038016813
:1019B00041F0020101600068694600F002000590F4
:1019C0004FF4204000900220CDE901050320039050
:1019D000052004900F48FFF7F1F9104C0E48C4E9B8
:1019E00000054020C4E9020500012061400060615B
:1019F000C4E90605256220466562FFF72BF908B1A8
:101A0000FEF749FFB464A66306B070BD003800401D
:101A10004038024000040240706002404002002052
:101A20002DE9F84F984616468A460446FFF7C4FA51
:101A3000814694F8510001281ED1BAF1000F73D0ED
:101A4000002E71D094F85000012815D0012784F899
:101A50005070032084F8510000256565C4F830A05B
:101A6000A686E686A563A587E58765642564A068E4
:101A7000B0F5004F03D00CE00220BDE8F88F2068DD
:101A8000016821F0400101602068016841F4804153
:101A9000016020680168490603D4016841F04001F3
:101AA0000160E068B0F5006F606803D048B3012EB4
:101AB00027D047E008B1012E1FD1206B2168008894
:101AC000C86006E020688168890709D5216B09880C
:101AD000C160206B801C2063E08E401EE0860CE01D
:101AE000FFF76AFAA0EB0901414503D3B8F1FF3FC4
:101AF00003D035E0B8F1000F32D0E08E0028E1D1FC
:101B000023E0206B21680078087306E02068816874
:101B100089070AD5216B09780173206B401C20636B
:101B2000E08E401EE0860DE02BE0FFF745FAA0EBCB
:101B30000901414503D3B8F1FF3F03D010E0B8F1EC
:101B4000000F0DD0E08E0028E0D14A4641462046E5
:101B500001F052F808B120206065A06830B109E0BA
:101B600084F8517084F85050032086E72068C168DB
:101B70008068009084F8517004F8505F6068002815
:101B8000F3D0012079E7000070B5044690F85100C9
:101B900001281CD1C9B1C2B194F85000012816D057
:101BA000012084F85000032084F851000025656569
:101BB0002163A286E286A56365642564A587E5871F
:101BC000A068B0F5004F04D00DE0012070BD0220E8
:101BD00070BD2068016821F0400101602068016843
:101BE00041F480410160A16C17480864A16C17485A
:101BF000C863A16C1648C864A06C0565E38E2268B2
:101C0000216B0C32A06CFFF78FF830B1606D40F0A3
:101C10001000606584F85050D7E7206801684906D5
:101C200003D4016841F04001016084F850502068FD
:101C3000416841F0200141602068416841F00201A3
:101C40004160002070BD00008B2B0008952B000820
:101C5000692B0008704770477047704710B590F8BF
:101C60003C20012A22D0012280F83C20CA688C68DE
:101C700022F4407222434C6822F4806222430C68B2
:101C800022F4006222430C6922F4805222434C6900
:101C900022F400522243C969002322F480420A43FD
:101CA00001684A6480F83C30002010BD022010BD5D
:101CB00070B590F83C20012A2CD0012480F83C40DB
:101CC000022280F83D2003685A689D6822F0700661
:101CD0000A6832435A60104B02689A420ED0B2F141
:101CE000804F0BD00D4B9A4208D00D4B9A4205D035
:101CF0000C4B9A4202D00C4B9A4204D1496825F011
:101D000080031943916080F83D40002180F83C1029
:101D1000084670BD022070BD000001400004004074
:101D200000080040000C00400040014010B50400D5
:101D300003D094F83D0010B107E0012010BD002051
:101D400084F83C00204600F01EF8022084F83D0094
:101D5000211D206801F05EF8012084F8460084F817
:101D60003E0084F83F0084F8400084F8410084F885
:101D7000420084F8430084F8440084F8450084F865
:101D80003D00002010BD704790F83D10012901D0A2
:101D900001207047022180F83D100168CA6842F0B6
:101DA0000102CA6000680E4988420ED0B0F1804F2F
:101DB0000BD00C49884208D00B49884205D00B490A
:101DC000884202D00A49884204D1816801F00701A3
:101DD000062903D0016841F001010160002070472D
:101DE000000001400004004000080040000C0040DA
:101DF0000040014070472DE9F04104460068C66884
:101E000005694FF00007A90713D5B10711D5F91ED1
:101E1000016101202077206880698007204602D078
:101E2000FFF7E8FF04E000F0C1F8204600F07EF97B
:101E30002777680716D5700714D521686FF004005E
:101E40000861022020772068806910F4407F2046D6
:101E500002D0FFF7CFFF04E000F0A8F8204600F022
:101E600065F92777280715D5300713D521686FF056
:101E700008000861042020772068C0698007204698
:101E800002D0FFF7B7FF04E000F090F8204600F022
:101E90004DF92777E80616D5F00614D521686FF0BE
:101EA00010000861082020772068C06910F4407F86
:101EB000204602D0FFF79EFF04E000F077F82046AE
:101EC00000F034F92777E80708D0F00706D021683A
:101ED0006FF001000861204600F082F9280608D55D
:101EE000300606D521686FF0800008612046FFF7B4
:101EF000B3FE680608D5700606D521686FF040006D
:101F00000861204600F076F9A8060AD5B00608D583
:101F100021686FF0200008612046BDE8F041FFF71E
:101F20009CBEBDE8F081000010B586B004461421C7
:101F30006846FEF73BFB2368174C00211748022236
:101F4000A34211D1036843F001030360006800F06D
:101F50000100059050020090CDE901210120CDE95A
:101F6000031069460E4812E00E4CA34211D10368DB
:101F700043F002030360006800F002000590601562
:101F80000090CDE90121CDE9031269460648FEF72C
:101F900015FF06B010BD00000000014030380240BF
:101FA000000002400008004000040240704770B585
:101FB000044690F83C0000260D4601280FD0012071
:101FC00084F83C006AB1042A1DD0082A2FD00C2ABC
:101FD0003FD00126002084F83C00304670BD02202E
:101FE00070BD206800F076FF2068816941F008012B
:101FF00081612068816921F0040181612068816923
:102000002A69114311E0206800F08CFF2068816983
:1020100041F4006181612068816921F480618161FE
:10202000206881692A6941EA02218161D2E720683A
:1020300000F0A4FF2068C16941F00801C161206877
:10204000C16921F00401C1612068C1692A69114395
:1020500011E0206800F0BEFF2068C16941F4006112
:10206000C1612068C16921F48061C1612068C169D2
:102070002A6941EA0221C161ACE710B5040003D02E
:1020800094F83D0010B107E0012010BD002084F855
:102090003C00204600F01EF8022084F83D00211D7F
:1020A000206800F0B7FE012084F8460084F83E0066
:1020B00084F83F0084F8400084F8410084F842002E
:1020C00084F8430084F8440084F8450084F83D0017
:1020D000002010BD08B500681149884212D111488E
:1020E000016841F0010101600068002200F0010078
:1020F00000900F211A20FFF7EFF8BDE808401A20E2
:10210000FFF7DCB80849884209D10648001F01687A
:1021100041F004010160006800F00400009008BD77
:1021200000000140443802400008004070470000B1
:1021300010B50446022249B104290ED0082913D053
:1021400094F84100012816D0012010BD94F83E00FB
:102150000128F9D184F83E200FE094F83F000128CF
:10216000F2D184F83F2008E094F840000128EBD138
:1021700084F8402001E084F841200122206800F02A
:102180009BFE12492068884203D1426C42F400420F
:102190004264206888420ED0B0F1804F0BD00C49C9
:1021A000884208D00B49884205D00B49884202D0AA
:1021B0000A49884204D1816801F00701062903D049
:1021C000016841F001010160002010BD00000140E4
:1021D0000004004000080040000C004000400140A6
:1021E00000680349884201D1FEF7E4BF7047000050
:1021F00000480140704770B5040004D094F84100D5
:10220000002510B106E0012070BD84F84050204642
:1022100000F024F8242084F841002068C16821F4EB
:102220000051C160204600F0F7FE2068016921F4EA
:10223000904101612068416921F02A0141612068D3
:10224000C16841F40051C1606564202084F84100F8
:1022500084F842006563002070BD000010B586B0B0
:10226000044614216846FEF7A1F914492068884203
:1022700021D113480021026842F020020260006868
:1022800000F0200005900E481438026842F0010268
:102290000260006800F0010005904FF4C05000900B
:1022A0000220CDE901010320039008200490694633
:1022B0000448FEF783FD06B010BD00000014014085
:1022C0004438024000000240FEE700000EB5002442
:1022D00018254FF6FF764FF4FA7700BF24F0E6FAA0
:1022E00008211448FFF724FF00F02CF800F0F6F85E
:1022F000F02300211A460846009400F092F832209C
:1023000000F0C6F9CDE9004533460BA278214820FC
:10231000029400F053FA13F00FF819F079FA23F051
:10232000D3FD25F033F8002024F0F2F938461DF0F3
:10233000CAFAD3E7A002002057656C636F6D652170
:102340000000000000B587B014216846FEF72EF9A2
:1023500009480021026842F001020260006800F0B2
:10236000010005900120CDE9000102906946034873
:10237000FEF724FD07B000BD3038024000000240E7
:102380002DE9F04104461D4616460F462A2000F06E
:1023900043FA204600F030FA304600F02DFA2B20A8
:1023A00000F03AFA384600F027FA284600F024FAFE
:1023B000BDE8F0412C2000F02FBA000070B5141ACF
:1023C0005D1A641C6D1C6C43049EFFF7D9FF0D4D14
:1023D0004FF40060E8602868016841F40061016022
:1023E000A2B231462846FFF7CFFB07480068416894
:1023F0000029FCD10020E8602868016821F4006110
:10240000016070BDE80100204002002010B51446B4
:102410000B460246FFF7B4FF2046BDE8104000F02F
:10242000EBB92DE9F04780461F46581E83B2164689
:10243000501E82B20C464046DDF82090FFF7A0FF08
:102440000AE0454604E0484600F0D6F96D1CADB2FE
:10245000B542F8D3641CA4B2BC42F2D3BDE8F08705
:10246000F0B587B014216846FEF7A0F81848016857
:1024700041F002010160016801F00201059101686B
:1024800041F00201016000684FF4805600F0020044
:10249000059001240F4FCDE900640325694603959B
:1024A0003846FEF78BFC012231463846FEF77EFDAA
:1024B0002E02CDE90064084C694603952046FEF7DC
:1024C0007DFC012231462046FEF770FD07B0F0BDCD
:1024D00030380240000402400000024070B5FFF7AF
:1024E000BFFF00224FF480716748FEF75FFD674D24
:1024F0004FF48054002221462846FEF757FD642001
:10250000FEF74AFC012221462846FEF74FFD6420D3
:10251000FEF742FC112000F07FF97820FEF73CFC2A
:10252000362000F079F9002000F08CF93A2000F014
:1025300073F9052000F086F9B22000F06DF90C2047
:1025400000F080F90C2000F07DF9002000F07AF90D
:10255000332000F077F9332000F074F9B72000F051
:102560005BF9352000F06EF9BB2000F055F9192019
:1025700000F068F9C02000F04FF92C2000F062F95B
:10258000C22000F049F9012000F05CF9C32000F0FE
:1025900043F9122000F056F9C42000F03DF9202044
:1025A00000F050F9C62000F037F90F2000F04AF98A
:1025B000D02000F031F9A42000F044F9A12000F06F
:1025C00041F9E02000F028F9D02000F03BF9042088
:1025D00000F038F90D2000F035F9112000F032F943
:1025E000132000F02FF92B2000F02CF93F2000F0F1
:1025F00029F9542000F026F94C2000F023F9182086
:1026000000F020F90D2000F01DF90B2000F01AF960
:102610001F2000F017F9232000F014F9E12000F04A
:10262000FBF8D02000F00EF9042000F00BF90C208C
:1026300000F008F9112000F005F9132000F002F96C
:102640002C2000F0FFF83F2000F0FCF8442000F0C0
:10265000F9F8512000F0F6F82F2000F0F3F81F20D1
:1026600000F0F0F81F2000F0EDF8202000F0EAF86C
:10267000232000F0E7F8212000F0CEF8BDE87040FC
:10268000292000F0C9B80000000002400004024008
:10269000411F5F2909D84FF4967110FB01F06421A6
:1026A000B0FBF1F001490968C8637047A00200203F
:1026B0002DE9FF4F81B00446DDF83C9000904FEAD1
:1026C00059074FF00008780700D0012000EBD70031
:1026D00000FB09FB203AD0B20390029802994844CB
:1026E000401E83B2E019401E82B22046FFF748FE2A
:1026F000002553E0B9F10C0F2AD0B9F1100F2ED0FC
:10270000B9F1180F2ED0B9F1200F49D127490398FC
:1027100001EB8010002610F805A0109800284FF05B
:10272000010000FA06F000EA0A0022D020B120469B
:10273000049A0299FFF76AFE641C0098A4B2201A5A
:10274000B84225D10298009C401C80B2029023E040
:102750000398174900EB400001EB8000DAE71549C8
:10276000039803E00398144900EB400001EB0010CC
:10277000D0E708B1049800E00E9800F03DF808F1A9
:102780000100C0B2B0FBF7F1804607FB118050B1E9
:10279000761CF6B2082EC0D36D1CADB25D45A9D330
:1027A00005B0BDE8F08F4FF00008F5E7349202085D
:1027B00000760208747A0208648002082DE9FE4F50
:1027C0009946DDE90D6714468A460546DDF83080F6
:1027D0000CE0CDF800804B4651462846CDE9016714
:1027E000FFF766FF05EB560085B2641C2278002ACD
:1027F000EFD1BDE8FE8F000008B5010A8DF800108A
:102800008DF801000123022269460248FFF708F90A
:1028100008BD0000E801002070B5094D06464FF4E0
:102820000074002221462846FEF7C0FB304600F027
:1028300009F821462846BDE870400122FEF7B6BBE4
:102840000000024001B501231A4669460148FFF71E
:10285000E7F808BDE80100201CF044F901201DF054
:1028600032F8F9E77FB500241548009401940294EA
:102870001249039401604FF48031C0E901140461EE
:10288000047680F820400F49C0E90A140125C5618B
:10289000C46080F830404561FEF7B2F808B1FDF73A
:1028A000FAFF0520CDE90005694602940448FDF7CA
:1028B000F5FF002801D0FDF7EEFF7FBD00200140AD
:1028C0004C0100200100000F094808B5016841F4DF
:1028D000001101600068002200F400100090052142
:1028E0000F20FEF7F9FCBDE808400F20FEF7E6BC1C
:1028F0003038024010B500F017FC044A00210448AB
:102900001DF048F80349086010BD00008C750208EE
:102910001D2D00080000002070B586B01421684607
:10292000FDF744FE16480024016841F004010160EF
:10293000016801F004010591016841F001010160A5
:10294000016801F001010591016841F00201016097
:1029500000680C4E00F002004FF400550590002274
:1029600029463046FEF722FB01200095CDE90104FF
:10297000694630460394FEF721FA06B070BD0000A8
:1029800030380240000802400D4810B50B49016084
:102990000C49416000214FF480428160C0E903127C
:1029A00041618161C1610162FEF70CFB002803D027
:1029B000BDE81040FDF76FBF10BD0000005400409F
:1029C00094010020A0860100104810B50E49016056
:1029D0004FF482714160002102228160C0E903123C
:1029E000012242615202C0E9062101624162816214
:1029F0000A21C162FEF765FF002803D0BDE8104040
:102A0000FDF749BF10BD000000380040E80100207C
:102A100010B592B000240F941C2108A81094FDF763
:102A2000C5FD20216846FDF7C1FD20481E49016013
:102A30006321C0E901144FF49671C0E903144461A5
:102A40008461FFF71AFB08B1FDF725FF0F940FA96A
:102A500016481094FFF72CF908B1FDF71CFF602011
:102A6000CDE908040A940B940C940D94082208A94B
:102A70000E480E94FFF79BFA08B1FDF70CFF009487
:102A80004FF40050CDE90440029401940394694648
:102A900006480794FFF7E2F808B1FDF7FCFE03488B
:102AA000FFF742FA12B010BD00000140A002002062
:102AB00010B58AB0002407941C2168460894FDF7DD
:102AC00075FD1648144901606321C0E90114FA211B
:102AD000C0E903148461FFF7D0FA08B1FDF7DBFE0B
:102AE000079407A90D480894FFF7E2F808B1FDF72D
:102AF000D2FE6020CDE9000402940C22694607480A
:102B00000494FFF754FA08B1FDF7C5FE0348FFF738
:102B10000BFA0AB010BD000000080040E8020020D7
:102B20000C4810B50A4901604FF4E13141600021C1
:102B300081600C22C160C0E904128161C161FFF7AC
:102B40005AFB002803D0BDE81040FDF7A4BE10BD1D
:102B50000014014030030020FEE7FEE71821014881
:102B6000FDF724BDC003002010B5806B01684A68E2
:102B700022F003024A60416D41F0100141650121DC
:102B800080F85110FEF79CFE10BD10B5806BFFF76A
:102B900062F810BD38B50546846BFEF70DFA0246A3
:102BA00028680068C00523D42068416821F020010E
:102BB00041602068416821F00201416064212046A3
:102BC00000F01AF818B1606D40F020006065A06850
:102BD000002118B92068C26880680090E186012051
:102BE00084F85100606D18B12046FEF769FE38BDCB
:102BF0002046FFF72FF838BDF8B515460E460B46B0
:102C0000009204460122022100F02CF8A0B91348DA
:102C100013490068B0FBF1F04FF47A71484300901B
:102C20006068B0F5827F0DD13346002280212046B6
:102C3000009500F017F870B1606D40F020006065FD
:102C40000320F8BD009830B1401E009020688068D5
:102C5000C0430006F6D50020F8BD00001C0000208F
:102C600000366E012DE9F8431E469146884604461B
:102C7000089DFEF7A1F9401B351AFEF79DF907469E
:102C800025480068C0F3CB30684338E0701C37D06B
:102C9000FEF792F9C01BA84203D215B1009860B3A9
:102CA0002CE02068416821F0E00141606068B0F5E7
:102CB000827F0BD1A068B0F5004F02D0B0F5806FD5
:102CC00004D12068016821F040010160A06AB0F5DC
:102CD000005F09D12068016821F40051016020687B
:102CE000016841F400510160012084F85100002086
:102CF00084F850000320BDE8F8830025401E0090B2
:102D00002068816838EA010004D000214945BDD11E
:102D10000020F0E70121F9E71C000020064D4FF4E8
:102D200000544FF4FA7621462846FEF737F930462C
:102D30001CF0C9FDF7E700000008024010B54FF095
:102D4000E020006924F02AFA012803D0BDE81040F1
:102D500023F038BF10BD000030B593B03021684675
:102D6000FDF724FC14210CA8FDF720FC1C480024CE
:102D7000016841F080510160006800F080501190BE
:102D80001848016841F4404101600068022500F4E0
:102D9000404011900120039010200490009506956A
:102DA0000820CDE907406420CDE9090504200B90F7
:102DB0006846FEF7CFFB08B172B6FEE70F20CDE9FB
:102DC0000C054FF48050CDE90E4003210CA810945F
:102DD000FEF7B4FA002801D072B6FEE713B030BD9A
:102DE00040380240007000400248016841F4700120
:102DF0000160704788ED00E010B50448FEF7FBFF66
:102E0000BDE810400248FEF7F6BF0000A002002017
:102E100078030020F0B50268204B214C9F03214D20
:102E2000214E984207D0B84205D0A04203D0A84214
:102E300001D0B04204D122F0700C4A6842EA0C0280
:102E4000984210D0B8420ED0A0420CD0A8420AD06E
:102E5000B04208D0154CA04205D0154CA04202D07B
:102E6000144CA04203D122F44074CA6822434C6936
:102E700022F08002224302608A68C2620A6882628B
:102E8000984201D109690163012141610169C907C2
:102E900003D0016921F001010161F0BD0000014092
:102EA0000004004000080040000C004000400140C9
:102EB000004401400048014010B501F01F0301210A
:102EC000046A99408C430462016A9A40114301628A
:102ED00010BD000030B5036A026A22F001020262EE
:102EE0004268846924F073050C682C4323F00205C2
:102EF0008B682B430A4DA8420BD123F00805CB6801
:102F000022F440722B434D6923F0040315438A6970
:102F10002A434260846149684163036230BD000016
:102F20000000014030B5026A036A23F01003036217
:102F3000436884690D6824F4E64444EA05248D68F6
:102F400022F0200242EA05120B4DA8420ED1CD68B4
:102F500022F0800242EA05124D6923F4406343EAFD
:102F600085038D6922F0400243EA85034360846152
:102F700049688163026230BD0000014030B5036AD8
:102F8000026A22F4807202624268C46923F4007308
:102F900024F073050C682C438D6843EA05230C4D1F
:102FA000A8420ED1CD6823F4006343EA05234D699E
:102FB00022F4405242EA05128D6923F4806342EA0A
:102FC00005124260C4614968C163036230BD0000FC
:102FD0000000014030B5046A026A22F480520262A5
:102FE0004268C3690D6823F4E64343EA05238D680C
:102FF00024F4005444EA0534064DA84204D14D6936
:1030000022F4804242EA85124260C3614968016449
:10301000046230BD0000014070B5044600680169DB
:10302000E26821F44051114301612169A068E2691D
:1030300008436169114308432168CA6849F20C6377
:103040009A430243CA6020684169A26921F4407131
:103050001143416131492068884202D03049884299
:1030600002D1FEF735FA01E0FEF722FAE269002309
:10307000192164253226B2F5004F626828D0A0FBE2
:103080000101930F9200FDF777F90146B0FBF5F0CF
:103090006FF01802504301EB800006EB0010B0FB0C
:1030A000F5F000F0F002B1FBF5F002EB0012B1FB1D
:1030B000F5F06FF01803584301EB800006EB0010A9
:1030C000B0FBF5F000F00F0021681044886070BD7F
:1030D000A0FB010192185B41FDF74EF90146B0FBE0
:1030E000F5F00201B1FBF5F06FF01803584301EB66
:1030F000800006EBC000B0FBF5F000F0F80002EB3A
:103100004002B1FBF5F0584301EB800006EBC00034
:10311000B0FBF5F000F00700D6E70000001001401A
:1031200000140140FEE7000010B50121002208460E
:103130001CF004FC074C084A0021A06007481CF062
:1031400029FC054A20602432002105481CF022FC9D
:10315000606010BD04000020B0750208CD22000898
:10316000592800080907090E002804DB00F1E020B7
:1031700080F80014704700F00F0000F1E02080F8A4
:10318000141D704770B5044600256FF02F0608E047
:103190002068411C2160007805EB850106EB4101A8
:1031A00045182068007800F02CF80028F0D1284657
:1031B00070BD70B514460D461BB911460CF088FB66
:1031C000034603FB05F0142C0ED0E11F03290AD897
:1031D000072C0DD0082C0DD0092C0DD00A2C0DD0A9
:1031E000002100EB810070BD590801FB050070BD96
:1031F0000221F6E70421F4E71021F2E74FF4807191
:10320000EFE73038092801D80120704700207047C7
:103210002DE9FC5F9B460CAB8A468146DDE91160D7
:1032200093E81210DDE90F575FEA80784FF0300322
:103230001AD45EB15FEAC07808D000F00C0858EAF2
:103240000C0803D0761E01E00B55641CBC4204D26E
:10325000202CF9D301E00B55641C5FEAC07803D041
:10326000B44201D2202CF6D35FEAC06825D55FEACC
:1032700040580AD44CB1BC4201D0B44205D1641EBE
:1032800003D0102D03D1641E04E0102D02D0022DB6
:103290000AD00EE0850603D4202C1ED2782506E045
:1032A000202C1AD2582502E0202C16D262250D556A
:1032B000641C202C11D20B55641C202C0DD2BCF1A7
:1032C000000F01D02D2306E0430701D52B2302E098
:1032D000030702D520230B55641CCDE900BAC8466C
:1032E000154681468B46AA46800714D1274607E03B
:1032F0002A46DDE900316D1C2020C446E0477F1CD2
:10330000B742F5D307E02A466D1C641EDDE90031A3
:103310001BF80400C047002CF5D15FEA897006D481
:1033200009E02A46DDE900316D1C2020C047A5EBED
:103330000A00B042F5D32846BDE8FC9F2DE9F04FC6
:103340008FB099468B46DDE91818DDE91C63DDE98D
:103350001A4792468646002209B923F01003580501
:1033600007AD00D5C9B1B1FBF4F004FB1010C0B239
:103370000A2801D2303009E05FEA836C02D54FF0B1
:10338000410C01E04FF0610C60440A38B1FBF4F1EC
:10339000A854521C09B1202AE5D3CDF80880CDE904
:1033A0000563CDE90052CDE903474B4652465946E5
:1033B0007046FFF72DFF0FB0BDE8F08F2DE9FF4FEE
:1033C0008FB01CACDDE9239594E8030820AC94E8A9
:1033D000C004002450EA010201D125F010056A055D
:1033E0000DF11C0802D550EA010217D032463B46C7
:1033F000FCF7C2FFD2B20A2A01D2303206E0AB0695
:1034000001D5412300E061231A440A3A08F8042058
:10341000641C50EA010201D0202CE7D3CDE90084DE
:10342000CDF808B0CDE90595CDE9036A0FAF97E86F
:103430000F00FFF7EDFE13B0BDE8F08F9A4200D207
:1034400088547047704770B50D46040011D08DB197
:1034500000F067F800280BD0616800690AF0C0FA34
:103460000646E16B28468847E1680844E06030463C
:1034700070BDFEE7FEE72DE9FF4114460E46054606
:103480000A461F4621466846DDF8288008F0D7FF27
:1034900000281AD0019861682268411A009808FB38
:1034A0000151821A551831683844441A684608F0A8
:1034B000B4FF002107E0625C6B5C1A44FF2A00D96C
:1034C000FF226254491C8142F5D3BDE8FF8110B54B
:1034D00002004FF000000CD04B1E194200D0FEE756
:1034E0000A44521E9A43B2F5803F02D20C2A01D9F7
:1034F000104610BD0C2010BD08444A1E401E9043CB
:10350000114200D0FEE7704710B5402013F076FB63
:10351000040005D04022002113F0A1FC204610BD7C
:10352000FEE72DE9FC410D4604002AD055B304F115
:103530002400804618F0FDF9009008B3076961681F
:1035400038460AF04DFA064629463846626813F0B6
:10355000CBFB04F1300013F076FA019098B104220D
:10356000694613F0C1FB2046009906F025F80422B5
:1035700001A913F0B9FB2146304662680AF040FA0F
:1035800007E0FEE7FEE74046009918F09CF90020AE
:1035900000900098BDE8FC812DE9F0410F46012123
:1035A000002504462E46C16309E01A4919F06CFB58
:1035B00008B16D1C02E0E06B401CE063761C57F81C
:1035C000260010B101780029EFD1A06BA8421FD0CE
:1035D000206B002610B110F037FD2663606B10B130
:1035E00010F032FD6663280113F008FB206338B148
:1035F000680013F003FB606318B1216B11B102E0A6
:10360000FEE7FEE700256A00002113F028FCA56311
:10361000BDE8F0812CD5000810B5044690F85400A0
:10362000E26BC107616C04D121B14B1C18D0491E5B
:103630006164A9B90AB1C10712D02146144813F038
:10364000A7FA00F027F8216909B120468847616987
:1036500009B1204688472046BDE8104010F0F4BC70
:10366000216C49426163002A10D0C10702D1A16BCD
:1036700049426163411C61F3000084F85400E16A2F
:10368000606A6162E062206B2263E06310BD00004B
:103690005851002010B50A4C012084F8A40004F110
:1036A000AC0013F0ABF90028D4F8A80003D0BDE8B3
:1036B00010401BF0B1BABDE810401BF09BBA0000EF
:1036C000AC5000202DE9F0413D4D95F8A50038B1F2
:1036D0005FF0000085F8A5003948AC30074664E08B
:1036E0000120F7E7206D1BF02FF9616B0844606340
:1036F0001BF030F92065002085F8A40094F85400F0
:1037000095F8A510C0F340028A4254D061F34100FD
:1037100084F8540041071ED4616B002941DB000787
:1037200009D4A16939B120468847616A01446162C0
:10373000E16A0844E06220461DF032FFE16809B109
:103740002046884794F8540040F0040084F8540060
:1037500020461DF045FE606B002822DB216B88426D
:1037600000DD6163216A20468847A16A0646B142AE
:103770000DD0A662626812B131462068904795F874
:10378000A40088B9A2682AB131462046904795F82E
:10379000A40048B9D4E90C0181420CDB2046FFF7B4
:1037A0003BFF95F8A40030B1384613F027F9040028
:1037B00098D1BDE8F0812146384613F031F9F6E79B
:1037C000AC50002070B5044640680D4608B1FFF7C4
:1037D000F9FF2268002A04D029462046BDE870403F
:1037E000104770BD70B50D6806460C46286838B1A4
:1037F000296AC90204D5206021463046FFF7F2FF4E
:10380000214630462560BDE87040FFF7DBBF08F079
:10381000D3BB08F017BC000010B5416C96B004464D
:1038200001B3684607F0F4FE2146684607F087FFBB
:103830000F49684607F06DFF6846616C07F061FF4D
:1038400001220021684607F074FF0A49684607F024
:1038500062FF0949684607F04DFF684607F090FF90
:1038600016B010BD16B0BDE810401CF0DDBD000064
:10387000AD040208D5B60008AF04020810B504462E
:10388000406882080AD0496821F00301091D0844F4
:103890006060204600F042F8204610BDFEE7406818
:1038A000103120F00300884201D30120704700202E
:1038B00070472DE9FC47054648680C4620F0030098
:1038C00001AA69461BF0DCFDDDE9007005EBC711BC
:1038D00001EB80098046D9F83C0060B164B1C4E9CD
:1038E000020504F10806C46030460421FFF704FE17
:1038F000864202D0FEE7FEE7FEE7C9F83C40012021
:10390000296900FA07F21143296105EB870100FAE2
:1039100008F04A6902434A61BDE8FC8710B50446D5
:1039200000F087F8046010BD2DE9FC4706464FF013
:1039300000000D0000900746019042D00C46E94679
:103940000DF10408802907D3084621F035FF411FF7
:1039500001208840401E04444246494620461BF050
:103960008FFD009C0A2C2CDA06EB8400019A40693A
:103970004FF0FF3101FA02F210400CD1641C3069A3
:10398000A14008401DD021F00FFF0446009006EB37
:103990008000406978B121F007FF034606EBC411AF
:1039A000019001EB8000C76B5FB1786820F00300E5
:1039B000A84201D2FEE7FEE739463046009A1DF0E4
:1039C0004BFD3846BDE8FC8710B50446FFF7A6FF5F
:1039D000416841F002014160606840F001006060B0
:1039E00010BD10B5044600F024F8416821F0020132
:1039F0004160606820F00100606010BD70B506464F
:103A00000D46084600F015F8040010D02079C007D4
:103A10000BD0686880080BD02146304600F03CF897
:103A200021462846FFF72AFF0546284670BDFEE7D7
:103A3000FEE7426800F1080122F00300001F08447D
:103A4000910800D1FEE7704770B506460C004FF0B4
:103A500000001ED0F2B120791546C0071BD01146D8
:103A60002046FFF71CFF78B12946204600F025F8D4
:103A700005462046FFF752FF6868294640F00200DD
:103A800068603046FFF715FF2046FFF7AAFF04F1F4
:103A9000080070BDFEE7FEE77CB5054648680C46A9
:103AA00020F0030001AA69461BF0EAFCDDE90023CF
:103AB000214628461DF0D0FC7CBD2DE9F0410D4685
:103AC000044600F10801281F0E18606806F1080777
:103AD00020F00300401BA0F1040838460421FFF742
:103AE0000BFD874200D0FEE7606820F0030108EB81
:103AF0000500001D814200D0FEE7307900F0030090
:103B000040EA0800706020F003000C2800D2FEE7B5
:103B1000207900F00300284360603046FFF754FF2F
:103B20003046BDE8F08138B5044611F06DFB05461E
:103B300011F0A5FB0028204605D0616C216416F029
:103B400016F8012038BD0FF0D5FD002820461ED004
:103B50000FF080FCD4E9100181420CD06064206C2D
:103B600000906A462021204617F0B1F80128E9D1DB
:103B7000204615F0FCFF284611F090FB0428E0D108
:103B8000204614F046FC002110F0E5FDD9E70FF0C7
:103B90000FFED6E7002802D0C01C20F003007047BB
:103BA00010F052BAC01C13F029B82DE9F0410446B8
:103BB000006815461346476A0E4600222046B8475D
:103BC00001280FD10020BDE8F0812946204600F0F1
:103BD00013F80028F7D020682B460022476A3146A8
:103BE0002046B8470228F0D020682A4631460369AB
:103BF0002046BDE8F041184770B5044600680E46FF
:103C0000026A20469047050010D0206832462946B7
:103C1000436920469847284609F0DDFEA2693146EF
:103C20009047284609F0CEFE012070BD002070BDEF
:103C30002DE9F04F0C4685B00546002114F00DFB30
:103C400058B32146284600F08DFA2146284600F058
:103C500069F80021284615F0F9F983460021284625
:103C600015F042FA04900021284615F0C6F8012804
:103C70001BD000270021284615F0AAFB8046002112
:103C8000284615F03EF96FF040490646C8450ED16A
:103C9000688D00050BD401200AE005B02046BDE880
:103CA000F04F2022002113F0DAB80127E2E70020CC
:103CB0008046284614F06FFB824628460021822267
:103CC00015F03CFAC2B22369A1682068CDE9003141
:103CD000CDE902075B464146504605F0C3FFA061AF
:103CE0004E4504D1688D400501D4012600E0002630
:103CF000284614F03FFB074628460021832215F092
:103D00001DFAC2B2606900256368E1688DE82B0086
:103D100031463846049B05F0A5FFE06105B0BDE8DB
:103D2000F08F00002DE9F34F81B00C46019805F0AB
:103D300024FA06004FF000081ED1019814F0BEFBD3
:103D400005F01BFA070074D0019805F01AFA8146B5
:103D5000019805F01AFA80468500281D12F04EFFE2
:103D600006462A4607EB890112F0BEFF6FF060415C
:103D700046F828104FF00108019814F00CFB834618
:103D8000304600F01DFF2061800012F037FF2060F8
:103D90002069800012F032FF0025DFF82CA1A0601E
:103DA00038E056F82510DFF82491514531D100272D
:103DB0001FE03946019814F050FA4549009015F07B
:103DC000DEFBA8B9009805F0E0F9012810D10098B1
:103DD00005F0D7F9A8420BD1009815F083FB4946AE
:103DE000484501DA084602E0009815F07BFB814661
:103DF0007F1C019814F070FAB842DAD8B9F1000FBC
:103E000003DBA16841F8259003E0A168002041F898
:103E100025006D1C2069A842C3D8DFF8AC900025AE
:103E200009F10109C9F1000352462F4628469A4676
:103E300014E046E056F82010494503DB6B1803EB0D
:103E40000A050AE0914204D1A16851F820100F44FC
:103E500003E0A3680F4443F82010401C216981420D
:103E6000E8D80021019815F0F1F82169C1F10102AB
:103E700000FB02B0C01B00D50020002114E000BFF1
:103E800056F821204A450EDB02EB0A0300FB03F241
:103E900005EBD57702EB670292FBF5F2A768ED1A06
:103EA000801A47F82120491C22698A4201D9002D35
:103EB000E6D1B8F1000F04D03046BDE8FE4F10F057
:103EC000C3B8BDE8FE8F00009AFFFF1F010000E0AD
:103ED000010006002DE9FC5F054614F03FFC834617
:103EE000A86808B10021C1610021284615F0E3F956
:103EF00001900021284615F051F98246284614F019
:103F00003DFF014601982E4C014401EB0A0728466B
:103F100014F0E2F98046002639E0A868DFF8A090A6
:103F20002849006850F82600009015F028FB68BB6F
:103F3000009815F07DFEE0BB0021009814F042FFD0
:103F4000B8B3012836D0022834D0032832D000215B
:103F5000009815F04CFA60B90098143008F04EFA49
:103F6000019900EB01090021009815F003F848447D
:103F700081460021009814F0E2FF4844A04205DB8E
:103F80000021009814F0DBFF00EB0904761C464585
:103F9000C3D3A86810B1CBF10001C1616FF06040DC
:103FA000C44203D004EB0A00B84200DA3846BDE848
:103FB000FC9FFFE70098A969006A401A401CD7E7F8
:103FC000010000E0010004002DE9FE4F054614F059
:103FD000BFFB0290A86808B100218161002128463A
:103FE00015F03AF900900021284615F006F98346AD
:103FF000284614F0D1FE00EB0B010098DFF85C912D
:1040000001EB00084C46284614F066F907460021EB
:10401000284614F0E6FE01284FF0000645D082E065
:10402000A868CA464E49006850F82600019015F06D
:10403000A6FAC8BB019815F0FBFD20B10198E9690B
:104040004069081A14E00021019814F0BBFE58B131
:10405000032809D0062807D0082805D00021019898
:1040600015F0C2F930B112E00199E8694969401AC6
:10407000401C0BE00198143008F0CFF9009900EBD8
:10408000010A0021019814F063FF50448246002188
:10409000019814F05DFF5044A04205DB0021019817
:1040A00014F056FF00EB0A04761CBE42B8D34C4510
:1040B0003FD05C443DE0A868CA462949006850F8F2
:1040C0002600019015F05BFA60BB019815F0B0FD79
:1040D000E0BB0021019814F075FEB8B3012836D07A
:1040E000042834D0072832D00021019815F07CF93B
:1040F00058B90198143008F090F900EB0B0A002130
:10410000019814F02EFF504482460021019814F0CB
:1041100028FF5044A04205DB0021019814F021FF44
:1041200000EB0A04761CBE42C5D34C4501D0009872
:104130000444A86810B10299494281614C45404647
:1041400002D0444500DD2046BDE8FE8FFFE7019820
:104150006969C069401A401CD6E70000010000E010
:10416000010004002DE9F34F81B00C46019805F0E1
:10417000BCFB06004FF000081ED1019814F09EF918
:1041800005F0B3FB070072D0019805F026FC8146CC
:10419000019805F026FC80468500281D12F02EFDB2
:1041A00006462A4607EB890112F09EFD6FF060413A
:1041B00046F828104FF00108304600F001FD60611C
:1041C000800012F01BFD60606069800012F016FD37
:1041D0000025DFF838A1E0603AE056F82500DFF866
:1041E0003091504533D10027DFF828B11FE0394620
:1041F000019814F032F85946009015F0C0F9A8B9AA
:10420000009805F0EEFB012810D1009805F0E5FBC1
:10421000A8420BD1009814F001F94946484501DA4B
:10422000084602E0009814F0F9F881467F1C0198D6
:1042300014F052F8B842DAD8B9F1000F03DBE168A4
:1042400041F8259003E0E168002041F825006D1C4D
:104250006069A842C1D8DFF8B490002509F10109CE
:10426000C9F1000352462F4628469A4614E04AE018
:1042700056F82010494503DB6B1803EB0A050AE0EA
:10428000914204D1E16851F820100F4403E0E36843
:104290000F4443F82010401C61698142E8D8002196
:1042A000019814F021FF8346019814F063F8014649
:1042B0006069C0F101020BFB0210C01B00D5002099
:1042C000002113E056F821204A450EDB02EB0A03D9
:1042D00000FB03F205EBD57702EB670292FBF5F2E8
:1042E000E768ED1A801A47F82120491C62698A4262
:1042F00001D9002DE6D1B8F1000F04D03046BDE859
:10430000FE4F0FF0A1BEBDE8FE8F00009AFFFF1F19
:10431000010000E00100060070B5044600216E2295
:1043200014F00CFFD8B9204600216C2214F006FFCF
:104330004FF48075A84212D1204600216D2214F05E
:10434000FDFEA8420BD120460021712214F0F6FE9A
:1043500028B920460021722214F0F0FE08B1022094
:1043600070BD20460021602214F0E8FEC0B2FF2894
:104370000DD120460021732214F0E0FE38B920460A
:104380000021672214F0DAFE10F0FF00E8D00120CF
:1043900070BD2DE9F041044606A81D46174690E879
:1043A0004C0002290FD003290BD12946384619F0B9
:1043B00061FC0546304608F030F8401B216808448F
:1043C0002060BDE8F0812946384619F053FC0546C7
:1043D000304608F022F800EBD071491005EBD5709B
:1043E000A1EB6000EAE700002DE9FF4F95B0C87827
:1043F000269CC0070D46002801D0FE4800E0FE487C
:10440000099001D0FD4800E0FD480F9001D1FB4824
:1044100000E0FB48109001D0FA4800E0FA48039011
:1044200001D0FA4800E0FA48069001D1F54800E0D2
:10443000F548059001D1F54800E0F5484FF0140922
:10444000049069E0D4E901124FF0000BA1EB0203E4
:10445000584659464FF00C0E0FE000BF01EB4102E9
:10446000266909EBC20C16F80CC05FEACC7C08D0B8
:104470000EEBC202B2589B1A491C8F42EED80021A3
:1044800044E04FF0100C0CEBC202B2581044F3E7BA
:1044900001EB4106276909EBC60A17F80A20D20783
:1044A00033D1E8B34FF0100C93FBF0F20CEBC60CD9
:1044B000CDF848C057F80C804FF0080C08FB02F804
:1044C00004220CEBC60C02EBC60257F80CC0BA581B
:1044D000CDF820C0C44500DDC446624503DC089A1F
:1044E000424500DD4246424504D04FF0010C47F8FA
:1044F0000AC0E346D4F810C00EEBC6064CF80620FE
:104500002769129EBE59801B9B1A491C62698A4208
:10451000BED8BBF1000F02D06769002F92D100E036
:1045200028E00021159814F06EFC012823D000210A
:10453000002088460D900E900EA90DA8CDE900012F
:104540002878E368626824991BF087FAE87810EA13
:10455000080F05D0159813F01EFF0D9908440D9013
:104560001799159813F079FE0646DFF8A8926FF0B8
:10457000704B3AE1FEE70121DAE7A749304614F033
:10458000FEFF00287AD10021304614F0B1FCE8B3D8
:104590000027384661690FE0226900EB400352F8BA
:1045A0003320B24207D100EB40020C20216900EB1E
:1045B000C2000F5802E0401C8142EDD8E878C007E5
:1045C000708D04D020F4806040F4006003E020F49B
:1045D000006040F48060708506F114000F998246F7
:1045E0008847B84224D0304615F0C1FA706911905E
:1045F000B0691290F0691390306A1490099A3946A4
:104600005046904711AA2E21304600E00CE016F0EB
:104610005EFB304613F052FF3246272116F057FB5F
:10462000304615F0A4FA03E0708D20F440607085E8
:104630006878012823D0022804D0059A002130464A
:10464000904727E0109906F1140088472168059AE1
:10465000491C21F00101081A00EBD0704FEA600AF2
:104660000021304690470746049A00213046904783
:10467000381A00EBD0710AEB61000BE0ADE0109945
:1046800006F1140088472168049A0F1A0021304669
:104690009047381A0790E87810EA080F06D00F996B
:1046A00006F1140088470D99081A0D903046002134
:1046B0006A2214F043FD0746304600216B2214F0B5
:1046C0003DFD8246304614F00DFF0C90304613F04D
:1046D000A5FE0146C7F3417001280DD127F0C04067
:1046E000484509DCB0F1805F01DBABEB00000C9AC0
:1046F0005043642290FBF2F7CAF3417001280CD1B9
:104700002AF0C040484508DCB0F1805F01DBABEB2C
:1047100000004843642190FBF1FA71692298401A25
:104720000744B1692398411A01EB0A000190E87827
:10473000C00706D0039A0021304690470D990844DF
:1047400000E0079800EB070AE878C00701D0079857
:1047500005E0039A0021304690470D9908440199DD
:1047600047185AEA070019D0304615F000FA716967
:1047700001EB0A007061F16901EB0A00F061B069B8
:104780003844B061306A38443062304615F0EFF991
:1047900000233A465146304615F092FAE87810EA7E
:1047A000080F14D10F9906F1140088472599039A30
:1047B00008440E9947180021304690470744069A4E
:1047C0000021304690470D993844084404E00E9982
:1047D000259808440D99081A0D90E87817AAC0F397
:1047E0008001159804F060FF0646002E19D0DDE91F
:1047F000170113E0F7C60008EDC600081BC4000847
:10480000FDC300085D8F0108818F01086F8F0108CB
:104810004B8F0108FEFFFF1F0100060088427FF456
:10482000ACAE19B0BDE8F08F2DE9F04F91B00E009D
:1048300005463AD0AE61286808B10FF005FC06EBDA
:104840004601062000EB410012F0D8F9286018B3A9
:10485000022101EB46010144E960042101EB8601DC
:104860000144C5E9010101210024012E15D03001C8
:10487000103012F0E7F9A346B100CDE9051B8246DE
:10488000C1F1010700EBC600891000F108095C4680
:10489000CDF834B0099196E0FEE7B4220270E868E2
:1048A0000480E8684180A868048011B0BDE8F08FFA
:1048B0004FF00008002F05DC0699032000EB4100B3
:1048C000074408E0DDE905010A1A052101EB420170
:1048D000401E0F4405900698401C069005A800F065
:1048E000DAF870B1059809AB82100DA943F82820B9
:1048F00000F0030041F8280008F10108B8F1040FA6
:10490000D8DBB8F1040F64D10C99099888420AD118
:104910004AF8240049F824B0DDE90D010144DDE93D
:104920000F02104418E00A99884218D04AF824006F
:1049300049F824B069680D98085569680001085560
:104940000998641C401E4AF8240049F824B0DDE9A7
:104950000E0101441098001D084469682CE00B9971
:104960004AF82400884249F824B0DDE90D010844E2
:1049700011D0696808556968000108550998641CD8
:10498000401E4AF8240049F824B0DDE90F0108442C
:104990000830696810E00F9908446968085569682B
:1049A000000108550998641C401E4AF8240049F883
:1049B00024B0109869680C300BF1010B0855696838
:1049C00000010855641C05A800F065F800287FF474
:1049D0006FAF0AEB840140F2D320464351F8041C28
:1049E000B012814205D109EB840151F8041C8142C7
:1049F00019D0A6EB8021B1F5007F03DC494341F3D8
:104A0000CF3106E0C1F58061494341F3CF31C1F1B7
:104A10000F014AF8240049F82400686801556868C5
:104A200009010155641CA01E0DE000BF59F82020AB
:104A30004AF824205AF8202049F8242069680A5CA2
:104A40000A55401E641C0028F0DAEB680021084675
:104A500019801AE0EA6822F81100AB683AF82020C1
:104A600023F811200AE0AB685AF8202033F81160CF
:104A7000964200DA324623F81120401C59F82020D3
:104A80008A4201D1A042EEDB491CA042E2DB504643
:104A90000FF0DAFA09E703C8814201DC0120704710
:104AA00000207047012070477CB504460FF03EF8A7
:104AB000064620460FF036F80546304613F0FEFC59
:104AC0000446302D23D00B2D4DD110F09DFB10B19D
:104AD000007A012847D06946304613F051FD94F81A
:104AE000300010F00C0F30461BD013F054FC05467C
:104AF0000021204614F099F90128009805EBD571A2
:104B00000CD000EB610000BF90FBF5F512E0E16A0C
:104B100002B00022BDE8704018F02EBEC0EB61006C
:104B2000F2E713F027FC019900EBD07201EB620170
:104B300091FBF0F5002D00DA0025E06A0026A8427E
:104B400000D0012610F060FB08B1012200E0002235
:104B50002946204618F010FE002E04D00022202105
:104B6000204616F0B4F87CBD30B5002822DA8B1A46
:104B7000002B00DC531A64225343C0F30901B3FB3A
:104B8000F1F1C0F30953C0F38922C0F3095000EBDF
:104B9000800003EB83034000B1EB430F01D20C46CE
:104BA00000E0044602EB8205B4EB450F03D202EBB2
:104BB0008200400030BDB1EB430FFBD2084630BD50
:104BC000014600206FF0604200E0401C51F82030A8
:104BD0009342FAD170471FB5044690F8640000F084
:104BE0000100884225D094F8640011B140F0010022
:104BF00001E020F0010084F8640004F150016846EF
:104C000007F088FBE06A009942691144009101991C
:104C1000806908440190E06A029940690844029062
:104C2000E06A03998069084403906946204614F0BD
:104C3000B9FF1FBD08B50846114609F064FC009095
:104C4000BDF800009DF8021040EA014008BD0000D8
:104C50002DE9FC5F088C0C46C0F307208F6C09F02F
:104C600073FC8146208D636A81B2CA00B2FBF9F001
:104C7000072202EBC002D6081A0C01FB02FA02FB63
:104C800000F599B20E23364800960AF01BFC060088
:104C900007D0206AD6F81080000C000704D5386AC7
:104CA00018E00020BDE8FC9F207C012801D080B1E5
:104CB00015E001A80090534642460C21386804F0E4
:104CC00074F810B90199514509D030460AF03BFCFF
:104CD000E7E7E06852460169404612F005F8208C8B
:104CE000C0F307200E2837D008EB0A00A0F1010B13
:104CF00008EB0500A0F1010A012000FA09F0401EAE
:104D0000002100F0FF0E0B4624E000BF9BF80000DE
:104D10004A46C84010EA0E000FD080460AE000BFA5
:104D2000C2F1080C00FA0CFC4CEA080C4A440CF0E6
:104D3000FF08D2B2082AF3D340468AF8000001EBFC
:104D40000900C1B2082902D30021ABF1010BAAF17D
:104D5000010A5B1CAB42D9D3FE610120E662A1E7E8
:104D6000A45100202DE9FC478F6C086A0E46D7F845
:104D700000A0C0F307254FF48079072D0DD0082D32
:104D80000DD0092D0DD00A2D0DD0002189008846A7
:104D9000C0F3C04048B1386A28E00221F6E7042198
:104DA000F4E71021F2E74946F0E7307C012801D012
:104DB000D8B115E0084611F021FF040009D001A880
:104DC0000090434622460C21504603F0EEFF20B9E6
:104DD00000E0FEE70199414505D020460FF034F987
:104DE0000020BDE8FC877C6001E0F0680469346362
:104DF000072D09D0082D09D0092D09D00A2D09D079
:104E0000002070630120ECE70220FAE70420F8E7B5
:104E10001020F6E74846F4E72DE9F0430024DDE9E9
:104E20000759D617072808D0082810D0092819D004
:104E30000A2821D00020BDE8F08302EB567405EB70
:104E4000E40502F007020120C2F1070416E002EBBC
:104E50009674022005EBA40502F003020624A4EBDD
:104E600042040BE002EBD274042005EB640502F06F
:104E70000102A0EB820401E00820154401228240D7
:104E8000521E1FFA82FC0026C0F1080211E02F78A2
:104E900009EB8608E74007EA0C0701EB8707241AAD
:104EA0003F6864B2C8F80070002C01DA14466D1C2B
:104EB000761C9E42EBDB0120BDE710B10268D2698F
:104EC0001047FEE770B505460EF02CFE0446284656
:104ED0000EF082FE352C07D1D0F8F802002803D05E
:104EE000BDE8704019F098BE70BD000038B50546A9
:104EF0000948007858B10092888983B2088982B243
:104F0000888884B20888214680B2FDF757FA28467F
:104F1000BDE8384009F030BD480100202DE9F041DE
:104F20000446C0690E4610B10020BDE8F0810122A0
:104F3000002130460AF006FE05004FF0FF3716D07C
:104F400030460BF069FA90B10220A86405F13800F0
:104F5000E561C4E90160204603F0E8FBE169032054
:104F600088640020E0610AF08DFD0120DDE738460D
:104F7000DBE7414302EBA121414303EBA121414384
:104F8000881270477CB5044617F020FC94F8A010F6
:104F900004F12C0541F0010184F8A010F8B10128BA
:104FA0001DD002281DD110F02FF9694610F04AF9E2
:104FB00003226946204616F045FA0021204613F0E8
:104FC00028FF01280ED00026204605F02DFE0146C0
:104FD00094F84C000E40B04206D0012205E0C4F81F
:104FE0009C507CBD0126EFE7002204F1380089B314
:104FF000009902B3D4F884209142F0DBE26F914231
:105000003ADC626FE16F009B891A01EBD17102EB10
:105010006102D11A002900DC991AD4F88460D4F80E
:105020008C20921B02EBD27206EB6206F21A002A67
:105030004ADC9A1B48E0D4F88C209142CFDC626FA6
:10504000914219DBDDE700BF44F89C5F207920F036
:10505000020006E007E000BF44F89C0F207940F012
:10506000020020717CBD01994AB1D4F89020914290
:10507000B5DCA26F91420ADAC4F89C007CBDD4F87A
:1050800088209142ABDBD4F880209142F4DCD4F844
:105090008020A16F521A02EBD27201EB62020199D9
:1050A000511A002901DC0199891AD4F89030D4F8FA
:1050B00088209B1A03EBD37302EB6303019A9A1ABD
:1050C000002A01DC019AD21A8A42C5DABCE72DE92E
:1050D000FF4FB7B0154637981F460C468268DDF87B
:1050E0001081469E1DA807F0AAF900287DD01DA8B2
:1050F00007F093F91C9005A82C22002111F0AFFEB7
:105100001C9811F07BFD03900B90002021902290C1
:10511000239001234246294624A80DF017FD24A818
:105120002190002F07DD00233A4621462DA80DF0DF
:105130000DFD2DA8229010A805900D90BDF814012A
:10514000ADF829009DF816018DF82B008DF8286028
:105150002068C1192868814200DD08461890A068BF
:10516000A968C01B884200DB08461A906068C11914
:105170006868814200DD08461990E068C11BE86854
:10518000814200DA08461B9018A807F046F96168CA
:105190006A68914201DC012100E000218946E16852
:1051A000EA68914201DB012100E000218A46216882
:1051B0002A68914201DC012600E00026A168AA6865
:1051C000914201DB012200E00022904606EA08013C
:1051D00001EA09014FF0010B11EA0A0F03D032284E
:1051E00001DA4FF0000B012000E030E18DF83000D3
:1051F00019EA0B0F0CD0189810901A98129060684A
:105200001190686805A9401E139037980CF0F5F8C6
:105210001AEA0B0F0CD0189810901A981290E868A0
:1052200005A9401C1190E068139037980CF0E5F840
:105230002968A868814205DB96B1B8F1000F02D059
:10524000206812E066B120681090286805A9401E09
:105250001290199811901B98139037980CF0CDF874
:10526000B8F1000F0CD0A868401C1090A0681290F4
:10527000199811901B98139005A937980CF0BDF858
:105280001D98BBF1000F109006D018981F9A411E70
:105290008A423EDA10463DE01F98129068686168C5
:1052A000401AB84200DA3846814600252EE0606890
:1052B0004619E068A0EB05081E98B04202DD20996F
:1052C000414522DBFF211C9A039811F0C8FD1C9870
:1052D0000090334621A8109A03990DF01DFB8DF81C
:1052E00030001E98B04205DC119605A91396379838
:1052F0000CF083F82099414507DBCDF8448005A9DF
:10530000CDF84C8037980CF078F86D1C4D45CEDB0D
:1053100092E0401E129010A807F07FF8051E39DDBC
:1053200056EA090019D01E9C14E011942A46FF2168
:105330001394039811F093FD0095234621A8109A29
:1053400003990DF0E9FA8DF8300005A937980CF0B3
:1053500054F8641C1998A042E7DC56EA0A0619D0F2
:105360001B9C13E011942A46FF211394039811F01B
:1053700076FD0095234621A8109A03990DF0CCFAEA
:105380008DF8300005A937980CF037F82098641C88
:10539000A042E7DA12991D98491C884201DD0146B6
:1053A00001E01299491C10911A99491C884201DCAC
:1053B0001A98401C10901F98129010A807F02DF812
:1053C000051E39DD58EA090019D01E9C14E011941D
:1053D0002A46FF211394039811F041FD00952346BE
:1053E00021A8109A03990DF097FA8DF8300005A9BD
:1053F00037980CF002F8641C1998A042E7DC58EAD0
:105400000A0019D01B9C13E011942A46FF21139423
:10541000039811F024FD0095234621A8109A0399C2
:105420000DF07AFA8DF8300005A937980BF0E5FFFA
:105430002098641CA042E7DA24A80DF0ABFA002FF4
:1054400002DD2DA80DF0A6FA03980EF0FDFD3BB08D
:10545000BDE8F08F2DE9FF4794B015460C46824613
:1054600004A82C220021209E11F0F9FCCDF810D0C8
:10547000BDF85C00ADF825009DF85E008DF82700B2
:105480008DF8246060686968884201DC012700E0CB
:105490000027E068E968884201DB012600E0002679
:1054A00020682968884201DC012100E0002189464A
:1054B000A168AA68914201DB012100E0002100906F
:1054C000A06802906068019068688846401E03905A
:1054D0001FB104A950460BF090FFE868401C0190F2
:1054E000E06803901EB104A950460BF086FF2068C7
:1054F00000902868401E02900FB1686800E0606864
:1055000001900EB1E86800E0E0680390B9F1000F87
:1055100003D004A950460BF070FFA868401C00900F
:10552000A0680290B8F1000F03D004A950460BF018
:1055300064FF18B0BDE8F0872DE9F04F8B46A2F567
:105540007F41A1B091460646FF3942D0F46A208DD2
:105550008046984204D02385608D40F00800608525
:105560004FF4802A5146204613F0EAFE0746514682
:10557000204613F009FF054638460EF05AFD07464F
:10558000304603F080FF80697A1909FB020001466A
:1055900005EBD570A1EB60001D9038446D1E2844CA
:1055A0001F90F06A41691C91C0691E9068460BF01B
:1055B000E5FC6A465146204614F04BF91CAA6946A0
:1055C00058460BF0C5FAA4F82880608D20F008003A
:1055D000608521B0BDE8F08F2DE9F04F0E46A2F5B1
:1055E0007F41A5B090460546FF395CD0EC6A278D17
:1055F0009F4204D02385608D40F00800608503A899
:105600000AF07CFC4FF4802903AA4946204614F096
:1056100062F84946204613F0B7FE1190284603F081
:1056200032FF05003FD00B980EF003FD119AA969D7
:10563000131808FB031119911146199A01EBD17146
:10564000A2EB6101119A19911144401E08441B906C
:1056500060691890E0691A9018AA06F118011FA84D
:1056600006F0EDFED0B118360DF17C0C96E80F0077
:105670008046894692469B469CE80F0086E80F00CC
:105680002846183E10F0F0FA0A9005F1140203A91A
:1056900030460AF002FC183686E8000F2785608D38
:1056A00020F00800608525B0BDE8F08F7FB5044686
:1056B000D0F8A85204E000BF0AF0ECF90AF02EF985
:1056C000A86B0028F8D1204609F0E0F918B1264867
:1056D000006921F0DAF901202063A16BC90702D02B
:1056E000A16B890700D400206063606B08B10126BC
:1056F00000E00026A06A20B3286821696A4605698F
:10570000D4F80003084400906169D4F80403084405
:1057100001902169D4F80803084402906169D4F823
:105720000C03084403903A21204609F051FAA36A79
:105730002A466946204698476A463B21204609F09A
:1057400047FA204609F0A2F900280BD094F8390056
:10575000012801D1002E05D0616AE069814200D1A3
:10576000206A60627FBD0000AC50002038B5406800
:105770000C46010C491E83B20022009111462046BE
:105780005B1E06F0AEFF38BD2DE9F047B8B0054608
:105790000EF0CCF9044628460EF0FFF98246E06A86
:1057A00010F062FA054694F86400C00771D004A8AE
:1057B0000BF0E4FB4FF4C02904AA4946204614F03C
:1057C00048F804F15001684606F0A4FDE06A00992B
:1057D000426911440091019980696A460844019028
:1057E000E06A0299406908440290E06A039980697E
:1057F0000844039004A950460BF0AAF949462046F4
:1058000013F073FB06464946204613F04CFC8719FB
:105810004946204613F08FFC4FF000081E4906440D
:10582000CDF8D480CDF8D880206E09682844884708
:105830000246206E411935A811F056FA00985822F8
:10584000384400900198414630440190E06A13F0DA
:1058500075FC054620A80AF051FB20AA49462046BF
:1058600013F039FF9DF83000022805D829462B98FF
:1058700008F05AFE00280CD135A827909DF8CC00DE
:105880006A4640F040008DF8CC0020A950460AF04E
:1058900004FB38B0BDE8F08760E902082DE9F04F5D
:1058A000EDB0054638300E465E9011F039F900280B
:1058B0007ED105F1140206F1180168A806F0BFFDBB
:1058C000002875D0183668AC96E80F008346209102
:1058D000CDE9642394E80F0086E80F003DA8183E48
:1058E0000AF03DFE4FF4C0243DAA2146284613F09D
:1058F0004CFF21A80BF042FB21AA2146284613F0B9
:10590000A8FF2146284613F069FD00EBD070471030
:105910002146284613F062FD00EBD0704FEA600A82
:105920005E9811F084F890E040223DA94EA811F055
:10593000DBF9702221A9684611F0D6F9A089ADF8EB
:105940006401A07B8DF86601A089ADF82100A07BE1
:105950008DF82300A08AC00502D5D4E900010BE030
:10596000A2686FF0004082426BD066AB2846216986
:1059700008F0B8FADDE966016A6902EB0008A86977
:1059800000EB010927B1BAF1000F01D0012000E0BE
:1059900000206690A8EB07005F9008EB070061907D
:1059A000A9EB0A00609009EB0A006290207D00E0FC
:1059B00056E081071CD0C00701D0686900E040466E
:1059C000CDE95509207D800701D5E86900E0404612
:1059D000CDE957090020519003904EA930460AF0B6
:1059E00082FD669820B15FAA694630460BF0B0F898
:1059F000207D10F00C0F1ED0CDF85481207D400783
:105A000001D5A86900E04846CDE95608207D000789
:105A100001D5286A00E04846589001205190039033
:105A20004EA930460AF05FFD669820B15FAA69462C
:105A300030460BF08DF83F98401C3F902398401C57
:105A4000239021465E9810F0EFFF04007FF46CAFC6
:105A5000DDE964232099C6F818B01C3686E80E00EC
:105A60006DB0BDE8F08F2DE9F04F884601F11802C6
:105A7000A5B0044600F114011AA806F0E0FC0028C5
:105A800072D008F1180114AD91E80D00D8F8241077
:105A9000179185E80D001AAE08F1180096E82E005F
:105AA00080E80E0000212046C8F8245013F011FAB7
:105AB00005460021204613F0E4FA28441E900021F8
:105AC000204613F026FB0544204612F064FC139098
:105AD000204612F04FFC129002A80AF040FD02AAE4
