:020000040800F2
:1000000000CB01207102000845510008254000087E
:1000100095500008410C00086960000800000000CD
:10002000000000000000000000000000B101000816
:10003000950D0008000000000D020008455700085B
:100040008B0200088B0200088B0200088B0200085C
:100050008B0200088B0200088B0200088B0200084C
:100060008B0200088B0200088B0200088B0200083C
:100070008B0200088B0200088B020008450C000868
:100080008B0200088B0200088B02000800000000B1
:100090000000000000000000000000008B020008CB
:1000A0008B0200088B0200086D5800088B020008C4
:1000B0008B0200088B0200088B0200088B020008EC
:1000C0008B0200088B0200088B0200088B020008DC
:1000D0008B0200088B0200088B0200080000000061
:1000E0008B0200088B0200088B0200080000000051
:1000F0000000000000000000000000008B0200086B
:10010000000000008B0200088B0200088B02000830
:1001100000000000000000000000000000000000DF
:10012000510C0008D90C00088B0200088B02000853
:100130008B0200080000000000000000000000002A
:100140000000000000000000000000008B0200081A
:100150008B020008E50C00088B02000829600008EB
:100160008B0200088B020008000000000000000065
:10017000000000000000000000000000000000007F
:10018000000000008B0200080000000000000000DA
:100190008B0200088B020008DFF810D000F01CFC76
:1001A00000480047E13D0208AFF3008000CB01208A
:1001B0002C4B19680868B0E8F04F80F30988BFF34A
:1001C0006F8F4FF0000080F311887047000000002F
:1001D00008480068006880F308884FF0000080F34A
:1001E000148862B661B6BFF34F8FBFF36F8F00DF25
:1001F00000BF00BF08ED00E0DFF80C00016841F42B
:1002000070010160704700BF88ED00E0EFF30980E6
:10021000BFF36F8F134B1A681EF0100F08BF20ED4D
:10022000108A20E9F04F106009B44FF0500080F3BD
:100230001188BFF34F8FBFF36F8F2DF0A1FA4FF0EE
:10024000000080F3118809BC19680868B0E8F04F15
:100250001EF0100F08BFB0EC108A80F30988BFF3BE
:100260006F8F704798020020EFF305807047000001
:100270000648804706480047FEE7FEE7FEE7FEE740
:10028000FEE7FEE7FEE7FEE7FEE7FEE75D58000853
:10029000990100082DE9F05F0546002092469B4633
:1002A00088460646814640241BE02846414647468C
:1002B000224600F08CFA53465A46C01A914110D398
:1002C00011461846224600F073FA2D1A67EB010812
:1002D0004F4622460120002100F06AFA17EB000980
:1002E0004E41201EA4F10104DFDC484631462A4677
:1002F0004346BDE8F09F2DE9F0410024061B25464A
:1003000071F1000605DA01240027D0EB070067EB46
:100310000101161E73F1000605DA0027D2EB070271
:10032000012567EB0303FFF7B5FF86460E46174628
:100330009C46AC4204D00025D0EB050E65EB0106CF
:1003400024B10020D2EB000760EB030C704631466D
:100350003A466346BDE8F08140EA01039B0703D0BB
:1003600009E008C9121F08C0042AFAD203E011F8F4
:10037000013B00F8013B521EF9D27047D2B201E0B6
:1003800000F8012B491EFBD270470022F6E710B59A
:1003900013460A4604461946FFF7F0FF204610BDF3
:1003A000421C10F8011B0029FBD1801A704710B5C0
:1003B000002200E0521C835C8C5CA34201D1002B24
:1003C000F8D1D8B2E1B2401A10BD2DE9FE4F8046F7
:1003D00081EA0300C00F0C46009021F0004123F099
:1003E0000045B8EB0200A94105D24046214690469F
:1003F0001C460B46024623F00040104347D0270D11
:10040000C7F30A00C3F30A510290401A0190402832
:100410006BDAC3F3130040F4801B0098924620B1BE
:100420000023D2EB030A63EB0B0B01985946C0F192
:100430004002504600F0BCF906460D46504659466B
:10044000019A00F0D4F910EB08006141002487EA1A
:10045000115284EAE7731A4340D0009A62B3019ABA
:10046000012A4FEA075215DC001B61EB02014FF035
:10047000004202EA0752CDE90042001C41F580111A
:1004800032462B4600F029FA03B0BDE8F08F404613
:100490002146F9E7001B61EB0201001C41F58013C6
:1004A00000185B412018A2F5001747EB030140EA52
:1004B000D570B6196D4111E06D084FEA360645EA70
:1004C000C0754FEA0752001B61EB0201001C41F5A9
:1004D000801149084FEA30000019514132462B463D
:1004E00003B0BDE8F04F00F0E9B9009801224000E8
:1004F0000023D0EB020263EBE073009821464FEA41
:10050000E074B8EB000061EB0401E9E783F000431D
:100510005BE781F0004158E72DE9FE4F81EA0304D3
:1005200004F0004421F0004100944FF0000B23F050
:10053000004350EA01045ED052EA03045BD0C3F3E7
:100540000A54C1F30A552C44A4F2F3340194A0FBDD
:100550000254C1F3130141F48011C3F3130343F4B4
:10056000801301FB024400FB034E840A970A44EA0D
:10057000815447EA8357A4FB076802958D0A05FB5F
:1005800007854FEA932C04FB0C542705029D4FEA84
:10059000065847EA1637B5EB08056EEB070C870ED1
:1005A000920E47EA811742EA8312A7FB0201B6EBDB
:1005B0000B0164EB00042B0D43EA0C335E1844EB93
:1005C0001C50DA465146E7FB0201C5F313044FEA1B
:1005D0000B3343EA14534FEA0432019C43EA060307
:1005E000A4F10C040294009CCDE900B400F075F96C
:1005F00003B0BDE8F08F00200146F9E72DE9F04D8A
:1006000081EA030404F0004B21F0004514464FF04A
:10061000000A23F0004150EA050220D054EA01020A
:100620001DD0C5F30A570246C5F31303C1F31300E7
:10063000C1F30A5640F4801543F48013A7EB060873
:10064000101BD64608F2FD3873EB050002D308F103
:10065000010801E092185B41B8F1000F03DA0020B5
:100660000146BDE8F08D00204FF480110646844617
:100670000EE0171B73EB050705D3121B63EB050395
:1006800006434CEA010C49084FEA300092185B41DE
:1006900050EA0107EDD152EA030012D082EA0400C9
:1006A00083EA0501084305D0101BAB4106D20122A5
:1006B000002306E000224FF0004302E06FF0010249
:1006C00053101AEB06004CEB085110EB0A0041EBFB
:1006D0000B01BDE8F04D00F0F1B80EB540F233412A
:1006E00002910021CDE900110A460B4600F0F5F811
:1006F00003B000BDC1F30A5210B5C1F3130140F2BB
:10070000FF3341F480119A4201DA002010BD40F21B
:1007100033439A42A2F2334203DC524200F057F8CC
:1007200010BD904010BD00F0004230F000400AD0F3
:10073000C10D01F56071C0F3160042EA0151C20813
:1007400040071143704700200146704701F0004305
:1007500030B421F0004150EA010206D00A0DA2F5A2
:100760006072C1F31301002A02DC30BC0020704724
:10077000440F44EAC104C100E01830BC00EBC25091
:1007800000F047B830B50B46014600202022012476
:1007900009E021FA02F59D4205D303FA02F5491B4F
:1007A00004FA02F52844151EA2F10102F1DC30BD65
:1007B000202A04DB203A00FA02F100207047914021
:1007C000C2F1200320FA03F3194390407047202A16
:1007D00004DB203A21FA02F00021704721FA02F3EB
:1007E000D040C2F120029140084319467047202AA8
:1007F00006DBCB17203A41FA02F043EAE07306E049
:1008000041FA02F3D040C2F1200291400843194658
:1008100070470029A8BF7047401C490008BF20F05E
:100820000100704710B4B0FA80FC00FA0CF050EAF6
:10083000010404BF10BC704749B1CCF1200421FA77
:1008400004F411FA0CF118BF012121430843A3EB72
:100850000C01CB1D4FEA00614FEA102042BF00207F
:1008600010BC704700EBC35010440029A4BF10BC5B
:100870007047401C490008BF20F0010010BC7047C1
:1008800010B541000CD0C0F3C751962908DC7E2971
:1008900009DC06DB410204D000F0004040F07E504D
:1008A00010BD002010BDC1F19604C4F1200100FA72
:1008B00001F1E040FFF7ADFFA04010BD10B5141EE0
:1008C00073F1000408DA401C41F1000192185B4109
:1008D0001A4301D120F0010010BD2DE9F04D9246E0
:1008E0009B4611B1B1FA81F202E0B0FA80F22032F7
:1008F0009046FFF75DFF04460F4640EA0A0041EAD2
:100900000B0153465A46084313D0114653EA0100DF
:1009100019D0C8F140025046FFF759FF05460E4670
:10092000504659464246FFF743FF084305D0012091
:1009300004E020463946BDE8F08D0020054346EA34
:10094000E0762C4337430A986305E40AA0EB0800DD
:100950000022FD0A44EA47540A3002D5002001462D
:10096000E9E7010510196941DDE908450019694108
:10097000BDE8F04DA2E7C1F30A52C1F3130140F202
:10098000FF3341F480119A4202DA00200146704799
:1009900040F233439A42A2F2334202DC5242FFF762
:1009A00016BFFFF705BF000030B5041E71F100044B
:1009B00004DB4FF00044404264EB0101141E73F16C
:1009C000000405DB1C464FF00043524263EB040376
:1009D000994208BF904230BD064C074D06E0E068E2
:1009E00040F0010394E8070098471034AC42F6D376
:1009F000FFF7D6FB9CF20508BCF2050870B58C1811
:100A000010F8015B15F0070301D110F8013B2A1122
:100A100006D110F8012B03E010F8016B01F8016B0F
:100A20005B1EF9D12B0705D40023521E0DD401F80B
:100A3000013BFAE710F8013BCB1A921C03E013F8D4
:100A4000015B01F8015B521EF9D5A142D8D3002009
:100A500070BD10B50146806B026C12F0500F05D0CE
:100A6000026CD20626D500F04DFF10BD016C41F49A
:100A70000071016401688A6812F0405F17D1027E3C
:100A8000AAB9CA6A12F4700F02D08A6852050ED44D
:100A90004A6822F020024A60016C21F480710164EE
:100AA000016CC90403D4016C41F00101016400F040
:100AB00027FF10BD806BC26CBDE810400846104790
:100AC00010B5806B40210164416C41F00401416428
:100AD00000F018FF10BD10B5806B00F012FF10BDC4
:100AE000464910B54A6822F440324A604A68436871
:100AF0001A434A6001684A6822F480724A600168B9
:100B00004A68036942EA03224A6001684A6822F09F
:100B100040724A6001684A6883681A434A60016803
:100B20008A6822F400628A6001688A68C3681A438E
:100B30008A60816A6FF07062D14201688A6822F02F
:100B400070628A6001688A680CD0836A1A438A607E
:100B500001688A6822F040528A6001688A68C36A24
:100B60001A4301E022F040528A6001688A6822F04C
:100B700002028A6001688A68037E42EA43028A6050
:100B800090F82010002901684A680FD042F40062F2
:100B90004A6001684A6822F460424A6001684A6813
:100BA000174C436A04EB43331A4301E022F400621A
:100BB0004A600168CA6A22F47002CA620168CA6A9D
:100BC000838B104C04EB03531A43CA6201688A6892
:100BD00022F400728A6001688A6890F8303042EA34
:100BE00043228A6001688A6822F480628A60016810
:100BF0008A68406942EA8020886010BD0023014075
:100C000000E0FFFF0000F0FF0EB50A230092CDE9DF
:100C1000011302460123A021014801F039FB0EBD5A
:100C20008C0400200EB50A230092CDE90113024680
:100C30000123A021014801F02DFC0EBD8C040020F1
:100C4000FEE70000014800F0D3BF00005805002077
:100C50007FB51D481E4C1E4900681C4D1C4B603C56
:100C6000B839A84202D9194A543A03E0984203D944
:100C7000164A583A126804E0A04201D94A6800E0D6
:100C80000A6812F0200F19D02022A84202D90F487A
:100C90004C3803E0984203D90C485038026004E015
:100CA000A04201D9CA6000E08A600E220949684664
:100CB000FFF752FB9DE80F0000F04AFC04B0024829
:100CC000BDE8704000F094BF2C040020586402403E
:100CD000B8600240D4030020014800F089BF000042
:100CE000F4060020014800F083BF000054070020F4
:100CF00001681823CAB2103AB2FBF3F2054B6FF346
:100D00000901032A9B5CC36500D9091D816508465A
:100D10007047000024D6050810B5014600208B69F5
:100D20008A6A4FF0C07453B1B3F5005F15D072B149
:100D3000012A0CD0022A0AD0032A09D104E01AB1F0
:100D4000012A06D0022A03D1C96AC90100D50120AF
:100D500010BDC96AA142FAD010BD002AF7D0012AFD
:100D6000F2D0022AF3D0032AF3D010BD30B50468C4
:100D7000256825F480252560046863608368402B1E
:100D8000036803D099600068C26030BD9A60006853
:100D9000C16030BD704708B50A2001F09BF86A4673
:100DA00002210020FFF730FF9DF80000552803D1F5
:100DB0009DF80100AA2821D055208DF80000AA2016
:100DC0008DF801000A2001F085F86A460221002012
:100DD000FFF728FF002000900A2001F07BF86A4608
:100DE00002210020FFF710FF9DF80000552803D1D5
:100DF0009DF80100AA2801D0012008BD002008BDEF
:100E00001CB56A4605211020FFF7FEFE9DF8001074
:100E10000E48642900D93C2101709DF80110012978
:100E200000D9012141709DF80210012900D900214B
:100E30008170BDF8031039B15A2905D0B42903D007
:100E4000B1F5877F00D0B42181801CBD8C020020C9
:100E50001CB50B486A4601788DF8001041788DF872
:100E6000011081788DF8021080888DF80300000A47
:100E70008DF8040005211020FFF7D4FE1CBD0000F2
:100E80008C0200200EB510B107A007C801E009A22E
:100E900007CA8DE807006846FFF782FA81B26A4602
:100EA0002020FFF7BFFE0EBD7570646174650D0AEA
:100EB000000000002D6E6F70652D0D0A000000000F
:100EC00072B6FEE71CB5094BD3E90023CDE9002338
:100ED00090F85020022A03D25DF8222090471CBDD2
:100EE000002180F8501008461CBD00002CD60508D3
:100EF00010B578B190F836301C060BD511B1C3F39C
:100F000002130B7022B190F8360000F00F00107041
:100F1000002010BD022010BD11B190F84E300B70B2
:100F200012B190F84F0010700020704710B51346B2
:100F300009B1828A0A8043B1818AC1F302318A00F1
:100F400000F116011846FFF707FA002010BD000057
:100F500070B50446007878B1606878B1A06878B15F
:100F6000012304F1370216461946204625F054F8AD
:100F700050B14AA020612CE04DA002E051A000E059
:100F800057A02061022070BD94F83700000603D4FA
:100F90005AA02061042070BD002084F85000A08277
:100FA000202104F11600FFF7F0F9012584F84150E3
:100FB0002B4604F141020C21204625F043F800287D
:100FC00063D10F2304F136020121204625F024F8D5
:100FD00008B1082070BD032084F83700202084F871
:100FE0003800312084F8390003233246022120469C
:100FF00025F028F8F0BB94F83E00012340F00700EC
:1010000084F83E0004F13E020921204625F01AF83A
:1010100080BB252084F83F00012304F13F020A2110
:10102000204625F00FF828BBE22084F84300012376
:1010300004F143020E21204625F004F8D0B9FE2029
:1010400084F84400012304F144020F21204624F0D7
:10105000F9FF78B994F83B00012320F0200084F8D0
:101060003B0004F13B020621204624F0EBFF08B9C7
:10107000072000E009E084F84000012304F1400269
:101080000B21204624F0DEFF08B1102070BD84F84B
:10109000515006A02061002070BD000044657669B3
:1010A0006365206E6F7420666F756E6400000000CB
:1010B000496E76616C696420693263206164647290
:1010C00065737300496E76616C6964206932635F91
:1010D000726561642066756E6374696F6E000000EE
:1010E000496E76616C6964206932635F77726974F6
:1010F000652066756E6374696F6E0000496E766177
:101100006C696420646576696365207665727369CD
:101110006F6E00002DE9F0410F4600F149020446D0
:1011200001239046402124F077FF58B994F84900F4
:10113000002500F00306012342464021204624F00A
:101140006BFF10B10820BDE8F08194F8490000F071
:101150000300864201D00120F5E76D1CEDB2052D9C
:10116000E9D33E700020EEE770B5044690F85100D8
:101170000D46A84215D094F83F0015B120F080002C
:1011800001E040F0800084F83F00012304F13F02B9
:101190000A21204624F056FF08B1102070BD84F8C3
:1011A0005150002070BDF8B50D460446072300F1EC
:1011B00045023C2124F030FF08B10820F8BD94F826
:1011C0004C0094F84710084384F84C0094F84D0004
:1011D00094F84810084384F84D0094F85110002604
:1011E00031B394F84910090622D4032084F837005B
:1011F000202084F83800312084F83900032304F1DA
:1012000037020221204624F01DFF00BB072084F88E
:101210004000012304F140020B21204624F012FF7C
:10122000A8B984F85060F5B3287840F002004AE08D
:1012300094F84510C9070CD002208DF80000012356
:101240006A460C21204624F0FDFE0028B6D010206E
:10125000F8BDC10708D020F0010084F84D001DB191
:10126000287840F00800287094F84A00800623D4BB
:1012700003236A464321204624F0CEFE70B9BDF810
:101280000100A082C0F30230042101EB800304F1CD
:1012900016024321204624F0BFFE78B194F83C00AA
:1012A00040F0040000E007E08DF8000001236A46EA
:1012B0000721204624F0C6FE0020F8BD002DFBD0FB
:1012C000287840F004002870F6E72DE9F0470D4635
:1012D0000446012300F14902402124F09DFE00282C
:1012E00055D194F84900000678D50F2084F84000C5
:1012F000012304F140020B21204624F0A3FE002824
:101300006AD1E16802208847072684F837604FF0E9
:10131000200884F83880312084F8390004F137023D
:10132000032392460221204624F08CFE90BBE16804
:101330000220884704F14E0702E0E1680220884756
:1013400039462046FFF7E6FE0028F6D10B2784F841
:101350003770012352460221204624F073FEC8B99B
:10136000E1680220884704F14F0902E0E1680220A9
:10137000884749462046FFF7CDFE0028F6D10223D4
:1013800004F147023E21204624F046FE18B1082011
:10139000BDE8F08720E0002084F84C0084F84D0080
:1013A00094F84E0018B184F83760252005E094F8D1
:1013B0004F0028B184F83770262084F8380004E004
:1013C000032084F8370084F83880022352461946F7
:1013D000204624F037FE10B11020D9E707E00120A5
:1013E00084F850001DB1287840F0010028700020DA
:1013F000CEE738B5044690F83E00012340F04000A7
:101400008DF800006A460921204624F01BFE68B9C9
:10141000E1680620884702208DF8000001236A4613
:101420000C21204624F00EFE002800D0102038BDEC
:1014300030B58BB012258DF800508DF801508DF825
:101440000250132504468DF80350C1F302300225E3
:1014500005EB800545F080058DF804508DF80510EA
:10146000090A8DF8061000210DF107030DE020CACE
:1014700003F8015B2D0A03F8015B2D0A03F8025BF8
:101480002D0A491C03F8015CC9B28142EFD3FF2049
:1014900003F8010B142003F8010BFE2003F8020BE4
:1014A000A12003F8010C6846181AC3B26A4643210A
:1014B000204624F0C7FD10B110200BB030BDE1680C
:1014C000022088470020F8E72DE9F04186B014217A
:1014D0006846FEF75AFF1B480024016841F00101ED
:1014E0000160016801F001010591016841F002010C
:1014F00001600068144F00F00200059001220821ED
:10150000384600F0F6FDDFF844804FF40046002234
:101510003146404600F0EDFD082000900125CDE960
:10152000015469463846039400F0E6FC0096CDE984
:10153000015469464046039400F0DEFC06B0BDE865
:10154000F0810000303802400004024000000240F8
:101550002DE9F04FDFF87C8183462DED028B0020D2
:1015600098F800C00E0C140C85B09FB21FFA81FAD7
:1015700095B2BCF1010F06D0BCF1020F05D0BCF151
:10158000030F05D103E0304602E0284600E0204684
:10159000C01B00D540421FFA80F958466CF31F600B
:1015A0008DE80F000E2269464B4802F0FDFC00EE6C
:1015B00010AAF0EE080AB8EE400A20EE200ADFED8D
:1015C000470A98F8000020EE200AF2EE060A0128E9
:1015D00060EE208A04D0022815D0032830D03DE0E8
:1015E00000EE106A00EE907AB8EE400AF8EE600A5B
:1015F00030EE600A10EE100AFFF795F841EC100B80
:101600009FED371B11E000EE105A00EE907AB8EE15
:10161000400AF8EE600A30EE600A10EE100AFFF79A
:1016200082F841EC100B9FED301B51EC100B53EC8A
:10163000112BFEF771FFFFF789F808EE100A0DE095
:1016400000EE104A00EE907AB8EE400AF8EE600A1A
:1016500030EE600ADFED260A20EE208A2548B0EE43
:10166000680A006823F00DFE2348B0EE480A0068BF
:1016700023F007FE0020B9F5F46F0FD998F8012088
:101680004146521CD2B288F8012088F80200082A8C
:1016900016D3487098F80000401C0EE0B9F10F0F07
:1016A000414612D28A78521CD2B28A704870082AF7
:1016B00006D3887098F80000401EC0B20BF042FBC1
:1016C00005B0BDEC028BBDE8F08F487088F80200D1
:1016D000F6E7000088020020AC06002000008039F8
:1016E00000806CF0FFBFD23F008003F5FF4B3D4010
:1016F000001B3745800200208402002070B586B0B0
:101700000D460646144614216846FEF73EFE0020AC
:101710000246059069461F4801F0DAFB002205A940
:101720001C4801F0B3FB9DF8170040F26D1110FB4F
:1017300001F09DF81510C1EB411108449DF81610F9
:1017400008449DF8001000EB400001EBC0004FF48E
:10175000616148439DF80110C1EB011100EB81006C
:101760009DF8021008440C490968431A3C20B3FB59
:10177000F0F100FB11312170B3FBF0F1B1FBF0F29D
:1017800000FB121028704FF46160B3FBF0F0307072
:1017900006B070BDE00400200400002078B50024ED
:1017A000009490F83C20012A19D0012280F83C20B6
:1017B0000A6807230568092A13D9EE680A3A02EB7A
:1017C000420293409E43EE600B788A680A3B03EB2B
:1017D00043039A400368DD682A43DA6010E0022080
:1017E00078BD2E6902EB420293409E432E610B7836
:1017F0008A6803EB43039A4003681D692A431A6110
:101800004A681F23072A13D205686E6B521E02EB2B
:10181000820293409E436E630A8893B20A79521EF5
:1018200002EB820293400268556B2B43536327E01F
:1018300005680D2A12D22E6BD21F02EB8202934052
:101840009E432E630B790A88DB1F92B203EB83035E
:101850009A4003681D6B2A431A6311E0EE6A0D3A41
:1018600002EB820293409E43EE620B790A880D3BA5
:1018700092B203EB83039A400368DD6A2A43DA627B
:101880001B4B0568194A9D420AD10D68122D07D1DC
:10189000556825F400055560556845F48005556088
:1018A00005689D421DD1134D0B68AB4201D0112B31
:1018B00017D1536823F480035360536843F4000343
:1018C00053600968A9420CD10B490C4A0968B1FB65
:1018D000F2F101EB8101490000E0491E009100296D
:1018E000FBD180F83C40002078BD0000002301407F
:1018F00000200140120000109402002040420F001E
:1019000070477047704770B504004FF0000503D072
:10191000206C002610B107E0012070BD204600F0C9
:101920001DF8666484F83C60206CC00610D4206CFE
:1019300020F4885040F0020020642046FFF7D0F8E1
:101940006664206C20F0020040F00100206400E09A
:10195000012584F83C60284670BD000070B586B053
:10196000064614216846FEF710FD24493068884277
:1019700042D123480025016841F48071016000686C
:101980001F4900F4807014390590086840F0010088
:101990000860086800F001000590086840F0020047
:1019A00008600868032400F002000590E0208DE83C
:1019B00031006946134800F09FFA009469461248C6
:1019C000CDE9014500F098FA114C1048C4E9000532
:1019D0000015A560C4E90350400060618000A0616B
:1019E0004011C4E907052046656200F0D1F908B14D
:1019F000FFF766FAB463A66306B070BD002001402D
:101A000044380240000002400004024010640240DA
:101A10002C040020F8B5044600200E46009094F8EF
:101A20003C10012907D0012184F83C1021688B6803
:101A3000DB0702D011E00220F8BD8B6843F0010300
:101A40008B603649364B0968B1FBF3F101EB41017C
:101A500000E0491E00910029FBD121688B68DB055D
:101A600003D58B6823F480738B6021688B68DB0758
:101A700049D0236C40F20165AB4343F48073236487
:101A80004968490505D5216C21F4005141F4805184
:101A90002164216CC90404D5616C21F006016164E4
:101AA00000E0606484F83C00A16B1F481D4DC863D2
:101AB000A16B1E480864A16B1D48C86421686FF0C3
:101AC000220008602068416841F080614160206820
:101AD000816841F4807181602168134632464C313F
:101AE000A06B00F0BFF96868C006206802D01149F9
:101AF000884210D1816811F0405F0CD1816841F0BB
:101B00008041816007E0206C40F010002064606C30
:101B100040F0010060640020F8BD00009402002045
:101B200040420F0000230140530A0008D70A000872
:101B3000C10A0008002001402DE9F0410446876DEC
:101B400000F0DCFA064694F835000025022806D09D
:101B50008020606584F834500120BDE8F081206861
:101B6000016821F0160101602068416921F08001BF
:101B70004161206C08B9A06C20B12068016821F097
:101B8000080101602068016821F0010101600CE09A
:101B900000F0B4FA801B052807D9202060650320D7
:101BA00084F8350084F83450D7E720680068C0070F
:101BB000EED194F85C103F208840B860012084F892
:101BC000350084F834500020C7E790F8351002291A
:101BD00003D08021416501207047052180F8351030
:101BE0000068016821F001010160002070470000D9
:101BF0002DE9F84304464FF00009CDF80090634802
:101C00004FF41651A56D0068B0FBF1F72E6894F8FB
:101C10005C10082000FA01F131420FD021680A68F7
:101C200052070BD50A6822F004020A6094F85C108F
:101C30008840A860606D40F00100606594F85C1019
:101C40004FF0010808FA01F0304208D021684969D4
:101C5000090604D5A860606D40F00200606594F844
:101C60005C1004208840304208D021680968890748
:101C700004D5A860606D40F00400606594F85C10C5
:101C800010208840304218D021680968090714D50F
:101C9000A86020680168490304D50068000308D5DE
:101CA000A16C07E00168C90503D4016821F00801AF
:101CB0000160216C09B12046884794F85C1020200F
:101CC0008840304231D021680968C9062DD5A86006
:101CD00094F8350005282068016806D0490347D5E7
:101CE000006800031DD4616C1CE021F01601016046
:101CF0002068416921F080014161206C08B9A06C25
:101D000020B12068016821F00801016094F85C109E
:101D10003F208840A86084F8358084F83490216D95
:101D20001FE0E16B09B120468847606D00282BD089
:101D3000606DC00714D0052084F835002068016864
:101D400021F0010101600098401C0090B84203D8C6
:101D500020680068C007F6D184F8358084F8349094
:101D6000E16C002910D001B02046BDE8F0430847DF
:101D70000168C905D5D4016821F01001016084F81B
:101D8000358084F83490CCE7BDE8F88394020020D5
:101D90002DE9F041044600F0B1F906465CB102209D
:101DA00084F83500002584F834502068016821F05B
:101DB000010101600DE00120BDE8F08100F09EF915
:101DC000801B052805D920206065032084F8350094
:101DD000F2E720680068C007F0D122681168204847
:101DE0000140D4E901031843D4E9033633431843CF
:101DF00063691843A3691843E3691843236A1843C6
:101E00000843616A042903D1D4E90B131943084339
:101E1000106020684069666A20F0070130460E4372
:101E2000012704280CD1A06A0643E06A40B120468D
:101E3000FEF772FF20B14020606584F83570BAE784
:101E4000206846612046FEF753FF94F85C203F214E
:101E500091408160656584F835700020ACE7000032
:101E60003F8010F02DE9F0410446866D90F8340073
:101E7000002501280DD0012084F8340094F8357035
:101E80000020012F07D084F8340002252846BDE841
:101E9000F0810220FBE7022784F835706065204658
:101EA000FEF764FF94F85C103F208840B060206823
:101EB000016841F016010160206C20B120680168C2
:101EC00041F0080101602068016841F001010160F2
:101ED000DCE7000070B5044600F010F90546601C10
:101EE00002D004480078044400F008F9401BA042E6
:101EF000FAD370BDD00100202DE9F84FDFF8B8A16A
:101F00000022012403254FF00F090AF1040BAAF166
:101F1000040E00BF0B6804FA02F63340B34273D1DB
:101F20000F7907F00307012F01D0022F16D1876820
:101F30004FEA420805FA08FC27EA0C07D1F80CC062
:101F40000CFA08FC4CEA070CC0F808C04768B74315
:101F50000E79C6F3001696403E4346600E79F6436E
:101F6000B6070DD0C768560005FA06FC27EA0C072D
:101F7000D1F808C00CFA06FC4CEA070CC0F80CC0FB
:101F80000E7906F00306022E10D1D60800EB860863
:101F9000D8F8206057074FEAD76C09FA0CF7BE4310
:101FA0000F6907FA0CF73743C8F8207006684FEA44
:101FB000420C05FA0CF7BE430F7907F0030707FA46
:101FC0000CF7374307604E6816F4403F6DD03B4E28
:101FD000376847F480473760366822F0030706F415
:101FE00080460096364E07EB060CDCF8086897072B
:101FF0003F0F09FA07F826EA0806DFF8C8804045CF
:1020000003D14FF000081EE04FE0DFF8BC804045F0
:1020100002D14FF0010816E0DFF8B080404502D150
:102020004FF002080FE0DFF8A880404502D14FF0E2
:10203000030808E0DFF89C80404502D14FF0040817
:1020400001E04FF0070808FA07F848EA0608CCF85C
:102050000888DAF800605746D1F804C09E435FEA6A
:10206000CC2C00D51E433E60DBF800605F46D1F803
:1020700004C09E435FEA8C2C00D51E433E60DEF810
:1020800000607746D1F804C09E435FEA8C3C00D5DF
:102090001E433E60084F083F3E68D1F804C09E438F
:1020A0005FEACC3C00D51E433E60521C102AFFF470
:1020B00031AFBDE8F88F0000083C014044380240D1
:1020C00000300140000002400004024000080240CD
:1020D000000C0240001002400069084000D00120BE
:1020E0007047426921EA02030A4043EA02418161E2
:1020F00070470AB1816170470904FBE701488068B5
:1021000070470000D001002070B5040025D094F87D
:102110003D00002520B984F83C50204600F052FADA
:10212000242084F83D002068016821F0010101604D
:102130002068016841F4004101602068016821F4D1
:102140000041016000F09AFC4D4A6168914201D85B
:102150004C4900E04C49884201D2012070BD4B49F6
:102160002368B0FBF1F15E6826F03F060E435E6027
:102170006368934206D94FF4967359434FF47A73C8
:10218000B1FBF3F12368491C1E6A26F03F06314378
:1021900019626168914210D84900401EB0FBF1F20B
:1021A000521CC2F30B02042A01D2042022E0B0FB2D
:1021B000F1F0401CC0F30B001CE0A268F2B301EB8D
:1021C000C10303EB0116431EB3FBF6F35B1C43F4A0
:1021D00080431B0549D092B301EBC10202EB011110
:1021E000401EB0FBF1F0401CC0F30B0040F48040F7
:1021F00040F400402168CA694CF6FF739A431043CB
:10220000C861D4E9071001432068026822F0C002C7
:1022100011430160D4E9030101432068826848F258
:10222000FF339A4311438160D4E9050108432168D3
:10223000CA6822F0FF021043C86001E00EE016E019
:102240002068016841F0010101602564202084F8C4
:102250003D00256384F83E50002070BD01EB41062F
:10226000431EB3FBF6F35B1CB3E70120C2E701EBAF
:102270004101401EB0FBF1F0401CC0F30B00B7E77A
:10228000A086010080841E0000093D0040420F002E
:102290002DE9FF4F83B09A46DDE911879346044646
:1022A000DDF84090FFF72AFF054694F83D0020280E
:1022B00070D11923012274492046009502F04AF892
:1022C0000028F5D194F83C00012863D0012084F85F
:1022D0003C0020680168C90703D1016841F0010191
:1022E00001602068016821F400610160222084F807
:1022F0003D00402084F83E0000262664C4F8249067
:10230000A4F82A80608D20856048E062CDE90075E0
:1023100053465A462046049901F01EFF002879D101
:10232000208DD0B1012821D00228206824D0416915
:1023300080690090208D032866D801282BD054494D
:1023400002283B464FF00002009557D088462046B1
:1023500002F000F800285DD13AE020684169816907
:102360000091016841F4007101607DE0206801681E
:1023700021F480610160F0E7016821F4806101606F
:102380002068016841F4006101602068416980694A
:10239000009069E075E02A463946204602F080F850
:1023A00088BB54E02068016841F400710160206836
:1023B0000069616A0870606A401C6062218D491E74
:1023C0002185618D491E618521680969017042E09E
:1023D0002068016821F48061016020680069616AF9
:1023E0000870606A401C6062208D401E2085608DF0
:1023F000401E60853B46002241460095204601F084
:10240000A9FF00B9CEE705E02A463946204602F08A
:1024100047F818B1012007B0BDE8F08F20680069C7
:10242000616A0870606A401C6062208D401E81B243
:102430002185608D401E608520684269D243520725
:1024400012D4032903D1016821F48061016020685E
:102450000069616A0870606A401C6062208D401EDD
:102460002085608D401E6085208D00287FF462AF3E
:10247000202084F83D0084F83E6084F83C60002011
:10248000C9E70220C7E70000020010000000FFFFBC
:10249000040001002DE9FF4F83B09A46DDE9119752
:1024A00093460446DDF84080FFF728FE054694F881
:1024B0003D0020287FD11923012240492046009564
:1024C00001F048FF002876D194F83C00012872D032
:1024D000012084F83C0020680168C90703D1016825
:1024E00041F0010101602068016821F40061016090
:1024F000212084F83D00402084F83E000026266418
:10250000C4F82480A4F82A90608D20852C48E062CD
:10251000CDE9007553465A462046049901F09AFECB
:1025200070B930E02A463946204601F0F1FF58B133
:10253000206C042804D12068016841F40071016016
:10254000012007B0BDE8F08F606A2168007808615B
:10255000606A401C6062218D491E89B22185628DAE
:10256000521E628522685369DB435B070BD469B155
:1025700000781061606A401C6062208D401E2085DA
:10258000608D401E6085208D0028CBD12A463946BB
:10259000204601F0B3FE0028CAD154F83D0B016873
:1025A00041F400710160202004F81E09E677667787
:1025B0000020C6E7FFE70220C3E70000020010008A
:1025C0000000FFFF10B586B0044614216846FDF7F1
:1025D000DCFE13492068884220D11248002102689D
:1025E00042F002020260006800F002000590C02084
:1025F00000901220CDE901010320039004200490F3
:1026000069460948FFF778FC06481030016841F434
:1026100000110160006800F40010059006B010BDC4
:1026200000540040303802400004024002488168F3
:102630000278114481607047D00100200B4810B52A
:10264000016841F400710160016841F4806101603A
:10265000016841F480710160032000F099F80F20B7
:1026600000F006F800F04AF8002010BD003C0240DF
:1026700030B505461C4887B00024016841F480212C
:102680000160006806A900F48020009001A800F015
:10269000D5F900F003FA1549154AB0FBF1F11548D8
:1026A000491E026040F2E732C0E90324C0E9011488
:1026B000846100F0F7FE040012D10E4800F064FFC0
:1026C00004000DD11A2000F035F8102D07D2002299
:1026D00029461A2000F03CF80748056000E0012474
:1026E00007B0204630BD00004438024040420F0091
:1026F00000480140B4070020D40100200C4882B0FB
:10270000016841F480410160006800F4804000905D
:102710000748001F016841F08051016000680022F5
:1027200000F0805000900F21901E02B000F010B811
:1027300044380240002809DB00F01F0201219140CB
:102740004009800000F1E020C0F80011704700004F
:10275000F0B40E4B1B680C46C3F30223C3F107050C
:10276000042D00D90425191D072901D2002300E0FA
:10277000DB1E012606FA05F1491E214099409E40C4
:10278000761E16403143F0BC03F0F4BC0CED00E0C3
:10279000064900F0070208684FF6FF03184040EAB8
:1027A0000220034A10430860704700000CED00E06F
:1027B0000000FA052DE9F843044600684FF00109CE
:1027C000C1074FF0000601D1400729D5DFF820816D
:1027D000C8F86860FFF792FC0746464D05E000BF69
:1027E000FFF78CFCC01B022859D828680001F7D4D9
:1027F000A068217B800140EA0170616808433D497F
:1028000084310860C8F86890FFF778FC074604E058
:10281000FFF774FCC01B022841D828680001F7D5D7
:102820002078800752D533484030016841F080510C
:1028300001600068304D00F080500090286840F43E
:1028400080702860FFF75AFC074604E0FFF756FC4B
:10285000C01B022823D82868C005F7D5254D703540
:10286000286810F4407020D0218A01F44071814220
:102870001BD02868214920F44070C1F800900E60F8
:1028800028602868C00710D0FFF738FC064641F2E0
:10289000883707E0FFF732FC801BB84202D90320DB
:1028A000BDE8F88328688007F4D521691148C1F391
:1028B00001220830032A12D0016821F4F8110160C6
:1028C0002868218AC1F30B0108432860207800079B
:1028D00003D50B49207DC1F8E0010020E0E7026844
:1028E000084B22F4F81219400A430260E8E700009E
:1028F000000047420038024000700040400E47424E
:1029000000104742FFFCFF0F2DE9F0470E4605007F
:1029100065D0DFF81481D8F80000F7B200F00700A6
:10292000B04207D288F80070D8F8000000F0070025
:10293000B04254D128683D4C810712D5400703D5D9
:10294000206840F4E05020602878000703D5206814
:1029500040F4604020602068A96820F0F00008433F
:1029600020602878C0072DD03049686808390128D0
:1029700012D0022813D0032811D009688907002932
:102980002DDA216821F0030101432160FFF7B6FB36
:10299000814641F2883A0EE009688903EFE7096849
:1029A0008901ECE7FFF7AAFBA0EB0901514502D929
:1029B0000320BDE8F0872068696800F00C00B0EBE8
:1029C000810FEFD1D8F80010404601F00701B14265
:1029D00007D90770006800F00700B04201D001205D
:1029E000E7E72878400705D52068E96820F4E0503B
:1029F000084320602878000706D52068296920F45C
:102A0000604040EAC100206000F058F82168084AA0
:102A1000C1F30311515CC8400649086006480068CC
:102A2000FFF726FE0020C4E7003C024008380240C1
:102A3000FDDA050894020020D40100200F22026074
:102A40000C4A136803F003034360136803F0F003B8
:102A50008360136803F4E053C36012684FF4E053DB
:102A600003EAD20202610448006800F0070008602F
:102A70007047000008380240003C02400448054905
:102A800000680968044AC1F38221515CC84070475C
:102A900094020020083802400DDB0508044805496F
:102AA00000680968044AC1F34231515CC84070476C
:102AB00094020020083802400DDB0508154810B5C7
:102AC000006810F00C02144813D01449042A0FD0E7
:102AD000082A0ED10F4C241F2268236802F03F02FF
:102AE0005B0207D52068C0F38810A0FB010106E057
:102AF000084610BD2168C1F38811A1FB0001002325
:102B0000FDF7C8FB2168C1F30141491C4900B0FB36
:102B1000F1F010BD083802400024F40040787D0137
:102B20002DE9F84F04006ED02078DFF84C93C007F1
:102B3000A9F104054AD009F104000168C1F381013B
:102B4000012908D00068C0F3810002280AD1D9F811
:102B50000000400206D52868800337D56068002849
:102B6000E1D033E06068B0F5803F10D0B0F5A02F21
:102B7000286810D020F480302860286820F4802055
:102B800028606068A8B1FFF7B9FA06460DE028682A
:102B900040F48030F4E740F480202860F7E700BF7D
:102BA000FFF7ACFA801B642873D828688003F7D538
:102BB0000CE0FFF7A3FA064605E000BFFFF79EFA18
:102BC000801B6428F0D828688003F7D42078DFF8C9
:102BD000AC8280074FF0000A3ED5A748001D01686F
:102BE00011F00C0F08D00068C0F3810002280BD14F
:102BF000D9F80000400207D42868800716D5E0689D
:102C0000012800D112E033E1E068B8B10120C8F832
:102C10000000FFF773FA064605E000BFFFF76EFA03
:102C2000801B0228C0D828688007F7D5286821694A
:102C300020F0F80040EAC10028600DE0C8F800A0CC
:102C4000FFF75CFA064604E0FFF758FA801B0228FB
:102C50001FD828688007F7D42078000722D5864F30
:102C600087486169703771B101210160FFF746FA49
:102C7000064604E0FFF742FA801B022809D83868AC
:102C80008007F7D50EE0C0F800A0FFF737FA064638
:102C900005E082E0FFF732FA801B02287DD8386811
:102CA0008007F7D42078400768D5DFF8CCB100273B
:102CB0000BF13C0BDBF80000C0000BD4DBF800107C
:102CC00041F08051CBF80010DBF80000012700F044
:102CD000805000906B4E3068C00510D4306840F4CE
:102CE00080703060FFF70AFA009005E0FFF706FAFF
:102CF0000099401A022850D83068C005F6D55E4EBB
:102D0000A0686C3601280FD00528306810D020F05C
:102D100001003060306820F004003060A068B8B175
:102D2000FFF7ECF900900FE0306840F00100F4E7A5
:102D300040F004003060F7E7FFF7E0F90099411A2E
:102D400041F28830814266D830688007F4D50EE0C1
:102D5000FFF7D4F9009007E0FFF7D0F90099411A86
:102D600041F28830814256D830688007F4D42FB1C0
:102D7000DBF8001021F08051CBF80010A069C8B337
:102D80003D49091D0968C1F3810102294AD0022881
:102D9000504607D0C8F8600000E03CE0FFF7AEF90D
:102DA00004463BE04746C8F86000FFF7A7F906462F
:102DB00005E000BFFFF7A2F9801B02282BD8286886
:102DC0008001F7D4D4E907010843A16A2E4A4908D3
:102DD00002EB0141626A41EA8211084394F82C1027
:102DE00040EA0161C9F8001001203866FFF786F952
:102DF000044606E03EE000BFFFF780F9001B022812
:102E000009D828688001F7D534E000BFFFF776F9CC
:102E1000001B022802D90320BDE8F88F2868800132
:102E2000F4D427E00128F7D0D9F80000E26900F4D3
:102E3000800191421CD1226A00F03F01914217D1DA
:102E400047F6C071626A0140B1EB821F10D1A26ADD
:102E50004FF0FF3300F4403103EB5202B1EB024F6D
:102E600006D194F82C1000F07060B0EB016F01D027
:102E70000120D1E70020CFE704380240000047429C
:102E8000800E4742007000400000FFFF10B5006850
:102E90000B4641680D480140080CD870C1F304246A
:102EA0005C7001F03F049C70C1F34231197052B95B
:102EB00002F0E0FAD870587802F0DCFA587098788E
:102EC00002F0D8FA9870002010BD00003FFFFF000C
:102ED00010B50B460168896A596001680969C1F338
:102EE0000E019960006801680D480140C1F305407A
:102EF0001870C1F306245C7001F07F049C70890D8A
:102F0000D97052B902F0B6FA1870587802F0B2FAD5
:102F10005870987802F0AEFA9870002010BD00004A
:102F20007F7F7F0010B5040002D0607F10B106E003
:102F3000012010BD00202077204600F041F802203B
:102F400060772068C168C943C90632D5CA21416289
:102F5000216853204862204602F096FA20BB206880
:102F60008168164A11408160216888686268104350
:102F7000D4E904231A43104388602168E06808619B
:102F800020680169228941EA02410161204602F07C
:102F90009FFA48B921680A6C22F480220A642168E9
:102FA0000A6CA3691A430A642268FF21516208B1BE
:102FB00010BD00200121617710BD0000BFFF8FFF11
:102FC00010B586B0044618216846FDF7DEF90949B8
:102FD000206888420CD102200090000204906846CC
:102FE000FFF7E8FB08B1FDF76BFF0349012008601C
:102FF00006B010BD002800403C0E474270B50446A4
:103000000B482168C860FFF779F805464FF47A76D7
:1030100007E000BFFFF772F8401BB04201D9032060
:1030200070BD2068C0688006F4D5002070BD000027
:103030005F3F0100704770B5040009D0606A002549
:1030400040B125616561A56294F8510040B10CE082
:10305000012070BD6068B0F5827FF4D0E561F2E7D1
:1030600084F85050204600F045F8022084F85100C2
:103070002068016821F040010160A088218900F4E6
:10308000827001F404410843A18901F400610843FE
:10309000217C01F002010843217D01F00101084378
:1030A000218B01F400710843217F01F038010843AE
:1030B00094F8201001F080010843218D01F40051A3
:1030C000084321680860A069042101EA104094F8CF
:1030D000241001F010010843216848602068C1698C
:1030E00021F40061C1616565012084F85100002070
:1030F00070BD000070B586B0064614216846FDF725
:1031000044F920493068884239D11F4800250168B8
:1031100041F480410160006800F4804005901A4845
:103120001038016841F0020101600068694600F052
:10313000020005904FF4204000900220CDE90105E7
:1031400003200390052004901048FEF7D5FE114C93
:103150000F48C4E900054020C4E9020500012061D0
:10316000400060618000C4E9060525622046656272
:10317000FEF70EFE08B1FDF7A3FEB464A66306B029
:1031800070BD00000038004040380240000402409A
:1031900070600240580500202DE9F84F9846164609
:1031A0008A460446FEF7AAFF814694F8510001289A
:1031B0001ED1BAF1000F73D0002E71D094F85000D8
:1031C000012815D0012784F85070032084F851009D
:1031D00000256565C4F830A0A686E686A563A587A8
:1031E000E58765642564A068B0F5004F03D00CE066
:1031F0000220BDE8F88F2068016821F040010160DD
:103200002068016841F48041016020680168490636
:1032100003D4016841F040010160E068B0F5006F3F
:10322000606803D048B3012E27D047E008B1012ED3
:103230001FD1206B21680088C86006E02068816883
:10324000890709D5216B0988C160206B801C206328
:10325000E08E401EE0860CE0FEF750FFA0EB090177
:10326000414503D3B8F1FF3F03D035E0B8F1000F7B
:1032700032D0E08E0028E1D123E0206B2168007875
:10328000087306E02068816889070AD5216B0978F0
:103290000173206B401C2063E08E401EE0860DE031
:1032A0002BE0FEF72BFFA0EB0901414503D3B8F15A
:1032B000FF3F03D010E0B8F1000F0DD0E08E0028E2
:1032C000E0D14A464146204602F060F908B120208C
:1032D0006065A06830B109E084F8517084F85050FE
:1032E000032086E72068C1688068009084F85170E8
:1032F00004F8505F60680028F3D0012079E70000EF
:1033000070B5044690F8510001281CD1C9B1C2B172
:1033100094F85000012816D0012084F850000320B2
:1033200084F85100002565652163A286E286A563C5
:1033300065642564A587E587A068B0F5004F04D0D3
:103340000DE0012070BD022070BD2068016821F0F1
:10335000400101602068016841F480410160A16C76
:1033600017480864A16C1748C863A16C1648C86464
:10337000A06C0565E38E2268216B0C32A06CFEF711
:1033800071FD30B1606D40F01000606584F8505000
:10339000D7E720680168490603D4016841F040017D
:1033A000016084F850502068416841F0200141607C
:1033B0002068416841F002014160002070BD0000BA
:1033C0001D55000827550008FB540008704770473A
:1033D0007047704710B590F83C20012A22D0012296
:1033E00080F83C20CA688C6822F4407222434C6802
:1033F00022F4806222430C6822F4006222430C69AA
:1034000022F4805222434C6922F400522243C969BB
:10341000002322F480420A4301684A6480F83C3069
:10342000002010BD022010BD70B590F83C20012A8C
:103430002CD0012480F83C40022280F83D20036813
:103440005A689D6822F070060A6832435A60104B31
:1034500002689A420ED0B2F1804F0BD00D4B9A42C7
:1034600008D00D4B9A4205D00C4B9A4202D00C4B1F
:103470009A4204D1496825F080031943916080F88D
:103480003D40002180F83C10084670BD022070BD10
:10349000000001400004004000080040000C004013
:1034A0000040014010B5040003D094F83D0010B175
:1034B00007E0012010BD002084F83C00204600F009
:1034C0001FF8022084F83D00211D206802F0DCF97D
:1034D000012084F8460084F83E0084F83F0084F818
:1034E000400084F8410084F8420084F8430084F8E6
:1034F000440084F8450084F83D00002010BD000021
:1035000008B50068B0F1804F08D10548016841F066
:1035100001010160006800F00100009008BD00009A
:103520004038024090F83D10012901D00120704739
:10353000022180F83D1000680E4988420ED0B0F19B
:10354000804F0BD00C49884208D00C49884205D0E6
:103550000B49884202D00B49884204D1816801F0AE
:103560000701062903D0016841F001010160002034
:1035700070470000000001400004004000080040C7
:10358000000C00400040014090F83D10012901D09E
:1035900001207047022180F83D100168CA6842F09E
:1035A0000102CA6000680E4988420ED0B0F1804F17
:1035B0000BD00C49884208D00B49884205D00B49F2
:1035C000884202D00A49884204D1816801F007018B
:1035D000062903D0016841F0010101600020704715
:1035E000000001400004004000080040000C0040C2
:1035F0000040014070472DE9F04104460068C6686C
:1036000005694FF00007A90713D5B10711D5F91EB9
:10361000016101202077206880698007204602D060
:10362000FFF7E8FF04E000F0C1F8204600F07EF963
:103630002777680716D5700714D521686FF0040046
:103640000861022020772068806910F4407F2046BE
:1036500002D0FFF7CFFF04E000F0A8F8204600F00A
:1036600065F92777280715D5300713D521686FF03E
:1036700008000861042020772068C0698007204680
:1036800002D0FFF7B7FF04E000F090F8204600F00A
:103690004DF92777E80616D5F00614D521686FF0A6
:1036A00010000861082020772068C06910F4407F6E
:1036B000204602D0FFF79EFF04E000F077F8204696
:1036C00000F034F92777E80708D0F00706D0216822
:1036D0006FF001000861204600F0BAF9280608D50D
:1036E000300606D521686FF0800008612046FFF79C
:1036F0006FFE680608D5700606D521686FF0400099
:103700000861204600F0D9F9A8060AD5B00608D508
:1037100021686FF0200008612046BDE8F041FFF706
:1037200058BEBDE8F081000010B586B004461421F3
:103730006846FCF72AFE2368174C0021174802222E
:10374000A34211D1036843F001030360006800F055
:103750000100059050020090CDE901210120CDE942
:10376000031069460E4812E00E4CA34211D10368C3
:1037700043F002030360006800F00200059060154A
:103780000090CDE90121CDE9031269460648FEF714
:10379000B3FB06B010BD000000000140303802400D
:1037A000000002400008004000040240704770B56D
:1037B000044690F83C0000260D4601280FD0012059
:1037C00084F83C006AB1042A1DD0082A2FD00C2AA4
:1037D0003FD00126002084F83C00304670BD022016
:1037E00070BD206802F0BAF82068816941F00801D4
:1037F00081612068816921F004018161206881690B
:103800002A69114311E0206802F0D0F8206881692C
:1038100041F4006181612068816921F480618161E6
:10382000206881692A6941EA02218161D2E7206822
:1038300002F0E8F82068C16941F00801C161206820
:10384000C16921F00401C1612068C1692A6911437D
:1038500011E0206802F002F92068C16941F40061BA
:10386000C1612068C16921F48061C1612068C169BA
:103870002A6941EA0221C161ACE710B5040003D016
:1038800094F83D0010B107E0012010BD002084F83D
:103890003C00204600F01EF8022084F83D00211D67
:1038A000206801F0F1FF012084F8460084F83E0012
:1038B00084F83F0084F8400084F8410084F8420016
:1038C00084F8430084F8440084F8450084F83D00FF
:1038D000002010BD08B500681149884212D1114876
:1038E000016841F0010101600068002200F0010060
:1038F00000900F211A20FEF72BFFBDE808401A2088
:10390000FEF718BF0849884209D10648001F016820
:1039100041F004010160006800F00400009008BD5F
:103920000000014044380240000800407047000099
:1039300010B50446022249B104290ED0082913D03B
:1039400094F84100012816D0012010BD94F83E00E3
:103950000128F9D184F83E200FE094F83F000128B7
:10396000F2D184F83F2008E094F840000128EBD120
:1039700084F8402001E084F841200122206801F011
:10398000D5FF12492068884203D1426C42F40042BC
:103990004264206888420ED0B0F1804F0BD00C49B1
:1039A000884208D00B49884205D00B49884202D092
:1039B0000A49884204D1816801F00701062903D031
:1039C000016841F001010160002010BD00000140CC
:1039D0000004004000080040000C0040004001408E
:1039E00030B504460D460068002201F09FFF174BDA
:1039F00041F2111120688A10984209D1036A0B42E2
:103A000006D1036A134203D1436C23F40043436499
:103A10002068036A0B4206D1016A114203D1016892
:103A200021F00101016001203DB1042D08D0082DD5
:103A300009D084F84100002030BD84F83E00FAE748
:103A400084F83F00F7E784F84000F4E70000014005
:103A500000680349884201D1FEF7E8BD70470000C5
:103A60000048014070B5044690F83C00012812D08F
:103A7000012584F83C50022084F83D00204602F0E5
:103A80000FF801004FF0000007D084F83D5084F893
:103A90003C00012070BD022070BD2168CA6822F080
:103AA0004002CA602168CA6822F48042CA6084F871
:103AB0003D5084F83C00002070BD7047704710B541
:103AC00004460068406994F84110C0F3C0102129F1
:103AD00011D180B12068143050E8001F21F080011E
:103AE00040E80012002AF5D1A06B08B1FEF724F8D7
:103AF000204602F021F92068406994F84210C0F392
:103B00008010222911D180B12068143050E8001FA4
:103B100021F0400140E80012002AF5D1E06B08B125
:103B2000FEF70AF8204602F0E0F8002010BD7047CA
:103B3000F8B5016804460868CA684B6910F00F0FB1
:103B40004FF0000559D003F0010602F49077374397
:103B500065D0C10705D0D10503D5616C41F00101E5
:103B60006164410705D5D90703D0616C41F00201BA
:103B70006164810705D5D90703D0616C41F0040168
:103B80006164010707D502F02001314303D0616C65
:103B900041F008016164616C00293AD0800604D5C7
:103BA000900602D5204602F0D5F820684069616C85
:103BB000C0F38010090700D460B3204602F095F8E6
:103BC00020684069400621D52068143050E8001F65
:103BD00021F0400140E80012002AF5D1E06BA8B1C5
:103BE0006E490165E06BFDF7F0FF002811D0E06B36
:103BF000016D01B0BDE8F040084783060FD593067C
:103C00000DD52046BDE8F84002F0A4B82046FFF7E5
:103C10008EFFF8BD2046FFF78AFF6564F8BD266B6E
:103C20002023012E7DD1C6067BD5D60679D508681E
:103C30004868009048694FF00206400641D5E16BA4
:103C4000086840680004000CE8D0A28D8242E5D9E3
:103C5000E085C869B0F5807F2DD020680C3050E831
:103C6000001F21F4807140E80012002AF5D120687D
:103C7000143050E8001F21F0010140E80012002A32
:103C8000F5D12068143050E8001F21F0400140E8D1
:103C90000012002AF5D184F84230256320680C30E8
:103CA00050E8001F21F0100140E80012002AF5D171
:103CB000E06BFDF741FF6663A08DE18D401A81B294
:103CC0002AE0A08DE18D401A81B2E08D0028A5D0B8
:103CD0000029A3D022680C3252E8000F20F4907023
:103CE00042E80007002FF5D12068143050E8002F7B
:103CF00022F0010240E80027002FF5D184F842307D
:103D0000256320680C3050E8002F22F0100240E8B4
:103D10000023002BF5D166632046FFF7CFFEF8BDE8
:103D2000FFE705062BD5150629D594F84100212873
:103D3000F5D1A068B0F5805F01D12069B0B1206AEB
:103D4000411C2162216800784860E08C401E00041C
:103D5000000CE084E3D12068C16821F08001C160DB
:103D60002068C16841F04001C160D8E7206A00883E
:103D7000C0F308004860206A801C2062E5E7400626
:103D8000CDD55006CBD5CA68204622F04002CA6085
:103D900084F8413000F044F9C1E70000A15B00085D
:103DA00070B5040004D094F84100002510B106E07D
:103DB000012070BD84F84050204600F023F82420F4
:103DC00084F841002068C16821F40051C160204698
:103DD00002F022F82068016921F490410161206815
:103DE000416921F02A0141612068C16841F4005114
:103DF000C1606564202084F8410084F84200656356
:103E0000002070BD2DE9F04186B0064614216846B9
:103E1000FCF7BBFA2F493068884258D12E4800245D
:103E2000016841F020010160006800F02000059069
:103E300029481438016841F00101016000686946B1
:103E400000F0010005904FF4C05000900220CDE931
:103E5000010403200390082004902048FEF74CF84A
:103E6000204D1F484FF4806887052860C5E901741C
:103E7000C5E903486C61AC61EC612C6228466C6258
:103E8000FDF786FF08B1FDF71BF8F563AE63154D2E
:103E9000134860357830E5E802074020A5E81101B5
:103EA000104845F814496030AC61EC612C626C62DA
:103EB000FDF76EFF08B1FDF703F8B5630022052199
:103EC0004720AE63FEF744FC4720FEF733FC06B004
:103ED000BDE8F08100140140443802400000024077
:103EE00028640240F406002090F84230202B01D0D4
:103EF0000220704721B11AB10023036302F012B807
:103F000001207047704770472DE9F843044690F848
:103F10004100984616460D46202802D00220BDE8F2
:103F2000F88385B17EB100206064212084F84100CF
:103F3000FEF7E4F8A6848146E684A0682027B0F561
:103F4000805F02D003E00120E9E7206910B12E462E
:103F500000250EE000260CE08021204602F02AF821
:103F6000A8B9C6B116F8010B21684860E08C401E64
:103F7000E084E08C4B464FF00002CDF80080002832
:103F8000EAD14FF04001204602F014F840B184F825
:103F900041700320C3E735F8020BC0F30800E3E7E4
:103FA00084F841700020BAE770B5044690F84100EB
:103FB000202801D0022070BD49B342B32162A284FF
:103FC000E28400206064212384F84130A56B114B0A
:103FD000EB63A56B104B2B64A56B104BEB64A36BD1
:103FE0001865256813462A1DA06BFDF73BFF216865
:103FF0006FF0400008602068143050E8001F41F066
:10400000800140E80012002AF5D1002070BD012097
:1040100070BD00009F5C0008E15C0008B15B000817
:1040200070477047FEE700002DED028B304F314E98
:10403000314D9FED328A00BF29F09AFB1922304999
:104040002B48FFF751FF3868C16841F01001C1608B
:104050000D212CA001F09CFD202021F0CBF8306038
:10406000202021F0C7F80024C5F80000B0EE480A6F
:10407000306821F006F9B0EE480A286821F001F90D
:10408000641C202CF2DB234C55202070AA20607089
:104090000320A070FDF718FA032008F053FE052254
:1040A000211D1D48FDF7B6FC1C48FFF73BFA08210F
:1040B0001B48FFF73DFC00F073FAFCF76CFE08B9F3
:1040C000FCF79EFE00224FF480611648FEF711F8BF
:1040D00008F0B0FF01F0ECFA15F06EFC1CF020F8CF
:1040E00028F052FA2AF00AF9002029F073FAA3E71F
:1040F000AC060020800200208402002000000000A6
:1041000090060020706F7765722D7069636F0D0ADD
:1041100000000000D4030020E4030020000600207B
:10412000B80500200004024001684A69D2435205E4
:104130000FD46FF480624A61002140F8301F2022C2
:1041400042738173026942F004020261017301202B
:1041500070470020704700002DE9F84F04460068C2
:1041600089460B9D01689846174641F480610160BD
:104170002068016841F48071016000954FF0011BD7
:104180000022594620460A9B00F0E4F84FF4007ADA
:1041900040B120680068C00501D5C4F840A00320E4
:1041A000BDE8F88F216809F0FE0008612B46284918
:1041B00020460A9A00F016F9F0BB20684169806930
:1041C00000902A4620460A9900F0A2F940B1206CDE
:1041D00004283AD12068016841F40071016034E09C
:1041E000FEB2B8F1010F09D02168380A08612A46E9
:1041F00020460A9900F08CF90028E8D12068066171
:104200002A4620460A9900F083F90028DFD1206869
:10421000016841F4807101600095002259462046F2
:104220000A9B00F097F80028B3D1216809F0FF003D
:1042300040F00100086100E007E02B4604492046F9
:104240000A9A00F0CFF80028AAD00120A8E70000C1
:10425000020001002DE9F843044600680D46DDE93F
:10426000089701689846164641F4807101604B46F4
:1042700000224FF001112046009700F06BF848B182
:1042800020680068C00502D54FF400702064032048
:10429000BDE8F883216805F0FE0008613B464A4608
:1042A0001549204600F09EF888B920684169806968
:1042B00000903A464946204600F02AF948B1206C61
:1042C000042804D12068016841F4007101600120D4
:1042D000DEE7F5B2B8F1010F09D02168300A0861B4
:1042E0003A464946204600F013F90028E7D12068F5
:1042F00005610020CCE700000200010070B5164601
:104300000D4604461EE02046FFF70EFF08B10120CF
:1043100070BD681C16D0FDF7F1FE801BA84200D8C6
:1043200085B920684069C04340070BD5002044F898
:10433000300F20216173A073216941F020012161B8
:104340002073E4E720684069C0434007DBD40020C5
:1043500070BD00002DE9F047984617460D4604460B
:10436000C1F30746DDF820902AE000BFB8F1FF3F17
:1043700026D0FDF7C3FEA0EB0901414502D8B8F1F4
:10438000000F1DD12068012E16D0806925EA00009B
:104390000004000C12D00020B84211D1002044F8D3
:1043A000300F20216173A073216941F02001216148
:1043B00020730120BDE8F0874069E7E70120EBE7C3
:1043C0002068012E0AD0806925EA00000004000C54
:1043D00006D00020B842C9D00020EBE74069F3E7DF
:1043E0000120F7E72DE9F047984616460D460446AA
:1043F0004FF000094FF0200AC1F3074723E020687F
:104400004069C043400515D42068016841F400713B
:10441000016021686FF480604861C4F8309084F8CE
:104420003DA084F83E90216C41F00401216484F8A1
:104430003C9021E0701C06D0FDF760FEA0EB080068
:10444000B04203D816B1012F1FD021E02068012F00
:1044500015D0806925EA00000004000C18D000BFC8
:1044600044F8309F84F80DA084F80E90216941F043
:104470002001216184F80C900120BDE8F08740699B
:1044800025EA00000004000CEAD12068406901E040
:104490002068806925EA00000004000CAFD1ECE739
:1044A0002DE9F041002590460E460446202728E0DD
:1044B0004069C043C0060CD454F8301B6FF01000A4
:1044C000486144F810596777A577206A20622577FC
:1044D00014E0FDF713FEA0EB0800B04200D886B947
:1044E00020684069C04340060BD544F8305F6773CD
:1044F000A573206940F02000206125730120BDE8EC
:10450000F08120684169C9434906D1D40020F6E70B
:1045100070B516460D4604461EE02046FFF704FE21
:1045200008B1012070BD681C16D0FDF7E7FD801BA7
:10453000A84200D885B920684069C04300060BD561
:10454000002044F8300F20216173A073216941F0ED
:10455000200121612073E4E720684069C043000620
:10456000DBD4002070BD000008B50C4C684600F09C
:1045700087F878B101230022694620681FF07CFF8C
:1045800001F0F4F830B103F073F932201FF0D4FEDB
:1045900003F068F90A201FF0CFFEE7E720000020B3
:1045A00030B587B08C212248FBF7EFFE204C002568
:1045B0000C3C1421C4F898506846C4F89C50FBF792
:1045C000E4FE1C48016841F0010101600068694691
:1045D00000F0010005901F20CDE900050120164DD7
:1045E00002902846FDF788FC002301222946184640
:1045F00000F024F8002302222946012000F01EF8D2
:10460000002308222946022000F018F80023042283
:104610002946032000F012F8002310222946042026
:1046200000F00CF80E2020701220A06007B030BD02
:10463000EC010020303802400000024070B505282F
:104640000BD251B10D4CC0EBC00004EB800444F818
:104650000C1FA2801BB1012002E0002070BD0020D1
:10466000A0710120E0710025257265721FF071FEB6
:10467000E060257465610120A56170BDE001002046
:104680002DE9F05F04007DD01FF063FE4FF00008BD
:10469000DFF84891054646464FF0010BC6EBC601D0
:1046A00009EB8107F87C0C37B8B1B98897F806A0F8
:1046B0003868FDF711FDBAF1000F02D0012802D0D1
:1046C00000E0B8B30020397A814201D03872FD6031
:1046D00018B10BFA06F040EA0808761CF6B2052E6F
:1046E000DCD3002049460646C9F89880C0EBC002DA
:1046F00001EB8202D37C0C326BB3D3684F88EB1A88
:10470000BB4228D3137A577A9F4224D05372002B8E
:10471000D1F89C700BFA00F30FD01F43C1F89C70C6
:104720005561956116740A78D20714D0207084F808
:1047300001B049E0FFE70120C5E79F43C1F89C7045
:104740000B78DF0702D0207002203CE09B0701D5E8
:10475000137CDBB11674401CC0B20528C6D3002000
:10476000C0EBC00201EB8202D37C0C327BB3537AE4
:104770006BB38E680BFA00F35F461E4228D0536974
:10478000EB1A00E028E0167C2EB111E02070032027
:104790006070167418E08E889E4219D817740B78D2
:1047A00013F00C0F04D020700420607095610BE0B2
:1047B0000B781B070CD59369CE88EB1AB34207D34D
:1047C00095612070052060700120BDE8F09FFFE733
:1047D000401CC0B20528C3D30020F6E7E00100204A
:1047E0002DE9F04104461D4616460F462A2000F0EA
:1047F000E3F9204600F0D0F9304600F0CDF92B2047
:1048000000F0DAF9384600F0C7F9284600F0C4F99C
:10481000BDE8F0412C2000F0CFB900000249002093
:104820000968C86370470000B80500202DE9F04111
:10483000141A5D1A641C6D1C6C43154D069E2F786E
:10484000144D3B4439442D789BB22A44284492B2FB
:1048500089B280B2FFF7C4FF0F4D4FF40060E860EB
:104860002868016841F400610160A2B2314628461F
:10487000FEF746FD0948006841680029FCD1002088
:10488000E8602868016821F400610160BDE8F081FA
:10489000DE010020DD010020000500205805002079
:1048A0002DE9F047804612480C461F46017816460F
:1048B0005818401E83B20F48214489B20078DDF8B1
:1048C00020900244521E404492B280B2FFF788FF0B
:1048D0000AE0454604E0484600F05EF96D1CADB2C2
:1048E000B542F8D3641CA4B2BC42F2D3BDE8F08751
:1048F000DE010020DD010020F0B587B014216846FC
:10490000FBF743FD1848016841F0020101600168AE
:1049100001F002010591016841F0020101600068A7
:104920004FF4805600F00200059001240F4FCDE9AE
:1049300000640325694603953846FDF7DDFA012238
:1049400031463846FDF7D5FB2E02CDE90064084C10
:10495000694603952046FDF7CFFA012231462046ED
:10496000FDF7C7FB07B0F0BD30380240000402403D
:104970000000024070B5FFF7BFFF00224FF48071C6
:104980006748FDF7B6FB674D4FF48054002221467F
:104990002846FDF7AEFB6420FDF79CFA0122214674
:1049A0002846FDF7A6FB6420FDF794FA112000F0DD
:1049B00003F97820FDF78EFA362000F0FDF85A480A
:1049C000007800F0B3F83A2000F0F6F8052000F087
:1049D00009F9B22000F0F0F80C2000F003F90C20E7
:1049E00000F000F9002000F0FDF8332000F0FAF8A4
:1049F000332000F0F7F8B72000F0DEF8352000F0A3
:104A0000F1F8BB2000F0D8F8192000F0EBF8C02036
:104A100000F0D2F82C2000F0E5F8C22000F0CCF82D
:104A2000012000F0DFF8C32000F0C6F8122000F0EB
:104A3000D9F8C42000F0C0F8202000F0D3F8C62038
:104A400000F0BAF80F2000F0CDF8D02000F0B4F854
:104A5000A42000F0C7F8A12000F0C4F8E02000F086
:104A6000ABF8D02000F0BEF8042000F0BBF80D2019
:104A700000F0B8F8112000F0B5F8132000F0B2F8FB
:104A80002B2000F0AFF83F2000F0ACF8542000F0ED
:104A9000A9F84C2000F0A6F8182000F0A3F80D208B
:104AA00000F0A0F80B2000F09DF81F2000F09AF80D
:104AB000232000F097F8E12000F07EF8D02000F0ED
:104AC00091F8042000F08EF80C2000F08BF81120F3
:104AD00000F088F8132000F085F82C2000F082F810
:104AE0003F2000F07FF8442000F07CF8512000F0D7
:104AF00079F82F2000F076F81F2000F073F81F20BF
:104B000000F070F8202000F06DF8232000F06AF823
:104B1000212000F051F8BDE87040292000F04CB889
:104B20000000024000040240DC01002010B50446F1
:104B3000362000F041F80F4900223CB15A2C0DD02C
:104B40005023B42C06D0B4F5877F0BD04A701046A2
:104B50008A700AE04A708B70C02006E04A708A7042
:104B6000702002E04B708A70A020BDE8104000F079
:104B700039B80000DC010020411F5F2909D84FF43B
:104B8000967110FB01F06421B0FBF1F00149096856
:104B9000C8637047B805002008B5010A8DF80010F9
:104BA0008DF801000123022269460248FEF7F4FA5B
:104BB00008BD00000005002070B5094D06464FF401
:104BC0000074002221462846FDF793FA304600F093
:104BD00009F821462846BDE870400122FDF789BA50
:104BE0000000024001B501231A4669460148FEF75C
:104BF000D3FA08BD0005002008B5084C01230022A7
:104C0000694660691FF0DAFB10B9684616F0CAF908
:104C10001EF04EFC01201FF08FFBEFE70C00002080
:104C20007FB500212F480091019102912C4A0391F8
:104C3000026001254FF480320561C0E9012101764F
:104C400080F820101203C26205244FF0C062C461D4
:104C50008262C16080F830504561FCF754FE08B1B3
:104C6000FCF72EF9CDE90045022569461D4802955D
:104C7000FCF794FD08B1FCF723F90620CDE9000507
:104C800069461848FCF78AFD08B1FCF719F90720B6
:104C900000900320019069461248FCF77FFD08B19F
:104CA000FCF70EF9082000900420019069460D4899
:104CB000FCF774FD08B1FCF703F90920CDE9000405
:104CC00069460848FCF76AFD08B1FCF7F9F80548A1
:104CD00048300068016841F0100101607FBD0000AC
:104CE00000200140E4030020194808B5016841F4A0
:104CF00000110160016801F400110091016841F4A4
:104D0000800101600068002200F48000009005210D
:104D10000F20FDF71DFD0F20FDF70CFD00220521E2
:104D20003820FDF715FD3820FDF704FD0022052190
:104D30003920FDF70DFD3920FDF7FCFC002205218F
:104D40004520FDF705FDBDE808404520FDF7F2BC14
:104D50003038024010B501F089F9044A00210448B6
:104D60001FF0BEFB0349086010BD000088E5020883
:104D700025570008000000202DE9F04186B01421DD
:104D80006846FBF702FB23480024016841F0040158
:104D90000160016801F004010591016841F0010121
:104DA0000160016801F001010591016841F0020113
:104DB00001600068184F00F002004FF400550590A4
:104DC000002229463846FDF794F9DFF85080EE10AE
:104DD000002231464046FDF78CF900950125CDE9CA
:104DE0000154694638460394FDF786F80096CDE9EC
:104DF0000154694640460394FDF77EF81020CDE942
:104E00000004694640460294FDF776F806B0BDE816
:104E1000F0810000303802400008024000040240E7
:104E20000D4810B50B4901600C49416000214FF459
:104E300080428160C0E9031241618161C161016208
:104E4000FDF762F9002803D0BDE81040FCF738B840
:104E500010BD0000005400408C040020A08601001A
:104E60000B4810B50949016000217F22C0E90112F9
:104E7000FF22C0E9032141618161FEF753F8002858
:104E800003D0BDE81040FCF71BB810BD002800405F
:104E9000E0040020104810B50E4901604FF4827103
:104EA0004160002102228160C0E9031201224261B7
:104EB0005202C0E906210162416281620A21C16297
:104EC000FEF7B9F8002803D0BDE81040FBF7F8BFA3
:104ED00010BD0000003800400005002010B592B061
:104EE00000240F941C2108A81094FBF74EFA2021EF
:104EF0006846FBF74AFA20481E4901606321C0E971
:104F000001144FF49671C0E9031444618461FEF703
:104F1000B4FC08B1FBF7D4FF0F940FA91648109406
:104F2000FEF782FA08B1FBF7CBFF6020CDE9080459
:104F30000A940B940C940D94082208A90E480E9420
:104F4000FEF735FC08B1FBF7BBFF00944FF40050AF
:104F5000CDE90440029401940394694606480794FD
:104F6000FEF738FA08B1FBF7ABFF0348FEF7DCFBAE
:104F700012B010BD00000140B805002010B588B087
:104F800014216846FBF701FA0024154805944FF0F8
:104F90008041069401600921C0E9011440F2E73123
:104FA000C0E9031480218161FEF77CFA08B1FBF7A8
:104FB00087FF009469460A480194FEF753FD08B143
:104FC000FBF77EFF2020CDE9050405A90448FEF784
:104FD0002BFA002801D0FBF773FF08B010BD0000CA
:104FE0000006002010B58AB0002407941C216846F2
:104FF0000894FBF7CAF91748154901606321C0E915
:1050000001144FF4FA71C0E903148461FEF735FC12
:1050100008B1FBF755FF079407A90E480894FEF75F
:1050200003FA08B1FBF74CFF60200090FA20CDE9AD
:1050300001040C22694607480494FEF7B8FB08B146
:10504000FBF73EFF0348FEF76FFB0AB010BD000000
:1050500000080040480600200C4810B50A490160CD
:105060000B494160002181600C22C160C0E904123B
:105070008161C161FEF794FE002803D0BDE81040B5
:10508000FBF71EBF10BD000000140140AC0600205D
:1050900060E31600FEE70000134C00264FF4FA759B
:1050A0002078012805D1267010A11348FBF77FF95D
:1050B00018B128461FF040F9F2E710A001F01CF8E3
:1050C0000120FBF7DFFE6420FCF704FFBFF34F8FE6
:1050D0000E4801680E4A01F4E06111430160BFF31C
:1050E0004F8F00BFFDE7000008000020757064616D
:1050F00074650D0A00000000900600207374617250
:1051000074207570646174650D0A00000CED00E098
:105110000400FA0508B50A4800231A4669460068E3
:105120001FF04CF920B99DF8000018B1012803D0F8
:10513000002008BD012008BD4FF0FF3008BD000071
:1051400028000020FEE700002DED028B002384B034
:105150001A46012155481FF011FA554D554FDFF8F9
:1051600058914FF480680026686000231A4601A910
:1051700038681FF023F9002876D1287800289DF898
:10518000040004D0012827D002282CD06EE000288B
:1051900028D1012241464846FCF7ABFF474800F0C2
:1051A0001FF90021454800F053F900231422FA2189
:1051B000424800F031F922F03FFD68681FF0D5F950
:1051C00010B168681FF02FFA4FF47A7168681FF009
:1051D00011FA0120287049E0002241464846FCF7B8
:1051E00088FF2E705DE0DDED020AF5EEC00AF1EEFB
:1051F00010FA3BDD9DED030AB5EEC00AF1EE10FAA0
:1052000034DD10EE900A2E4988422FDC10EE100A91
:105210002C4988422ADCF3EE040A20EE200A10EE24
:10522000100AFBF780FA9FED288B53EC182BFBF745
:10523000CCF8FBF75FFA9DED020ADFED250AC4B258
:1052400020EE200A10EE100AFBF76DFA53EC182B33
:10525000FBF7BBF8FBF74EFA81B200232246174852
:1052600000F0DAF822F0E8FC2878D0B107F022FF4D
:1052700020B910214846FCF72FFF90B98DF8006047
:10528000002403E0641CE4B2032C05D269461148F3
:10529000FBF718FE0028F5D19DF8000008B108F0D2
:1052A000ABFF01201FF048F85FE700001173000812
:1052B0002C0000202400002000040240B808002038
:1052C0000000A0410000A0407B14AE47E17A843F7B
:1052D000000048426408002010B50C460022072157
:1052E00007F050FF208010BD21F0F1B8D8B390F83E
:1052F00030308B4238D9B2B300EB81004FF000015F
:105300004069830F137006D0012B08D0022B11D0F7
:10531000032B19D11AE05180C0F389230FE0C0F3A9
:1053200089235380C0F309539380D180C0F30900CF
:10533000108109E0C0F389235380C0F3095393809F
:10534000C0F30900D080118101207047C0F34743AA
:105350005B009380C0F307235B0000F07F00538065
:1053600000EB8000EEE7FFE700207047F8B5054648
:105370001E4617460C4668461FF095F9EC80E00B78
:1053800008D09DF80000102800D9102000EB400044
:10539000114913E09DF8030000289DF8000007D094
:1053A000102800D910200C4900EB4000CC3905E052
:1053B000172800D91720094900EB400001EB8000B5
:1053C0002860D0F804C0BCF1000F04D033463A4640
:1053D00021462846E047F8BDE8D80508FCD6050870
:1053E00010B504463421FAF7D0FF0148206010BD03
:1053F000FCD60508024901600021017270470000D7
:10540000FCD6050830B1036823B19B6813B109B11C
:1054100002B11847002070472DE9F0410446408949
:105420000E461F461546B04202D1207BA8420DD041
:10543000204607F01BF97F1E50EA070106D066815F
:10544000257384F831000120BDE8F0810020FBE7DE
:1054500010B54174002141810446017390F8300079
:10546000002806D00A46204607F000F984F83100EB
:10547000012010BD010901EB810100F00F0000EBDC
:105480004100C0B2704700002DE9F04104460068B9
:105490000025C168490618D4C16841F08001C16087
:1054A000FCF72CFE06464FF47A78042707E000BF8D
:1054B000FCF724FE801B404501D967770125206851
:1054C000C068400601D4002DF2D02846BDE8F08126
:1054D00070B5044600680025C16821F08001C160F4
:1054E00020688068800606D42046FDF787FD10B14D
:1054F000042060770125284670BD10B5806B0168D7
:105500004A6822F003024A60416D41F01001416592
:10551000012180F85110FDF78DFD10BD10B5806B95
:10552000FDF755FF10BD38B50546846BFCF7E6FD69
:10553000024628680068C00523D42068416821F02D
:10554000200141602068416821F00201416064212E
:10555000204600F01BF818B1606D40F02000606537
:10556000A068002118B92068C26880680090E186B0
:10557000012084F85100606D18B12046FDF75AFDF6
:1055800038BD2046FDF722FF38BD0000F8B51546AE
:105590000E460B46009204460122022100F02CF830
:1055A000A0B9134813490068B0FBF1F04FF47A71C9
:1055B000484300906068B0F5827F0DD133460022E9
:1055C00080212046009500F017F870B1606D40F022
:1055D000200060650320F8BD009830B1401E0090A7
:1055E00020688068C0430006F6D50020F8BD0000A2
:1055F0009402002000366E012DE9F8431E469146C4
:1056000088460446089DFCF779FD401B351AFCF7D7
:1056100075FD074625480068C0F3CB30684338E085
:10562000701C37D0FCF76AFDC01BA84203D215B12D
:10563000009860B32CE02068416821F0E0014160EF
:105640006068B0F5827F0BD1A068B0F5004F02D042
:10565000B0F5806F04D12068016821F0400101603D
:10566000A06AB0F5005F09D12068016821F40051FB
:1056700001602068016841F400510160012084F854
:105680005100002084F850000320BDE8F883002575
:10569000401E00902068816838EA010004D0002193
:1056A0004945BDD10020F0E70121F9E7940200202F
:1056B00000B587B014216846FAF767FE002002465D
:1056C000059069461548FDF703FC002205A913481B
:1056D000FDF7DCFB9DF8170040F26D1110FB01F0A7
:1056E0009DF81510C1EB411108449DF816100844AF
:1056F0009DF8001000EB400001EBC0004FF4616129
:1057000048439DF80110C1EB011100EB81009DF8A9
:10571000021008440249086007B000BDE004002000
:1057200004000020064D4FF400544FF4FA76214651
:105730002846FCF7D6FC30461EF0FEFDF7E70000D9
:105740000008024010B54FF0E020006928F0D6FCB8
:10575000012803D0BDE8104028F096B910BD000024
:1057600001480078704700008C0200200148407812
:10577000704700008C0200200148808870470000BC
:105780008C020020642803D802490870FFF7F4B99E
:10579000704700008C020020024900B101204870CF
:1057A000704700008C02002030B15A2804D0B42881
:1057B00002D0B0F5877F03D102498880FFF7B6B9E0
:1057C000704700008C02002030B593B0302168464D
:1057D000FAF7DBFD14210CA8FAF7D7FD1D480024C9
:1057E000016841F080510160006800F08050119024
:1057F0001948016841F4404101600068102100F43B
:10580000404011900A2000900120CDE903010225BB
:10581000CDE905050820CDE907406420CDE909055B
:1058200004200B906846FDF77BF908B172B6FEE7DD
:105830000F20CDE90C054FF48050CDE90E40032137
:105840000CA81094FDF760F8002801D072B6FEE7AE
:1058500013B030BD4038024000700040024801687B
:1058600041F470010160704788ED00E010B5044814
:10587000FDF7C1FEBDE810400248FDF7BCBE0000C8
:10588000B8050020B4070020F0B50268204B214C79
:105890009F03214D214E984207D0B84205D0A04227
:1058A00003D0A84201D0B04204D122F0700C4A6863
:1058B00042EA0C02984210D0B8420ED0A0420CD05E
:1058C000A8420AD0B04208D0154CA04205D0154CD1
:1058D000A04202D0144CA04203D122F44074CA6802
:1058E00022434C6922F08002224302608A68C2622D
:1058F0000A688262984201D109690163012141610C
:105900000169C90703D0016921F001010161F0BDFE
:10591000000001400004004000080040000C00406E
:1059200000400140004401400048014010B501F032
:105930001F030121046A99408C430462016A9A4062
:105940001143016210BD10B5846842EA032224F4B9
:105950007F440A432243826010BD000030B5036AD1
:10596000026A22F0010202624268846924F073052F
:105970000C682C4323F002058B682B430A4DA84288
:105980000BD123F00805CB6822F440722B434D69FC
:1059900023F0040315438A692A43426084614968FD
:1059A0004163036230BD00000000014030B5026A6F
:1059B000036A23F010030362436884690D6824F4CA
:1059C000E64444EA05248D6822F0200242EA0512EA
:1059D0000B4DA8420ED1CD6822F0800242EA05129A
:1059E0004D6923F4406343EA85038D6922F0400248
:1059F00043EA85034360846149688163026230BD84
:105A00000000014030B5036A026A22F4807202622B
:105A10004268C46923F4007324F073050C682C43B6
:105A20008D6843EA05230C4DA8420ED1CD6823F4BE
:105A3000006343EA05234D6922F4405242EA05120D
:105A40008D6923F4806342EA05124260C4614968AB
:105A5000C163036230BD00000000014030B5046A3C
:105A6000026A22F4805202624268C3690D6823F41C
:105A7000E64343EA05238D6824F4005444EA0534E0
:105A8000064DA84204D14D6922F4804242EA8512B3
:105A90004260C36149680164046230BD0000014096
:105AA00070B5036800249A6822F070054A682A439A
:105AB00022F007050A682A439A604A6812F00F0F1D
:105AC00031D11211082A2ED2DFE802F02E2E2E2E0E
:105AD0000B2127040B69D1E902210068FFF733FF8E
