:020000040800F2
:10000000280A0020B10100083321000881170008E8
:100010003121000829030008872A00080000000099
:100020000000000000000000000000001523000890
:100030002B03000800000000352100080F260008EF
:10004000CB010008CB010008CB010008CB01000860
:10005000CB010008CB010008CB010008CB01000850
:10006000CB010008CB010008CB010008CB01000840
:10007000CB010008CB010008CB010008CB01000830
:10008000CB010008CB010008CB01000800000000F4
:10009000000000000000000000000000CB0100088C
:1000A000CB010008CB010008CB010008CB01000800
:1000B000CB010008CB010008CB010008CB010008F0
:1000C000CB010008CB010008CB010008CB010008E0
:1000D000CB010008CB010008CB01000800000000A4
:1000E000CB010008CB010008CB0100080000000094
:1000F000000000000000000000000000CB0100082C
:1001000000000000CB010008CB010008CB01000873
:1001100000000000000000000000000000000000DF
:10012000CB010008CB010008CB010008CB0100087F
:10013000CB010008000000000000000000000000EB
:10014000000000000000000000000000CB010008DB
:10015000CB010008CB010008CB010008CB0100084F
:10016000CB010008CB0100080000000000000000E7
:10017000000000000000000000000000000000007F
:1001800000000000CB01000800000000000000009B
:10019000CB010008CB010008DFF810D000F0B2F866
:1001A00000480047012D0008AFF30080280A002016
:1001B0000648804706480047FEE7FEE7FEE7FEE701
:1001C000FEE7FEE7FEE7FEE7FEE7FEE7A5260008FE
:1001D000990100082DE9F05F0546002092469B46F4
:1001E00088460646814640241BE02846414647464D
:1001F000224600F076F853465A46C01A914110D371
:1002000011461846224600F05DF82D1A67EB0108EA
:100210004F4622460120002100F054F817EB000958
:100220004E41201EA4F10104DFDC484631462A4637
:100230004346BDE8F09F40EA01039B0703D009E075
:1002400008C9121F08C0042AFAD203E011F8013BC2
:1002500000F8013B521EF9D27047D2B201E000F81B
:10026000012B491EFBD270470022F6E710B513465A
:100270000A4604461946FFF7F0FF204610BD421E0D
:1002800012F8013F002BFBD111F8013B02F8013BB2
:10029000002BF9D1704710B5002200E0521C835C9E
:1002A0008C5CA34201D1002BF8D1D8B2E1B2401A44
:1002B00010BD034611F8012B00F8012B002AF9D1DB
:1002C00018467047202A04DB203A00FA02F1002089
:1002D00070479140C2F1200320FA03F31943904084
:1002E0007047202A04DB203A21FA02F000217047EF
:1002F00021FA02F3D040C2F120029140084319468E
:1003000070470000064C074D06E0E06840F001032E
:1003100094E8070098471034AC42F6D3FFF740FF4B
:100320002C6A00084C6A0008FEE7704772B6FEE7C8
:10033000002229B101291AD002291BD04FF44072A2
:100340000E490B6823F440730B600B6813430B607A
:100350000A6822F0F8020A600A68022303EBC00070
:1003600002430A60086840F48030086070474FF428
:100370008072E5E74FF40072E2E70000103C0240B3
:100380001348016889050FD5016821F400710160E7
:10039000016841F400610160016821F400610160BD
:1003A000016841F400710160016849050FD50168D9
:1003B00021F480610160016841F4805101600168AD
:1003C00021F480510160016841F48061016070474F
:1003D000003C024038B50220009001240A4800F099
:1003E00031F9C0088440C4F58050009000F0D2F983
:1003F0000121009800F092F800F0C0F908B1022045
:1004000038BD012038BD000000C0000810B586B01E
:100410000B4800F017F904460020009002940948A8
:1004200000F010F9001B401C03900220049005A965
:10043000684600F057F9002800D0012006B010BD32
:1004400000C00008FFFF070800B587B00021029038
:100450000120039002200091049005A9684600F055
:1004600041F9002800D0012007B000BD10B50848B0
:1004700000F0E8F807490988C008C14040F6FF725B
:10048000C240914201D1012010BD002010BD0000EA
:1004900000C00008163C024010B500F07BF902498C
:1004A000F320086010BD00000C3C02402DE9F04133
:1004B00016468846054600240D4F11E058F82410D2
:1004C000286800F03BF82868016858F82400814249
:1004D00002D00220BDE8F0812868001D2860641C5D
:1004E000B44202D22868B842E8D90020F2E70000FE
:1004F000FBFF070808490A6822F440720A600A688C
:1005000042F004020A600A684FF4803343EA002094
:1005100002430A6070470000103C024010B50446D8
:100520004CF2503000F05AF8002803D102490A88F2
:1005300022430A8010BD0000163C0240074A13689F
:1005400023F440731360136843F40073136013685B
:1005500043F001031360016070470000103C02404B
:100560001C490868C2061C4805D5C26942F0100241
:10057000C26110220A600A68920605D5C26942F07B
:100580000802C26120220A600A68520605D5C269C3
:1005900042F00402C26140220A600A68120605D5D0
:1005A000C26942F00202C26180220A600A68D20572
:1005B00006D5C26942F00102C2614FF480720A603E
:1005C0000A68920705D5C26942F02002C261022082
:1005D000086070470C3C02400801002070B51149CA
:1005E00004460020C86100F0E5F906460E4D09E01A
:1005F000601C07D024B100F0DDF9801BA04201D9B6
:10060000032070BD2868C003F2D42868C00701D059
:1006100001202860286810F4F970F2D0FFF7A0FFDD
:10062000012070BD080100200C3C024008B50020EC
:100630008DF80000684601F065FF0028FAD09DF8AB
:10064000000008BD01460020A1F100634FF4804284
:10065000934204D314480844904201D201207047C9
:1006600012480844904201D20220704710480844C2
:10067000904201D2032070470E480844B0F5803FF5
:1006800001D2042070470C480A184FF4003082420F
:1006900001D205207047094A1144814201D2062047
:1006A000704707207047000000C0FFF70080FFF789
:1006B0000040FFF70000FFF70000FEF70000FCF726
:1006C00070B5044600F076F90546601C02D0044877
:1006D0000078044400F06EF9401BA042FAD370BDCC
:1006E000000000202DE9F047044622480F46017E15
:1006F00001290AD00121804601764CF25039484642
:10070000FFF76CFF020003D02FE00220BDE8F08766
:100710004FF0FF3038602068174D012801D0A668DF
:100720001CE0207C6168FFF7E5FE4846FFF756FFB6
:100730000246286820F00400286014E0217C30463E
:10074000FFF7F6FD4846FFF749FF0200286820F052
:10075000FA00286001D03E6005E0761CD4E9021062
:100760000844B042EAD8FFF70BFE002188F81810C1
:100770001046CBE708010020103C024004480178F5
:1007800041F0020101704CF25030FFF727BF00002A
:10079000143C0240074900200A68002A09DA054A89
:1007A000054B0C3A1360054B13600968002900DA09
:1007B00001207047103C024023016745AB89EFCD13
:1007C0002DE9F84FDFF8B8A10022012403254FF0EE
:1007D0000F090AF1040BAAF1040E00BF0B6804FA1A
:1007E00002F63340B34273D10F7907F00307012FAC
:1007F00001D0022F16D187684FEA420805FA08FC9B
:1008000027EA0C07D1F80CC00CFA08FC4CEA070CDC
:10081000C0F808C04768B7430E79C6F30016964083
:100820003E4346600E79F643B6070DD0C7685600C2
:1008300005FA06FC27EA0C07D1F808C00CFA06FCFA
:100840004CEA070CC0F80CC00E7906F00306022E25
:1008500010D1D60800EB8608D8F8206057074FEA79
:10086000D76C09FA0CF7BE430F6907FA0CF7374348
:10087000C8F8207006684FEA420C05FA0CF7BE4330
:100880000F7907F0030707FA0CF7374307604E6844
:1008900016F4403F6DD03B4E376847F480473760D1
:1008A000366822F0030706F480460096364E07EBC2
:1008B000060CDCF8086897073F0F09FA07F826EAE4
:1008C0000806DFF8C880404503D14FF000081EE05D
:1008D0004FE0DFF8BC80404502D14FF0010816E040
:1008E000DFF8B080404502D14FF002080FE0DFF89A
:1008F000A880404502D14FF0030808E0DFF89C8053
:10090000404502D14FF0040801E04FF0070808FA13
:1009100007F848EA0608CCF80888DAF80060574675
:10092000D1F804C09E435FEACC2C00D51E433E6044
:10093000DBF800605F46D1F804C09E435FEA8C2C70
:1009400000D51E433E60DEF800607746D1F804C053
:100950009E435FEA8C3C00D51E433E60084F083F33
:100960003E68D1F804C09E435FEACC3C00D51E43EC
:100970003E60521C102AFFF431AFBDE8F88F000032
:10098000083C014044380240003001400000024071
:100990000004024000080240000C02400010024027
:1009A0000069084000D0012070470AB1816170479A
:1009B0000904FBE701488068704700000000002040
:1009C000024881680278114481607047000000206D
:1009D0000B4810B5016841F400710160016841F4F1
:1009E00080610160016841F480710160032000F0C2
:1009F00061F80F2000F006F800F024F8002010BD88
:100A0000003C024070B50D4D04464FF47A712878D1
:100A1000B1FBF0F00A490968B1FBF0F000F051FCBD
:100A200048B9102C07D200222146501E00F022F8AF
:100A300000206C6070BD012070BD0000000000202F
:100A40000C0000200A4808B5016841F480410160AB
:100A5000006800F4804000900548001F016841F0E4
:100A600080510160006800F08050009008BD0000D7
:100A700044380240F0B40E4B1B680C46C3F302230B
:100A8000C3F10705042D00D90425191D072901D23A
:100A9000002300E0DB1E012606FA05F1491E214075
:100AA00099409E40761E16403143F0BC02F0B2B829
:100AB0000CED00E0064900F0070208684FF6FF035E
:100AC000184040EA0220034A1043086070470000C3
:100AD0000CED00E00000FA052DE9F0470E46050098
:100AE00065D0DFF81481D8F80000F7B200F00700F5
:100AF000B04207D288F80070D8F8000000F0070074
:100B0000B04254D128683D4C810712D5400703D527
:100B1000206840F4E05020602878000703D5206862
:100B200040F4604020602068A96820F0F00008438D
:100B300020602878C0072DD030496868083901281E
:100B400012D0022813D0032811D009688907002980
:100B50002DDA216821F0030101432160FFF72AFF0C
:100B6000814641F2883A0EE009688903EFE7096897
:100B70008901ECE7FFF71EFFA0EB0901514502D9FF
:100B80000320BDE8F0872068696800F00C00B0EB36
:100B9000810FEFD1D8F80010404601F00701B142B3
:100BA00007D90770006800F00700B04201D00120AB
:100BB000E7E72878400705D52068E96820F4E05089
:100BC000084320602878000706D52068296920F4AA
:100BD000604040EAC100206000F038F82168084A0F
:100BE000C1F30311515CC84006490860064800681B
:100BF000FFF708FF0020C4E7003C0240083802402D
:100C0000006800080C00002004000020044805498A
:100C100000680968044AC1F38221515CC8407047EA
:100C20000C000020083802401068000804480549FC
:100C300000680968044AC1F34231515CC8407047FA
:100C40000C0000200838024010680008154810B554
:100C5000006810F00C02144813D01449042A0FD075
:100C6000082A0ED10F4C241F2268236802F03F028D
:100C70005B0207D52068C0F38810A0FB010106E0E5
:100C8000084610BD2168C1F38811A1FB00010023B3
:100C9000FFF7A0FA2168C1F30141491C4900B0FBEC
:100CA000F1F010BD083802400024F40040787D01C6
:100CB0002DE9F84F04006ED02078DFF84C93C00780
:100CC000A9F104054AD009F104000168C1F38101CA
:100CD000012908D00068C0F3810002280AD1D9F8A0
:100CE0000000400206D52868800337D560680028D8
:100CF000E1D033E06068B0F5803F10D0B0F5A02FB0
:100D0000286810D020F480302860286820F48020E3
:100D100028606068A8B1FFF74DFE06460DE0286820
:100D200040F48030F4E740F480202860F7E700BF0B
:100D3000FFF740FE801B642873D828688003F7D52E
:100D40000CE0FFF737FE064605E000BFFFF732FE76
:100D5000801B6428F0D828688003F7D42078DFF857
:100D6000AC8280074FF0000A3ED5A748001D0168FD
:100D700011F00C0F08D00068C0F3810002280BD1DD
:100D8000D9F80000400207D42868800716D5E0682B
:100D9000012800D112E033E1E068B8B10120C8F8C1
:100DA0000000FFF707FE064605E000BFFFF702FE62
:100DB000801B0228C0D828688007F7D528682169D9
:100DC00020F0F80040EAC10028600DE0C8F800A05B
:100DD000FFF7F0FD064604E0FFF7ECFD801B02285C
:100DE0001FD828688007F7D42078000722D5864FBF
:100DF00087486169703771B101210160FFF7DAFD41
:100E0000064604E0FFF7D6FD801B022809D83868A3
:100E10008007F7D50EE0C0F800A0FFF7CBFD06462F
:100E200005E082E0FFF7C6FD801B02287DD8386808
:100E30008007F7D42078400768D5DFF8CCB10027C9
:100E40000BF13C0BDBF80000C0000BD4DBF800100A
:100E500041F08051CBF80010DBF80000012700F0D2
:100E6000805000906B4E3068C00510D4306840F45C
:100E700080703060FFF79EFD009005E0FFF79AFD5F
:100E80000099401A022850D83068C005F6D55E4E49
:100E9000A0686C3601280FD00528306810D020F0EB
:100EA00001003060306820F004003060A068B8B104
:100EB000FFF780FD00900FE0306840F00100F4E79C
:100EC00040F004003060F7E7FFF774FD0099411A25
:100ED00041F28830814266D830688007F4D50EE050
:100EE000FFF768FD009007E0FFF764FD0099411AE5
:100EF00041F28830814256D830688007F4D42FB14F
:100F0000DBF8001021F08051CBF80010A069C8B3C5
:100F10003D49091D0968C1F3810102294AD002280F
:100F2000504607D0C8F8600000E03CE0FFF742FD03
:100F300004463BE04746C8F86000FFF73BFD064625
:100F400005E000BFFFF736FD801B02282BD828687C
:100F50008001F7D4D4E907010843A16A2E4A490861
:100F600002EB0141626A41EA8211084394F82C10B5
:100F700040EA0161C9F8001001203866FFF71AFD48
:100F8000044606E03EE000BFFFF714FD001B022808
:100F900009D828688001F7D534E000BFFFF70AFDC3
:100FA000001B022802D90320BDE8F88F28688001C1
:100FB000F4D427E00128F7D0D9F80000E26900F462
:100FC000800191421CD1226A00F03F01914217D169
:100FD00047F6C071626A0140B1EB821F10D1A26A6C
:100FE0004FF0FF3300F4403103EB5202B1EB024FFC
:100FF00006D194F82C1000F07060B0EB016F01D0B6
:101000000120D1E70020CFE704380240000047422A
:10101000800E4742007000400000FFFF70B50400E2
:1010200009D0606A002540B125616561A56294F828
:10103000510040B10CE0012070BD6068B0F5827FC6
:10104000F4D0E561F2E784F85050204600F044F80F
:10105000022084F851002068016821F040010160FD
:10106000A088218900F4827001F404410843A18919
:1010700001F400610843217C01F002010843217D55
:1010800001F001010843218B01F400710843217F25
:1010900001F03801084394F8201001F08001084362
:1010A000218D01F40051084321680860A0690421E2
:1010B00001EA104094F8241001F01001084321685F
:1010C00048602068C16921F40061C1616565012043
:1010D00084F85100002070BD10B586B0044614217C
:1010E0006846FFF7C1F814492068884221D11348A7
:1010F0000021026842F480420260006800F48040EF
:1011000005900E481038026842F002020260006842
:1011100000F0020005904FF4204000900220CDE93D
:101120000101032003900520049069460448FFF75D
:1011300047FB06B010BD00000038004040380240B8
:10114000000402402DE9F84F984616468A460446A8
:10115000FFF730FC814694F8510001281ED1BAF106
:10116000000F73D0002E71D094F85000012815D0D4
:10117000012784F85070032084F85100002565652C
:10118000C4F830A0A686E686A563A587E5876564D2
:101190002564A068B0F5004F03D00CE00220BDE844
:1011A000F88F2068016821F0400101602068016823
:1011B00041F48041016020680168490603D4016858
:1011C00041F040010160E068B0F5006F606803D055
:1011D00048B3012E27D047E008B1012E1FD1206B64
:1011E00021680088C86006E020688168890709D501
:1011F000216B0988C160206B801C2063E08E401E3B
:10120000E0860CE0FFF7D6FBA0EB0901414503D3D4
:10121000B8F1FF3F03D035E0B8F1000F32D0E08ED7
:101220000028E1D123E0206B21680078087306E0F4
:101230002068816889070AD5216B09780173206BC2
:10124000401C2063E08E401EE0860DE02BE0FFF79F
:10125000B1FBA0EB0901414503D3B8F1FF3F03D037
:1012600010E0B8F1000F0DD0E08E0028E0D14A4622
:101270004146204600F0BCFF08B120206065A06810
:1012800030B109E084F8517084F85050032086E7AB
:101290002068C1688068009084F8517004F8505F3D
:1012A00060680028F3D0012079E74FF0E02104289E
:1012B000086903D020F004000861704740F0040082
:1012C000FAE710B5401EB0F1807F01D3012010BDB8
:1012D0004FF0E02460610F21601701F09BFC0020BB
:1012E000A06107202061002010BD10B590F83C20BF
:1012F000012A22D0012280F83C20CA688C6822F49E
:10130000407222434C6822F4806222430C6822F42B
:10131000006222430C6922F4805222434C6922F479
:1013200000522243C969002322F480420A43016823
:101330004A6480F83C30002010BD022010BD00003F
:1013400070B590F83C20012A2CD0012480F83C4054
:10135000022280F83D2003685A689D6822F07006DA
:101360000A6832435A60104B02689A420ED0B2F1BA
:10137000804F0BD00D4B9A4208D00D4B9A4205D0AE
:101380000C4B9A4202D00C4B9A4204D1496825F08A
:1013900080031943916080F83D40002180F83C10A3
:1013A000084670BD022070BD0000014000040040EE
:1013B00000080040000C00400040014010B586B01D
:1013C000044614216846FEF74FFF0E492068884204
:1013D00016D10D480021026842F001020260006847
:1013E00000F0010005904FF4806000900220CDE9EC
:1013F00001010120CDE9031069460448FFF7E0F937
:1014000006B010BD0000014030380240000002402C
:1014100070B5044690F83C0000260D4601280FD018
:10142000012084F83C006AB1042A1DD0082A2FD07C
:101430000C2A3FD00126002084F83C00304670BDC5
:10144000022070BD206801F095F92068816941F0A3
:10145000080181612068816921F0040181612068AF
:1014600081692A69114311E0206801F0ABF9206815
:10147000816941F4006181612068816921F48061A2
:101480008161206881692A6941EA02218161D2E78C
:10149000206801F0C3F92068C16941F00801C16109
:1014A0002068C16921F00401C1612068C1692A690D
:1014B000114311E0206801F0DDF92068C16941F4B1
:1014C0000061C1612068C16921F48061C161206847
:1014D000C1692A6941EA0221C161ACE710B5040083
:1014E00003D094F83D0010B107E0012010BD0020AA
:1014F00084F83C00204600F01FF8022084F83D00EC
:10150000211D206801F0D6F8012084F8460084F8F7
:101510003E0084F83F0084F8400084F8410084F8DD
:10152000420084F8430084F8440084F8450084F8BD
:101530003D00002010BD000008B500680649884243
:1015400008D10648016841F001010160006800F01F
:101550000100009008BD0000000001404438024036
:1015600010B50446022249B104290ED0082913D02F
:1015700094F84100012816D0012010BD94F83E00D7
:101580000128F9D184F83E200FE094F83F000128AB
:10159000F2D184F83F2008E094F840000128EBD114
:1015A00084F8402001E084F841200122206801F005
:1015B000D3F812492068884203D1426C42F40042B9
:1015C0004264206888420ED0B0F1804F0BD00C49A5
:1015D000884208D00B49884205D00B49884202D086
:1015E0000A49884204D1816801F00701062903D025
:1015F000016841F001010160002010BD00000140C0
:101600000004004000080040000C00400040014081
:1016100070B5040004D094F84100002510B106E034
:10162000012070BD84F84050204600F023F82420AB
:1016300084F841002068C16821F40051C16020464F
:1016400001F062F92068016921F49041016120688C
:10165000416921F02A0141612068C16841F40051CB
:10166000C1606564202084F8410084F8420065630D
:10167000002070BD10B586B0044614216846FEF700
:10168000F3FD14492068884221D1134800210268E3
:1016900042F020020260006800F0200005900E4831
:1016A0001438026842F001020260006800F0010094
:1016B00005904FF4C05000900220CDE901010320B5
:1016C00003900820049069460448FFF779F806B0B3
:1016D00010BD0000001401404438024000000240E8
:1016E0002DE9F843044690F84100984616460D4609
:1016F000202802D00220BDE8F88385B17EB1002009
:101700006064212084F84100FFF754F9A6848146E3
:10171000E684A0682027B0F5805F02D003E00120B6
:10172000E9E7206910B12E4600250EE000260CE006
:101730008021204601F06EF9A8B9C6B116F8010B58
:1017400021684860E08C401EE084E08C4B464FF0FE
:101750000002CDF800800028EAD14FF04001204679
:1017600001F058F940B184F841700320C3E735F81F
:10177000020BC0F30800E3E784F841700020BAE7E9
:10178000FEE70000F0B500220D4B154614460A276F
:10179000B1FBF3F630368654B1FBF3F603FB1611BA
:1017A000B3FBF7F3521C861816F8016C302E00D1EB
:1017B00025B16D1C641C0A2CEAD3F0BD0022F9E7A8
:1017C00000CA9A3B30B587B014216846FEF74CFD3D
:1017D00010480024016841F00101016000680E4DCD
:1017E00000F001000590202000904FF404100190BB
:1017F0000120029069462846FEF7E2FF1020009083
:101800004FF48810CDE9010469462846FEF7D8FF59
:1018100007B030BD30380240000002402DE9F041F1
:1018200004461D4616460F462A2000F003FA2046BD
:1018300000F0F0F9304600F0EDF92B2000F0FAF955
:10184000384600F0E7F9284600F0E4F9BDE8F04139
:101850002C2000F0EFB910B514460B460246FFF7F6
:10186000DDFF2046BDE8104000F0D4B92DE9F04777
:1018700080461F4603F1130083B21646501E82B203
:101880000C4601F1140081B24046DDF82090FFF7CC
:10189000C5FF0AE0454604E0484600F0BBF96D1C70
:1018A000ADB2B542F8D3641CA4B2BC42F2D3BDE8D9
:1018B000F087000030B587B014216846FEF7D4FCED
:1018C0000D48016841F00201016000684FF4607446
:1018D00000F0020005900120CDE900400320074DF3
:1018E000039069462846FEF76BFF012221462846F1
:1018F000FFF75BF807B030BD30380240000402400B
:1019000010B5FFF7D7FF684C00224FF480712046D6
:10191000FFF74BF8002280212046FFF746F86420AD
:1019200001F0BEF9012280212046FFF73EF8642035
:1019300001F0B6F9112000F07DF9782001F0B0F93E
:10194000362000F077F9002000F08AF93A2000F004
:1019500071F9052000F084F9B22000F06BF90C2039
:1019600000F07EF90C2000F07BF9002000F078F9FF
:10197000332000F075F9332000F072F9B72000F041
:1019800059F9352000F06CF9BB2000F053F919200B
:1019900000F066F9C02000F04DF92C2000F060F94D
:1019A000C22000F047F9012000F05AF9C32000F0EE
:1019B00041F9122000F054F9C42000F03BF9202036
:1019C00000F04EF9C62000F035F90F2000F048F97C
:1019D000D02000F02FF9A42000F042F9A12000F05F
:1019E0003FF9E02000F026F9D02000F039F904207A
:1019F00000F036F90D2000F033F9112000F030F935
:101A0000132000F02DF92B2000F02AF93F2000F0E0
:101A100027F9542000F024F94C2000F021F9182077
:101A200000F01EF90D2000F01BF90B2000F018F952
:101A30001F2000F015F9232000F012F9E12000F03A
:101A4000F9F8D02000F00CF9042000F009F90C207E
:101A500000F006F9112000F003F9132000F000F95E
:101A60002C2000F0FDF83F2000F0FAF8442000F0B0
:101A7000F7F8512000F0F4F82F2000F0F1F81F20C3
:101A800000F0EEF81F2000F0EBF8202000F0E8F85E
:101A9000232000F0E5F8212000F0CCF8BDE810404C
:101AA000292000F0C7B8000000040240411F5F2950
:101AB00009D84FF4967110FB01F06421B0FBF1F0EE
:101AC00001490968C8637047780000202DE9FF4F7D
:101AD00081B00446DDF83C9000904FEA59074FF082
:101AE0000008780700D0012000EBD70000FB09FBBD
:101AF000203AD0B20390029802994844401E83B223
:101B0000E019401E82B22046FFF788FE002553E010
:101B1000B9F10C0F2AD0B9F1100F2ED0B9F1180F6E
:101B20002ED0B9F1200F49D12749039801EB80103D
:101B3000002610F805A0109800284FF0010000FAC8
:101B400006F000EA0A0022D020B12046049A029949
:101B5000FFF781FE641C0098A4B2201AB84225D178
:101B60000298009C401C80B2029023E00398174921
:101B700000EB400001EB8000DAE71549039803E031
:101B80000398144900EB400001EB0010D0E708B1C6
:101B9000049800E00E9800F03DF808F10100C0B292
:101BA000B0FBF7F1804607FB118050B1761CF6B20E
:101BB000082EC0D36D1CADB25D45A9D305B0BDE8FC
:101BC000F08F4FF00008F5E7184B0008E42E0008EE
:101BD00058330008483900082DE9FE4F9946DDE9E1
:101BE0000D6714468A460546DDF830800CE0CDF8D6
:101BF00000804B4651462846CDE90167FFF766FF56
:101C000005EB560085B2641C2278002AEFD1BDE8AE
:101C1000FE8F000008B5010A8DF800108DF8010054
:101C20000123022269460248FFF78CFA08BD000032
:101C30002000002070B5094D06464FF400740022C4
:101C400021462846FEF7B1FE304600F009F821464D
:101C50002846BDE870400122FEF7A7BE00040240FE
:101C600001B501231A4669460148FFF76BFA08BD22
:101C700020000020094808B5016841F00201016018
:101C8000016801F002010091016841F00101016069
:101C9000006800F00100009008BD000030380240EC
:101CA000104810B50E4901604FF482714160002167
:101CB00002228160C0E90312012242615202C0E99E
:101CC00006210162416281620A21C162FFF7A6F921
:101CD000002803D0BDE81040FEF728BB10BD00006F
:101CE000003800402000002010B592B000240F946E
:101CF0001C2108A81094FEF7B7FA20216846FEF7C9
:101D0000B3FA20481E4901606321C0E90114FA2199
:101D1000C0E9031444618461FFF7E0FB08B1FEF7FA
:101D200005FB0F940FA917481094FFF709FB08B1A2
:101D3000FEF7FCFA6020CDE908040A940B940C9499
:101D40000D94082208A90F480E94FFF761FB08B113
:101D5000FEF7ECFA00944FF40050CDE904400294F1
:101D600001940394694607480794FFF7BEFA08B147
:101D7000FEF7DCFA0348FFF721FB12B010BD0000AC
:101D800000000140780000200C4810B50A490160AD
:101D90004FF4E1314160002181600C22C160C0E953
:101DA00004128161C161FFF733FC002803D0BDE854
:101DB0001040FEF7BBBA10BD00140140C000002067
:101DC000354800F0BBFB354800F0B8FB344800F064
:101DD000B5FB344800F0B2FB314800F0AFFB3248AD
:101DE00000F0ACFB2C4800F0A9FB30A000F0A6FBF3
:101DF000FEF73CFB2F4C002510B90120206000E0CD
:101E000025602DA000F09AFB3BA000F097FB4AA0B4
:101E100000F094FB58A000F091FB206810B166A080
:101E200000F08CFB74A000F089FBFEF7FFFB31286B
:101E300006D0322807D0332807D0342814D016E033
:101E400000F06AFADDE77CA015E04FF0E0200561C4
:101E50004561856172B683494868A0606060096821
:101E600081F308888047CCE72068012806D02068E5
:101E700000280FD07CA000F061FBC2E7FEF7AAFAB1
:101E8000012803D00228BCD187A0F4E791A000F07C
:101E900055FBB5E797A0EEE7E0690008FC6800088D
:101EA000B068000894690008486900080D0A0D0A26
:101EB00000000000100000200D0A3D3D3D3D3D3D6D
:101EC0003D3D3D3D3D3D3D3D3D3D3D3D204D6169FF
:101ED0006E204D656E75203D3D3D3D3D3D3D3D3D9A
:101EE0003D3D3D3D3D3D3D3D3D3D3D3D3D3D3D3D22
:101EF0003D3D3D0D0A0A00002020446F776E6C6F57
:101F0000616420496D61676520546F2074686520A5
:101F100053544D33324634787820496E7465726E6E
:101F2000616C20466C617368202D2D2D2D2D2D2D7B
:101F300020310D0A0A000000202055706C6F61648A
:101F400020496D6167652046726F6D207468652059
:101F500053544D33324634787820496E7465726E2E
:101F6000616C20466C617368202D2D2D2D2D2D2D3B
:101F700020320D0A0A000000202045786563757440
:101F80006520546865204E65772050726F677261D6
:101F90006D202D2D2D2D2D2D2D2D2D2D2D2D2D2D3E
:101FA0002D2D2D2D2D2D2D2D2D2D2D2D2D2D2D2D61
:101FB00020330D0A0A000000202044697361626C1E
:101FC00065207468652077726974652070726F741B
:101FD000656374696F6E202D2D2D2D2D2D2D2D2DCA
:101FE0002D2D2D2D2D2D2D2D2D2D2D2D2D2D2D2D21
:101FF00020340D0A0A0000003D3D3D3D3D3D3D3D84
:102000003D3D3D3D3D3D3D3D3D3D3D3D3D3D3D3D00
:102010003D3D3D3D3D3D3D3D3D3D3D3D3D3D3D3DF0
:102020003D3D3D3D3D3D3D3D3D3D3D3D3D3D3D3DE0
:102030003D3D0D0A0A000000546869732066756E04
:102040006374696F6E2069732064697361626C6583
:10205000642120506C656173652055736520310DD6
:102060000000000000C00008496E76616C696420C1
:102070004E756D6265722021203D3D3E205468659D
:10208000206E756D6265722073686F756C64206276
:10209000652065697468657220312C20322C2033EC
:1020A000206F7220340D00004572726F723A204624
:1020B0006C61736820777269746520756E70726FD9
:1020C00074656374696F6E206661696C65642E2E39
:1020D0002E0D0A0057726974652050726F74656323
:1020E00074696F6E2064697361626C65642E2E2E54
:1020F0000D0A0000496E76616C6964204E756D6250
:1021000065722021203D3D3E20546865206E756D2E
:102110006265722073686F756C6420626520656902
:102120007468657220312C2032206F7220330D00CC
:10213000FEE7FEE7704770B50C46054604E028460A
:1021400000F0E0F9012804D0641EF8D24FF0FF300F
:1021500070BD002070BD2DE9F84F8846002106466D
:10216000C8F80010924611466846FFF7E4FF4FF0AA
:10217000FF39B0BB9DF80000182814D006DC0128F8
:1021800009D0022809D004282BD12EE0412816D0EE
:10219000612826D113E0802401E04FF480640125FA
:1021A0003070671D15E051466846FFF7C4FFC0B99F
:1021B0009DF80000182814D1C8F8009015E00120FF
:1021C000BDE8F88F70195146FFF7B5FF48B96D1C8F
:1021D000ADB2BD42F6D3B178707881F0FF0188428C
:1021E00001D04846ECE7C8F800400020E8E70000CE
:1021F000F8B515460E460B46009204460122022110
:1022000000F02CF8A0B9134813490068B0FBF1F0B6
:102210004FF47A71484300906068B0F5827F0DD129
:102220003346002280212046009500F017F870B157
:10223000606D40F0200060650320F8BD009830B16B
:10224000401E009020688068C0430006F6D500203C
:10225000F8BD00000C00002000366E012DE9F843A7
:102260001E46914688460446089DFEF7A3FB401B88
:10227000351AFEF79FFB074625480068C0F3CB30B0
:10228000684338E0701C37D0FEF794FBC01BA842AF
:1022900003D215B1009860B32CE02068416821F0AA
:1022A000E00141606068B0F5827F0BD1A068B0F5B5
:1022B000004F02D0B0F5806F04D12068016821F092
:1022C00040010160A06AB0F5005F09D12068016893
:1022D00021F4005101602068016841F4005101605F
:1022E000012084F85100002084F850000320BDE84C
:1022F000F8830025401E00902068816838EA0100BC
:1023000004D000214945BDD10020F0E70121F9E7C3
:102310000C000020704700001FB520A207CA8DE8FE
:102320000700214803900220FEF78EF81FA000F05E
:1023300005F92D4800F0A8FB041E1FDD2B4800F016
:10234000FDF82B4800F0FAF821466846FFF71AFA24
:1023500028A000F0F3F8684600F0F0F828A000F09C
:10236000EDF82AA000F0EAF82EA1022203A8FEF759
:102370009DF808B12EA00CE03C480AE0601C05D096
:10238000A01C05D0E41C07D039A002E040A000E06A
:102390004FA000F0D3F81FBD54A0FAE72020202062
:1023A0002020202020200000008000085761697450
:1023B000696E6720666F72207468652066696C6557
:1023C00020746F2062652073656E74202E2E2E207F
:1023D0002870726573732027612720746F206162F3
:1023E0006F7274290A0D0000280100205C68000843
:1023F000280500200A0D2053697A653A2000000064
:102400002042797465730D0A000000002D2D2D2DDA
:102410002D2D2D2D2D2D2D2D2D2D2D2D2D2D2D0A0F
:102420000000000041505020464C41470000000091
:102430000A0A0D2041505020466C61672053657494
:10244000204572726F72210A0D2D2D2D2D2D2D2DEF
:102450002D2D2D2D2D2D2D2D2D2D2D2D2D2D2D2DAC
:102460002D2D2D2D2D2D2D2D2D0D0A001868000838
:102470000A0D4661696C656420746F20726563653E
:10248000697665207468652066696C65210A0D00AF
:102490000A0A0D54686520696D6167652073697A61
:1024A0006520697320686967686572207468616E69
:1024B0002074686520616C6C6F776564207370614F
:1024C0006365206D656D6F7279210A0D0000000053
:1024D0000A0A0D566572696669636174696F6E20D8
:1024E0006661696C6564210A0D0000000D0A0A41ED
:1024F000626F7274656420627920757365722E0A4A
:102500000D000000054909680A68D243920603D409
:10251000496801700120704700207047C00000200A
:1025200004494860044800680168C9430906FBD4AF
:102530007047000000100140C000002000B50246B6
:1025400003E000BFFFF7ECFF521C10780028F9D120
:1025500000BD70B5002204781346302C04D14478B5
:10256000782C0AD0582C08D06FF02F05845C74B3F7
:102570006B2C2ED04B2C2CD030E082780AB3022466
:10258000025D5AB1A2F14105052D0AD9A2F16106F9
:10259000052E06D91135092D07D913E001200B604E
:1025A00011E0A2F13006092E01D8303A04E0052DE1
:1025B00001D8373A00E0573A641C02EB03130B2CA6
:1025C000DED302E000200B2C00D3002070BD0B6096
:1025D00002E01AB1980207E0012015E06D2C01D04D
:1025E0004D2C03D112B118050860F5E7A4F13006AF
:1025F000092E08D803EB830305EB4303521C234445
:102600000B2AB3D3E1E700200B2ADED270BDFEF720
:10261000D7B9000030B593B030216846FDF724FEED
:1026200014210CA8FDF720FE1C480024016841F08D
:1026300080510160006800F08050119018480168D6
:1026400041F4404101600068022500F440401190CF
:102650000120039010200490009506950820CDE9F4
:1026600007406420CDE9090504200B906846FEF779
:102670001FFB08B172B6FEE70F20CDE90C054FF441
:102680008050CDE90E4003210CA81094FEF724FAE7
:10269000002801D072B6FEE713B030BD40380240CA
:1026A000007000400248016841F470010160704709
:1026B00088ED00E0F0B50268204B214C9F03214DCE
:1026C000214E984207D0B84205D0A04203D0A8427C
:1026D00001D0B04204D122F0700C4A6842EA0C02E8
:1026E000984210D0B8420ED0A0420CD0A8420AD0D6
:1026F000B04208D0154CA04205D0154CA04202D0E3
:10270000144CA04203D122F44074CA6822434C699D
:1027100022F08002224302608A68C2620A688262F2
:10272000984201D109690163012141610169C90729
:1027300003D0016921F001010161F0BD00000140F9
:102740000004004000080040000C00400040014030
:10275000004401400048014010B501F01F03012171
:10276000046A99408C430462016A9A4011430162F1
:1027700010BD000030B5036A026A22F00102026255
:102780004268846924F073050C682C4323F0020529
:102790008B682B430A4DA8420BD123F00805CB6868
:1027A00022F440722B434D6923F0040315438A69D8
:1027B0002A434260846149684163036230BD00007E
:1027C0000000014030B5026A036A23F0100303627F
:1027D000436884690D6824F4E64444EA05248D685E
:1027E00022F0200242EA05120B4DA8420ED1CD681C
:1027F00022F0800242EA05124D6923F4406343EA65
:1028000085038D6922F0400243EA850343608461B9
:1028100049688163026230BD0000014030B5036A3F
:10282000026A22F4807202624268C46923F400736F
:1028300024F073050C682C438D6843EA05230C4D86
:10284000A8420ED1CD6823F4006343EA05234D6905
:1028500022F4405242EA05128D6923F4806342EA71
:1028600005124260C4614968C163036230BD000063
:102870000000014030B5046A026A22F4805202620C
:102880004268C3690D6823F4E64343EA05238D6873
:1028900024F4005444EA0534064DA84204D14D699D
:1028A00022F4804242EA85124260C36149680164B1
:1028B000046230BD0000014001680C3151E8002F76
:1028C00022F4907241E80023002BF5D10168143105
:1028D00051E8002F22F0010241E80023002BF5D13E
:1028E000016B012909D101680C3151E8002F22F058
:1028F000100241E80023002BF5D1202180F842107E
:10290000002101637047000070B50446006801694A
:10291000E26821F44051114301612169A068E26934
:1029200008436169114308432168CA6849F20C638E
:102930009A430243CA6020684169A26921F4407148
:102940001143416131492068884202D030498842B0
:1029500002D1FEF76BF901E0FEF758F9E2690023B6
:10296000192164253226B2F5004F626828D0A0FBF9
:102970000101930F9200FDF72DFC0146B0FBF5F02D
:102980006FF01802504301EB800006EB0010B0FB23
:10299000F5F000F0F002B1FBF5F002EB0012B1FB34
:1029A000F5F06FF01803584301EB800006EB0010C0
:1029B000B0FBF5F000F00F0021681044886070BD96
:1029C000A0FB010192185B41FDF704FC0146B0FB3E
:1029D000F5F00201B1FBF5F06FF01803584301EB7D
:1029E000800006EBC000B0FBF5F000F0F80002EB51
:1029F0004002B1FBF5F0584301EB800006EBC0004C
:102A0000B0FBF5F000F00700D6E700000010014031
:102A1000001401402DE9F843984617460D46044638
:102A2000089E24E0701C22D0FDF7C4FFA0EB080034
:102A3000B0421AD8CEB12068C168490717D5802D99
:102A400015D0402D13D00168C94309070FD4016880
:102A50000025406800902046FFF72EFF08206064A4
:102A600084F840500120BDE8F8830320FBE720688C
:102A7000006835EA000004D00020B842D2D000201F
:102A8000F1E70120F9E7FEE72DE9F04FADF22C4D1B
:102A90004FF0000ADFF864B10446CDF808A45546AB
:102AA000D0464FF480174FF0FF39CDF810B4CDF871
:102AB00014A400263A460DF20C416846FFF74BFB82
:102AC00098B1012875D0B8F1000F00DD6D1C052DFF
:102AD00071DD1820FFF724FD5FF01800FFF720FDDF
:102AE00000200DF22C4DBDE8F08FDDF80C24002500
:102AF0004A4507D042B19DF80100F1B288420BD09F
:102B0000152078E00620E9E70620FFF709FDDDF84B
:102B100014040028CDD05AE0BEB120460DF10301C7
:102B2000FDF789FBDDF80C042146C0F38D020DF59D
:102B30008260FDF7BBFCD8B31820FFF7F1FC18202A
:102B4000FFF7EEFC6FF00100CBE79DF8030088B3C0
:102B500000212B4A0DF1030002E05354401C491C94
:102B600003780BB1FF29F8DD02F801A000210DF573
:102B70008362401C02E05354401C491C0378202B04
:102B800001D01029F7DB02F801A00DF58161104694
:102B9000FFF7DFFCDDF808046FF4E821C8420BD929
:102BA0001820FFF7BDFC1820FFF7BAFC484698E74D
:102BB00010E016E008E01DE05846FDF727FC06206F
:102BC000FFF7AEFC432006E00620FFF7A9FCDDF886
:102BD000080486E70620FFF7A3FC4FF00108761CE7
:102BE00068E71820FFF79CFC1820FFF799FC6FF0AE
:102BF000020076E74320FFF793FC5BE700C0000884
:102C000028050020014A024900F023B8E92C0008F9
:102C10001C0000200907090E002804DB00F1E02059
:102C200080F80014704700F00F0000F1E02080F8F9
:102C3000141D704702E008C8121F08C1002AFAD10B
:102C400070477047002001E001C1121F002AFBD12C
:102C500070472DE9F04116460F460446002503E073
:102C60003946B047641C6D1C20780028F8D12846EE
:102C7000BDE8F08110B50420FEF717FB06484FF4BD
:102C80007A710078B1FBF0F004490968BDE81040A2
:102C9000B1FBF0F0FEF715BB000000200C00002097
:102CA00070B5054600244FF47A7603E0304600F014
:102CB00004F8641CAC42F9D370BD70B54FF0E02449
:102CC0000022656964214843A169A3698B42FCD055
:102CD00002D2A1EB030102E0A5EB030631440A4452
:102CE00019468242F1D370BD13B54FF6FF7301222E
:102CF00069460248FEF7F4FC00981CBDC0000020A5
:102D00004E498AB04FF000600860FDF761FEFFF7A2
:102D100081FCFEF7AFFFFEF7C3FFFEF7E5FFFFF70D
:102D200033F8FFF7A7FFFEF74DFD08214448FEF7F3
:102D300017FCFEF7E5FD00244FF48C73F0222146CA
:102D400020460094FEF792FD0A20FFF7A9FF3220EB
:102D5000FEF7ACFEDFF8EC8020214046FDF720FEB8
:102D600018254FF6FF764FF4FA7750B33649D1E97C
:102D70000001089106908DF81C408DF8244006A9AA
:102D800003A8FDF796FA08A903A8FDF778FA2FA182
:102D900003A8FDF780FA002832D0CDE9004533467C
:102DA0002DA28C214A200294FEF716FFCDE90045A2
:102DB00033462BA2BC2120200294FEF70DFF7800A1
:102DC00038E03846FFF76CFF20214046FDF7E8FD6C
:102DD00048BBCDE90045334625A28C21482002940A
:102DE000FEF7FAFECDE90045334624A2BC2120209F
:102DF0000294FEF7F1FEFDF74FFBFEF7E1FF12E054
:102E000022A0FFF7FFFE4FF0E020046144618461DF
:102E100072B625494868254A1060254A106009683D
:102E200081F30888804723A0FFF7ECFE27A0FFF777
:102E3000E9FE3846FDF744FCF5E7000008ED00E048
:102E4000780000200000024000800008415050201F
:102E5000464C4147000000004E6F20417070210039
:102E6000506C6561736520446F776E6C6F616400B0
:102E7000426F6F746C6F6164000000004F562D57F5
:102E8000617463682056322E342E30004150502039
:102E9000464C4147204F4B2C206A756D7020746F53
:102EA000206170700D0A000000C0000818000020AA
:102EB0001400002072756E20696E20626F6F74209E
:102EC0007768696C652831290D0A0000746865729D
:102ED00065206973206E6F206C6567616C204150BE
:102EE000500D0A000000000000000000000000007B
:102EF00000000404040404000004000014140A0088
:102F0000000000000000000000000A0A1F0A0A1F5B
:102F10000A0A000000040E1505060C14150E040024
:102F2000000012150D152E2C2A1200000000040AB4
:102F30000A361515291600000202010000000000E3
:102F4000000000001008080404040404080810002D
:102F50000204040808080808040402000000000431
:102F6000150E0E150400000000000008083E0808B9
:102F7000000000000000000000000000020201004C
:102F800000000000003F0000000000000000000002
:102F900000000000000200000020101008080404D7
:102FA0000202010000000E1111111111110E00009A
:102FB0000000040604040404040E000000000E11C6
:102FC00011080402011F000000000E11100C101067
:102FD000110E00000000080C0C0A091F081C00005C
:102FE00000001F01010F1110110E000000000C1253
:102FF000010D1311110E000000001E10080804043A
:103000000404000000000E11110E1111110E000039
:1030100000000E1111191610090600000000000032
:103020000400000000040000000000000004000094
:10303000000404000000100804020204081000004C
:10304000000000003F003F000000000000000204FC
:10305000081010080402000000000E1111080404FA
:103060000004000000001C22292D2D1D221C000040
:10307000000004040C0A0A1E1233000000000F12A4
:10308000120E1212120F000000001E1101010101A8
:10309000110E000000000F1212121212120F000087
:1030A00000001F120A0E0A02121F000000001F1269
:1030B0000A0E0A020207000000001C120101391169
:1030C000120C000000003312121E12121233000004
:1030D00000001F0404040404041F000000003E0854
:1030E0000808080808080907000037120A060A122B
:1030F000123700000000070202020202223F000015
:1031000000003B1B1B1B15151535000000003B1272
:1031100016161A1A1217000000000E1111111111C3
:10312000110E000000000F12120E02020207000032
:1031300000000E1111111117190E180000000F12C6
:10314000120E0A121237000000001E1101060810AC
:10315000110F000000001F1504040404040E0000F9
:103160000000331212121212120C0000000033126F
:10317000120A0A0C040400000000151515150E0AA9
:103180000A0A000000001B0A0A04040A0A1B0000C5
:1031900000001B0A0A0A0404040E000000001F09B4
:1031A00008040402121F00001C04040404040404A4
:1031B00004041C00000202040404080808101000A3
:1031C0000E0808080808080808080E00040A00008D
:1031D00000000000000000000000000000000000EF
:1031E0000000003F0204000000000000000000009A
:1031F00000000000000C121C123C00000003020240
:10320000020E1212120E000000000000001C12023A
:10321000120C000000181010101C1212123C0000BA
:1032200000000000000C121E021C00000018240404
:10323000041E0404041E000000000000003C120CE8
:10324000021C221C00030202020E1212123700009E
:103250000004040000060404040E00000008080036
:10326000000C08080808080700030202021A0A06F0
:103270000A1300000007040404040404041F0000EF
:1032800000000000000F15151515000000000000DB
:10329000000F12121237000000000000000C121282
:1032A000120C000000000000000F1212120E0207A4
:1032B00000000000001C1212121C10380000000058
:1032C000001B06020207000000000000001E020CA6
:1032D000101E000000000004041E0404041C000072
:1032E00000000000001B1212123C00000000000051
:1032F000001B0A0A04040000000000000015150E5F
:103300000A0A000000000000001B0A040A1B00005B
:1033100000000000003312120C080403000000003B
:10332000001E0804041E000018080808080C0808FD
:103330000808180008080808080808080808080805
:10334000060404040408040404040600160900002A
:10335000000000000000000000000000000000006D
:103360000000000000000000000000080808080835
:10337000080800001818000000486C241200000023
:1033800000000000000000000000002424247F1240
:1033900012127F12121200000000081C2A2A0A0CC6
:1033A0001828282A2A1C08080000002225151515AF
:1033B0002A585454542200000000000C1212120A21
:1033C00076252911916E0000000606040300000016
:1033D0000000000000000000004020101008080855
:1033E00008080810102040000002040808101010FF
:1033F00010101008080402000000000008086B1CF0
:103400001C6B080800000000000000000808080805
:103410007F0808080800000000000000000000000D
:103420000000000006060403000000000000000089
:10343000FE0000000000000000000000000000008E
:103440000000000006060000000080404020201020
:10345000100808040402020000000018244242423E
:103460004242424224180000000000080E080808EA
:1034700008080808083E00000000003C42424220C4
:1034800020100804427E00000000003C4242201848
:1034900020404042221C000000000020302824244C
:1034A00022227E20207800000000007E0202021A04
:1034B00026404042221C0000000000382402021A6C
:1034C00026424242241800000000007E22221010F2
:1034D00008080808080800000000003C4242422496
:1034E00018244242423C000000000018244242429C
:1034F00064584040241C0000000000000000181820
:103500000000000018180000000000000000000883
:10351000000000000008080400000040201008041B
:1035200002040810204000000000000000007F009E
:1035300000007F00000000000000000204081020CE
:1035400040201008040200000000003C42424640B7
:1035500020101000181800000000001C225A5555B9
:1035600055552D42221C00000000000808181414B4
:10357000243C224242E700000000001F2222221EBB
:1035800022424242221F00000000007C4242010110
:1035900001010142221C00000000001F22424242A1
:1035A00042424242221F00000000003F4212121E0F
:1035B00012120242423F00000000003F4212121E5F
:1035C00012120202020700000000003C2222010148
:1035D00001712122221C0000000000E74242424209
:1035E0007E42424242E700000000003E0808080810
:1035F00008080808083E00000000007C10101010A9
:10360000101010101010110F0000007722120A0E77
:103610000A121222227700000000000702020202B2
:1036200002020202427F0000000000773636363682
:103630002A2A2A2A2A6B0000000000E346464A4A4A
:1036400052525262624700000000001C2241414178
:1036500041414141221C00000000003F42424242E1
:103660003E020202020700000000001C224141410C
:1036700041414D53321C60000000003F4242423E37
:103680001212222242C700000000007C42420204C3
:1036900018204042423E00000000007F4908080810
:1036A00008080808081C0000000000E742424242E7
:1036B00042424242423C0000000000E742422224D3
:1036C00024141418080800000000006B49494949F7
:1036D0005555362222220000000000E7422424181B
:1036E0001818242442E70000000000772222141456
:1036F00008080808081C00000000007E21201010A7
:1037000008040442423F000000780808080808083E
:1037100008080808080878000000020204040808E5
:103720000810102020204040001E10101010101013
:103730001010101010101E0000384400000000008F
:103740000000000000000000000000000000000079
:1037500000000000000000FF00060800000000005C
:103760000000000000000000000000000000003C1D
:103770004278444242FC0000000000030202021AA8
:1037800026424242261A00000000000000000038D5
:1037900044020202443800000000006040404078CB
:1037A0004442424264D80000000000000000003C97
:1037B000427E0202423C0000000000F08808087EC1
:1037C00008080808083E0000000000000000007C17
:1037D00022221C023C42423C000000030202023A48
:1037E0004642424242E700000000000C0C00000E7E
:1037F00008080808083E00000000003030000038CB
:10380000202020202020221E00000003020202723D
:10381000120A1612227700000000000E080808089D
:1038200008080808083E0000000000000000007FB3
:103830009292929292B70000000000000000003BBC
:103840004642424242E70000000000000000003C07
:1038500042424242423C0000000000000000001BC7
:1038600026424242221E02070000000000000078AB
:1038700044424242447840E00000000000000077EB
:103880004C040404041F0000000000000000007C41
:1038900042023C40423E0000000000000008083E9A
:1038A000080808080830000000000000000000635D
:1038B0004242424262DC000000000000000000E7DB
:1038C000422424140808000000000000000000EB5F
:1038D00049495555222200000000000000000076F2
:1038E00024181818246E000000000000000000E7F3
:1038F0004224241418080807000000000000007E7D
:1039000022100808447E000000C020202020201043
:10391000202020202020C0001010101010101010A7
:1039200010101010101010100006080808080810D9
:1039300008080808080806000C32C2000000000051
:103940000000000000000000000000000000000077
:103950000000000000000000000000000000000067
:103960000000000000000000000000000000000057
:103970000000000000000000000000000000000047
:103980006000600060006000600060006000400057
:103990002000200020000000000000006000600007
:1039A00060000000000000000000000060066006EB
:1039B000300398018800440000000000000000006F
:1039C00000000000000000000000000000000000F7
:1039D00000000000000000000000000000000000E7
:1039E0001002100210021002FE07FE070802080172
:1039F000080108010801FE07FE0704010401040193
:103A00000401000000000000000000000000400071
:103A10004000F00158034C03CC034C0058007000E8
:103A2000E000C001C00140034C035C034C034801AB
:103A3000F000400040000000000000000000000016
:103A40000E010A01910091009100510051003A00CD
:103A5000AE03A00250045004480448044804840201
:103A600084030000000000000000000000000000CF
:103A700038006C006C006C006C006C002C00980727
:103A80001C011A01330133016301E300C308C609B5
:103A90003C07000000000000000000000C001C00BB
:103AA00010001000080004000000000000000000EA
:103AB0000000000000000000000000000000000006
:103AC00000000000000000000000000000040002F0
:103AD0000001800080004000400020002000200005
:103AE00020002000200020004000400080008000D6
:103AF00000010002000400000000000002000400B9
:103B0000080010001000200020004000400040008D
:103B10004000400040004000200020001000100045
:103B20000800040002000000000000000000000087
:103B3000000000004000C0004000460C4E0FD001C5
:103B4000F0015E0F460C4000400040000000000005
:103B50000000000000000000000000000000000065
:103B60000000000000004000400040004000400015
:103B7000FE0F4000400040004000400000000000F8
:103B80000000000000000000000000000000000035
:103B90000000000000000000000000000000000025
:103BA0000000000000000000000000000C001C00ED
:103BB00010001000080004000000000000000000D9
:103BC00000000000000000000000000000000000F5
:103BD000FE070000000000000000000000000000E0
:103BE00000000000000000000000000000000000D5
:103BF00000000000000000000000000000000000C5
:103C00000000000000000000000000001C001C007C
:103C10001C0000000000000000000000000400067E
:103C2000000200030001000180008000400040000D
:103C300060002000200010001000080008000C00A8
:103C40000400060002000000000000000000000068
:103C50000000F00098010C030C0306060606060699
:103C6000060606060606060606060C030C03980161
:103C7000F000000000000000000000000000000054
:103C8000000040007C006000600060006000600098
:103C90006000600060006000600060006000600024
:103CA000FC03000000000000000000000000000015
:103CB0000000F8008401020306030603000300016C
:103CC0008001C0006000200010000802040206020B
:103CD000FE030000000000000000000000000000E3
:103CE00000007800C6008601860180018001C000C6
:103CF0007000800100010003000306030603860133
:103D0000F8000000000000000000000000000000BB
:103D1000000080018001C001A001A0019001880184
:103D2000880184018201FE0F8001800180018001F1
:103D3000E00700000000000000000000000000009C
:103D40000000FC0304000400040004000400F4006C
:103D50008C010403000300030603060382018401AF
:103D6000F80000000000000000000000000000005B
:103D70000000E00118030C030C0004000600E6013B
:103D800016030E0606060606060604060C021803AF
:103D9000F000000000000000000000000000000033
:103DA0000000F8070C060402040100010001800075
:103DB0008000400040004000600060006000600043
:103DC0006000000000000000000000000000000093
:103DD0000000F8010C030606060606060C021C038A
:103DE000F000C8010C0306060606060606060C03CC
:103DF000F0010000000000000000000000000000D2
:103E00000000F0000C010C0306020606060606067A
:103E100006078C0678060006000300030C018C01DF
:103E2000780000000000000000000000000000001A
:103E3000000000000000000000000000E000E000C2
:103E4000E00000000000000000000000E000E000D2
:103E5000E000000000000000000000000000000082
:103E60000000000000000000000000006000600092
:103E700000000000000000000000000000006000E2
:103E80006000400020002000000000000000000052
:103E90000004000200018000400020001000080023
:103EA0000400080010002000400080000001000213
:103EB00000040000000000000000000000000000FE
:103EC000000000000000000000000000FE070000ED
:103ED00000000000FE0700000000000000000000DD
:103EE00000000000000000000000000000000000D2
:103EF00004000800100020004000800000010002C3
:103F000000040002000180004000200010000800B2
:103F1000040000000000000000000000000000009D
:103F20000000E0031806040C040C0C0C0C0C000739
:103F3000800140004000400000000000E000E00080
:103F4000E000000000000000000000000000000091
:103F5000E00018030C02CC0564056605A605B6044E
:103F6000B604B604B604B602E4010C040C0218034D
:103F7000F000000000000000000000000000000051
:103F80000000600060005000D000900090008800A9
:103F900088010801F8010403040304020202020676
:103FA0000F0F0000000000000000000000000000F3
:103FB0000000FE008C030C030C030C030C038C01AB
:103FC000FC000C030C020C060C060C060C060C0381
:103FD000FE010000000000000000000000000000E2
:103FE0000000E00318030C060C040404060006009D
:103FF000060006000600060006040C040C02180366
:10400000F0000000000000000000000000000000C0
:1040100000007F008C010C030C030C060C060C0640
:104020000C060C060C060C060C060C030C038C018B
:104030007F00000000000000000000000000000001
:104040000000FF030603060406040600860086003F
:10405000FE008600860086000600060406040602AE
:10406000FF0300000000000000000000000000004E
:104070000000FF030603060406040600860086000F
:10408000FE00860086008600060006000600060088
:104090001F00000000000000000000000000000001
:1040A0000000F00018010C020C02040206000600D9
:1040B00006000600C60F060306030C030C031803D4
:1040C000F000000000000000000000000000000000
:1040D00000000F0F0606060606060606060606067A
:1040E000FE07060606060606060606060606060677
:1040F0000F0F0000000000000000000000000000A2
:104100000000FC0360006000600060006000600070
:10411000600060006000600060006000600060009F
:10412000FC03000000000000000000000000000090
:104130000000F807C000C000C000C000C000C00000
:10414000C000C000C000C000C000C000C000C0006F
:10415000C000C60066003C00000000000000000037
:104160000000CF038601C600460026001600360078
:104170002E006E004600C60086008601060106037A
:104180008F07000000000000000000000000000099
:1041900000001F00060006000600060006000600DC
:1041A00006000600060006000600060406040602D5
:1041B000FF030000000000000000000000000000FD
:1041C00000000707860386038E038E034E034E030B
:1041D0004A035A035A033A033203320332031203E7
:1041E0008707000000000000000000000000000041
:1041F00000008E0F0C021C021C0234023402640206
:1042000064024402C402840284038403040304039A
:104210001F0200000000000000000000000000007D
:104220000000F00098010C030C02060606060606C4
:10423000060606060606060606060C020C0398018C
:10424000F00000000000000000000000000000007E
:104250000000FF000603060606060606060606061A
:104260008603FE00060006000600060006000600A3
:104270001F0000000000000000000000000000001F
:104280000000F00098010C030C0206060606060664
:10429000060606060606060676064C02CC039801BC
:1042A000F000800700030000000000000000000094
:1042B0000000FF01060306060606060606060603BC
:1042C000FE004600C60086008601060306030606B9
:1042D0000F0E0000000000000000000000000000C1
:1042E0000000F8020C030602060206000E003C0065
:1042F000F800E003800300070206020606060C032E
:10430000F0010000000000000000000000000000BC
:104310000000FE0762046108610860006000600040
:10432000600060006000600060006000600060008D
:10433000F801000000000000000000000000000084
:1043400000001E070C020C020C020C020C020C02F4
:104350000C020C020C020C020C020C020C021801E2
:10436000F00000000000000000000000000000005D
:1043700000000F070602040104010C010C01880073
:104380008800980098005000500070003000200015
:1043900020000000000000000000000000000000FD
:1043A0000000F70E620442044604460464026402FC
:1043B000E402E4029C029C019801980188018800B3
:1043C0008800000000000000000000000000000065
:1043D00000009E070C01080118019000B000600069
:1043E000200060006000D0009000880108010403F4
:1043F0008E07000000000000000000000000000028
:1044000000000F0F060404020C0208011801B80096
:10441000B00070006000600060006000600060003C
:10442000F801000000000000000000000000000093
:104430000000FC070C02060302018001800040001E
:104440004000200020001000180008040C040402A2
:10445000FE0300000000000000000000E003200058
:10446000200020002000200020002000200020004C
:10447000200020002000200020002000200020003C
:1044800020002000E0030000000000000000000009
:1044900004000400080008001000100010002000B4
:1044A000200040004000C0008000800000010001AA
:1044B0000002000200020004000000007C00400036
:1044C00040004000400040004000400040004000EC
:1044D00040004000400040004000400040004000DC
:1044E000400040007C0000000000600090000801D7
:1044F00000000000000000000000000000000000BC
:1045000000000000000000000000000000000000AB
:10451000000000000000000000000000000000009B
:10452000000000000000000000000000000000008B
:10453000000000000000000000000000000000007B
:10454000000000000000FF0F0000000018006000E5
:10455000000000000000000000000000000000005B
:10456000000000000000000000000000000000004B
:10457000000000000000000000000000000000003B
:10458000000000000000000000000000F0010C032B
:104590000C030003E0031C030E03060306038E0B4B
:1045A0007C0E000000000000000000000000000081
:1045B00008000E000C000C000C000C00CC013C03A9
:1045C0001C060C060C060C060C060C060C021C0342
:1045D000E4010000000000000000000000000000F6
:1045E000000000000000000000000000F0008C014E
:1045F0008C01860106000600060006020C020C0172
:10460000F0000000000000000000000000000000BA
:104610000002C003000300030003000378038C03BF
:104620000C030603060306030603060304038C07B4
:104630007801000000000000000000000000000001
:10464000000000000000000000000000E00118036E
:1046500008020C060C06FC070C000C0018041802DB
:10466000E001000000000000000000000000000069
:104670000000C0036006300630003000FE0130004C
:1046800030003000300030003000300030003000AA
:10469000FC0100000000000000000000000000001D
:1046A000000000000000000000000000F007D80635
:1046B0008C018C018C019801F8000C00FC00CC03EB
:1046C000060306038E03F80000000000000000004F
:1046D00008000E000C000C000C000C00EC011C0388
:1046E0000C030C030C030C030C030C030C030C0352
:1046F0009E07000000000000000000000000000015
:104700000000600060000000000040007C006000CD
:104710006000600060006000600060006000600099
:10472000FC0300000000000000000000000000008A
:104730000000C001C001000000000001F001800184
:104740008001800180018001800180018001800161
:1047500080018001CC007C0000000000000000000F
:1047600008000E000C000C000C000C008C038C00E8
:104770008C004C006C005C008C008C010C010C0364
:104780009E07000000000000000000000000000084
:1047900040007C006000600060006000600060001D
:1047A0006000600060006000600060006000600009
:1047B000FC030000000000000000000000000000FA
:1047C0000000000000000000000000003707EE06B7
:1047D0006606660666066606660666066606660679
:1047E000FF0F0000000000000000000000000000BB
:1047F000000000000000000000000000EE011C03AB
:104800000C030C030C030C030C030C030C030C0330
:104810009E070000000000000000000000000000F3
:10482000000000000000000000000000F0009801FF
:104830000C03060606060606060606060C030C030F
:10484000F000000000000000000000000000000078
:10485000000000000000000000000000EE011C034A
:104860000C060C060C060C060C060C060C031C03AE
:10487000EC010C000C003E000000000000000000F5
:1048800000000000000000000000000078028C031F
:104890000C030603060306030603060304038C0346
:1048A000780300030003C0070000000000000000C0
:1048B0000000000000000000000000009F035806F8
:1048C0003806180018001800180018001800180002
:1048D000FF000000000000000000000000000000D9
:1048E000000000000000000000000000F0031C03B6
:1048F0000C020C023800F000C003040304038C0314
:10490000FC010000000000000000000000000000AA
:10491000000000002000200030003000FE013000C8
:104920003000300030003000300030003002300203
:10493000E001000000000000000000000000000096
:104940000000000000000000000008028E030C03BD
:104950000C030C030C030C030C030C030C039C074B
:1049600078010000000000000000000000000000CE
:104970000000000000000000000000001E070C0204
:104980000801080118019000B000B000600060004C
:1049900020000000000000000000000000000000F7
:1049A000000000000000000000000000F70E62049C
:1049B000460464026402EC029C019801980198018B
:1049C00008000000000000000000000000000000DF
:1049D000000000000000000000000000BC071801FB
:1049E0001001B00060006000E000900008010803C2
:1049F0009E07000000000000000000000000000012
:104A00000000000000000000000000009E070801F8
:104A10000801080190009000B00060006000600094
:104A20002000200024001C00000000000000000006
:104A3000000000000000000000000000FC018401F4
:104A4000C4004400600020003000180208020C037B
:104A5000FC010000000000000000000000038000D6
:104A60008000800080008000800080008000400086
:104A700020004000800080008000800080008000D6
:104A80008000800000030000400040004000400023
:104A90004000400040004000400040004000400016
:104AA0004000400040004000400040004000400006
:104AB0004000400040004000000000000C001000DA
:104AC0001000100010001000100010001000200056
:104AD0004000200010001000100010001000100016
:104AE000100010000C00000000001C002204C20492
:104AF0008003000000000000000000000000000033
:104B000000000000000000000000000000000000A5
:104B10000000000000000000000000000000000095
:104B20000000000000000000000000000000000085
:104B30000000000000000000000000000000000075
:104B40000000000000000000000000000000000065
:104B50000000000000000000000000000000000055
:104B60000000C001C001C001C001C001C001C001FE
:104B700080008000800080008000800080000000B5
:104B80000000000000008001C003C003800100009D
:104B90000000000000000000000000000000E01C19
:104BA000E01CF01E700E3807180308018400000096
:104BB00000000000000000000000000000000000F5
:104BC00000000000000000000000000000000000E5
:104BD00000000000000000000000000000000000D5
:104BE0000000000020102010201020102010FE7F58
:104BF000FE7F100810081008100810081008100890
:104C0000FE7FFE7F0804080408040804080400006E
:104C10000000000000000000000000000000000094
:104C200000010001C0076019103118311839183916
:104C300038017001E001C0038007000F001D00393A
:104C400000311C311C310C310C11180DE007000132
:104C50000001000100000000000000000000000052
:104C6000000000001C1036186308630C6304630422
:104C7000630263026301361D9C37802280634063B8
:104C8000406320632063306310221836081C000044
:104C90000000000000000000000000000000000014
:104CA00000000000F00098018C018C018C018C0147
:104CB0008C00CC007800183E1C08360832086304CB
:104CC0006304C304C303834306438E26781C000099
:104CD00000000000000000000000000000001C00B8
:104CE0003C003C003000300010000C0006000000CA
:104CF00000000000000000000000000000000000B4
:104D000000000000000000000000000000000000A3
:104D10000000000000000000000000000000004053
:104D2000002000100008000C00040006000300032F
:104D300000038001800180018001800180018001E9
:104D4000800100030003000300060006000C0008B9
:104D500000100020004000000000000000000200E1
:104D6000040008001000300020006000C000C000F7
:104D7000C0008001800180018001800180018001EC
:104D80008001C000C000C000600060003000100062
:104D90000800040002000000000000000000000005
:104DA00000000000000000000001800380030001FB
:104DB0001C713C79783DC0070001C007783D3C7903
:104DC0001C710001800380038001000000000000CE
:104DD00000000000000000000000000000000000D3
:104DE00000000000000000000000000100010001C0
:104DF0000001000100010001FC7F00010001000131
:104E0000000100010001000100000000000000009E
:104E10000000000000000000000000000000000092
:104E20000000000000000000000000000000000082
:104E30000000000000000000000000000000000072
:104E400000000000000000001C003C003C0030009E
:104E5000300010000C000600000000000000000000
:104E60000000000000000000000000000000000042
:104E70000000000000000000FE7F000000000000B5
:104E80000000000000000000000000000000000022
:104E90000000000000000000000000000000000012
:104EA0000000000000000000000000000000000002
:104EB00000000000000000000000000000000000F2
:104EC00000000000000018003C003C00180000003A
:104ED0000000000000000000000000000000004092
:104EE000006000200030001000180008000C0004D2
:104EF000000600020003000180018000C0004000A5
:104F00006000200030001000180008000C000400B1
:104F10000600020000000000000000000000000089
:104F200000000000C007600C30181830183018203E
:104F30000C600C600C600C600C600C600C600C6011
:104F40000C601820183018303018600CC0070000B2
:104F50000000000000000000000000000000000051
:104F60000000000000018001F80180018001800143
:104F70008001800180018001800180018001800129
:104F800080018001800180018001C003F81F0000C2
:104F90000000000000000000000000000000000011
:104FA00000000000E007101C0818043004300C302A
:104FB0000C300030001800080004000200018000DE
:104FC00040002020102008200430FC1FFC1F00009F
:104FD00000000000000000000000000000000000D1
:104FE00000000000E003180E0C0C0C180C180C1834
:104FF0000018000C0006C003000E0018001000305E
:1050000000300C300C300C100C18180CE0030000B1
:105010000000000000000000000000000000000090
:1050200000000000000C000E000E000F800E800E2D
:10503000400E600E200E100E100E080E040E040E10
:10504000FE7F000E000E000E000E000E000EC07F50
:105050000000000000000000000000000000000050
:1050600000000000F03FF03F1000100010000800AA
:105070000800C807280C181808100030003000304D
:1050800000300C300C3004180418080CF003000039
:105090000000000000000000000000000000000010
:1050A00000000000800FC0102030103018001800E1
:1050B00008000C008C0F6C183C301C600C600C60FD
:1050C0000C600C601860182030306018C0070000B9
:1050D00000000000000000000000000000000000D0
:1050E00000000000F83FF83F1C100C0804080404FE
:1050F00000040002000200010001000180008000A5
:105100008000C000C000C000C000C000C00000009F
:10511000000000000000000000000000000000008F
:1051200000000000E007300C18180C300C300C3078
:105130001C3038187008E007B007180E0C1C063831
:1051400006300630063006300C18180CE00300005C
:10515000000000000000000000000000000000004F
:1051600000000000E00318040C080C1806100630BC
:1051700006300630063006380C3C1836F031003068
:105180000018001800180C0C0C060C03F0010000AD
:10519000000000000000000000000000000000000F
:1051A00000000000000000000000000000000000FF
:1051B00000008001C003C003800100000000000067
:1051C0000000000000008001C003C0038001000057
:1051D00000000000000000000000000000000000CF
:1051E00000000000000000000000000000000000BF
:1051F0000000C000C000000000000000000000002F
:1052000000000000000000000000C000C00080009E
:10521000800040004000000000000000000000008E
:1052200000000020001000080004000600038001B8
:10523000C0006000300018000C0018003000600052
:10524000C0008001000300060004000800100020D8
:10525000000000000000000000000000000000004E
:10526000000000000000000000000000000000003E
:105270000000FE7F00000000000000000000FE7F34
:10528000000000000000000000000000000000001E
:10529000000000000000000000000000000000000E
:1052A000000004000800100020006000C000800121
:1052B00000030006000C001800300018000C000667
:1052C00000038001C00060002000100008000400FE
:1052D00000000000000000000000000000000000CE
:1052E0000000C0073018083008600C601C601C60AB
:1052F0001C600030001C000600018000800080005F
:105300008000000000008001C003C0038001000095
:10531000000000000000000000000000000000008D
:1053200000000000C0076018103018200C2F8C4DB2
:10533000864CC64CC64C664C664466446626662659
:105340006615CC1C0C40082018303018C00700002F
:10535000000000000000000000000000000000004D
:1053600000000001C001C001C00140016003200332
:10537000200320033006100610061006F80F080C54
:10538000080C080C0C0C0418041806181F7C0000EC
:10539000000000000000000000000000000000000D
:1053A00000000000FE07181C18381830183018309C
:1053B00018301818180CF80718181830182018602A
:1053C000186018601860186018301818FE0F000078
:1053D00000000000000000000000000000000000CD
:1053E00000000000C0276038103018200C400C402E
:1053F000040006000600060006000600060006007F
:1054000006000C400C400C2018303018C00700007B
:10541000000000000000000000000000000000008C
:1054200000000000FE03180E18181830183018304D
:1054300018601860186018601860186018601860AC
:1054400018601830183018101818180EFE030000D5
:10545000000000000000000000000000000000004C
:1054600000000000FE3F1830182018601840180097
:1054700018081808180CF80F180C18081808180045
:10548000180018001840184018201830FE3F00007F
:10549000000000000000000000000000000000000C
:1054A00000000000FE7F1870184018C01880180017
:1054B000181018101818F81F1818181018101800BD
:1054C0001800180018001800180018007E000000CE
:1054D00000000000000000000000000000000000CC
:1054E00000000000C013701C101018100C200C20BD
:1054F00004000600060006000600060006FC063052
:1055000006300C300C30183018303008C00700005E
:10551000000000000000000000000000000000008B
:10552000000000003F7E0C180C180C180C180C180A
:105530000C180C180C180C18FC1F0C180C180C1854
:105540000C180C180C180C180C180C183F7E0000C6
:10555000000000000000000000000000000000004B
:1055600000000000F81F800180018001800180019F
:105570008001800180018001800180018001800123
:10558000800180018001800180018001F81F0000FE
:10559000000000000000000000000000000000000B
:1055A00000000000E07F000600060006000600067E
:1055B00000060006000600060006000600060006BB
:1055C00000060006000600060006000600060006AB
:1055D0000E060E038E01FC0000000000000000001B
:1055E000000000007E7C181818081804180618021D
:1055F000180198019801D801B80338031807180654
:10560000180E180C181C1818183018307EFC0000E2
:10561000000000000000000000000000000000008A
:10562000000000007E001800180018001800180084
:1056300018001800180018001800180018001800AA
:10564000180018001840184018201830FE3F0000BD
:10565000000000000000000000000000000000004A
:10566000000000001FF81C381C381C381C3C343467
:1056700034343434343674326432643264326431F3
:10568000C431C431C431C430C43084309FFC000004
:10569000000000000000000000000000000000000A
:1056A000000000001F7C1C103C10341034107410DB
:1056B0006410E410C410C41184118413041304177B
:1056C0000416041E041C041C041C04181F180000EB
:1056D00000000000000000000000000000000000CA
:1056E00000000000C003300C181808100C300C30FB
:1056F000066006600660066006600660066006607A
:1057000006600C200C3008101818300CC003000084
:105710000000000000000000000000000000000089
:1057200000000000FE0F181818301860186018608C
:105730001860186018301818F80F180018001800B2
:105740001800180018001800180018007E0000004B
:105750000000000000000000000000000000000049
:1057600000000000C003300C18180C100C300C2086
:1057700006600660066006600660066006600660F9
:105780000660E4612C331C321816300EC007004C42
:10579000007C003800000000000000000000000055
:1057A00000000000FE07181C183818301830183098
:1057B00018301818180CF80798031803180718065B
:1057C0001806180E180C180C181C18187E780000F3
:1057D00000000000000000000000000000000000C9
:1057E00000000000E027303818300C200C200C009E
:1057F0000C0018007800E003800F001E00380070D5
:10580000006004600460086018303818C80F000099
:105810000000000000000000000000000000000088
:1058200000000000FC3F8C218461824182418001A4
:105830008001800180018001800180018001800160
:10584000800180018001800180018001E00700006B
:105850000000000000000000000000000000000048
:10586000000000003F7C0C100C100C100C100C10F1
:105870000C100C100C100C100C100C100C100C1048
:105880000C100C100C100C1008083804E003000079
:105890000000000000000000000000000000000008
:1058A000000000003EF8182018201820301030109A
:1058B00030103010600860086008E00CC004C004BC
:1058C000C004800380038003800300010001000006
:1058D00000000000000000000000000000000000C8
:1058E00000000000DFF38661862186218C210C21D7
:1058F0008C238C138C138C134C1358125816580E7F
:10590000380E380E380E300C10041004100400004D
:105910000000000000000000000000000000000087
:10592000000000007E3E1808380830043004700281
:105930006002E001C001C001800180034003400714
:1059400020062006100C100C081808183E7C0000D9
:105950000000000000000000000000000000000047
:10596000000000007E7C1C10181018083008300C55
:10597000700460046002C002C002C00180018001A6
:10598000800180018001800180018001E00700002A
:105990000000000000000000000000000000000007
:1059A00000000000F83F18180818040C040E000648
:1059B0000007000380038001C001C000E000600018
:1059C00070003000382018201C100C18FE1F00003A
:1059D0000000000000000000000000000000C03FC8
:1059E00040004000400040004000400040004000B7
:1059F00040004000400040004000400040004000A7
:105A00004000400040004000400040004000400096
:105A10004000C03F00000000000000000000000047
:105A2000000008001800180010003000200060007E
:105A300060004000C0008000800180010001000380
:105A40000002000600060004000C00080018001800
:105A50000010003000200000000000000000FC03E7
:105A60000002000200020002000200020002000226
:105A70000002000200020002000200020002000216
:105A80000002000200020002000200020002000206
:105A90000002FC030000000000000000000080077E
:105AA000C0062008101000000000000000000000E8
:105AB00000000000000000000000000000000000E6
:105AC00000000000000000000000000000000000D6
:105AD00000000000000000000000000000000000C6
